S315080000008821002001010008110D0008370B00089F
S315080000100D0D0008C9090008631500080000000056
S31508000020000000000000000000000000D10F0008DA
S31508000030CD09000800000000990D0008BD10000851
S315080000401B0100081B0100081B0100081B01000812
S315080000501B0100081B0100081B0100081B01000802
S315080000601B0100081B0100081B0100081B010008F2
S315080000701B0100081B0100081B0100081B010008E2
S315080000801B0100081B0100081B0100081B010008D2
S315080000901B0100081B0100081B0100081B010008C2
S315080000A01B0100081B0100081B0100081B010008B2
S315080000B0351100081B0100081B0100081B01000878
S315080000C01B0100081B0100081B0100081B01000892
S315080000D01B010008851200081B0100081B01000807
S315080000E01B0100081B0100081B010008DFF80CD0E3
S315080000F000F058FC004800475D36000888210020BB
S315080001000648804706480047FEE7FEE7FEE7FEE7A3
S31508000110FEE7FEE7FEE7FEE7FEE7FEE7D510000886
S31508000120ED00000840EA01039B0703D009E008C96F
S31508000130121F08C0042AFAD203E011F8013B00F89E
S31508000140013B521EF9D27047D2B201E000F8012BEA
S31508000150491EFBD270470022F6E710B513460A4639
S3150800016004461946FFF7F0FF204610BD30B5054690
S315080001702A460B4612F8010B13F8014B08B1A042A8
S31508000180F8D01CB1002802D06D1CF1E7284630BD16
S31508000190421C10F8011B0029FBD1801A7047F0B4E5
S315080001A080EA0102D40F4200B2EB410F02D20246A6
S315080001B0084611464A0042D0C30DDDB2C1F3C75204
S315080001C0AD1A202D35DAC1F3160141F4000204B147
S315080001D05242C5F1200602FA06F12A411044B3EB51
S315080001E0D05F23D0C4B1012DA0EBC35009DCF0BC0D
S315080001F04FF0004202EAC352DBB200F5000000F0FD
S3150800020016BB400000F1807000EBC350A0F180706F
S3150800021040EAD170490009E0490841EAC071A0EBFB
S31508000220C35000F50000400800EBC350F0BC00F0D6
S31508000230F5BA6142012202EB4101001BF6E7F0BC68
S31508000240704781F00041AAE780F00040A7E780EAFE
S31508000250010210B502F00043400022D04A001FD028
S31508000260010E01EB1261C0F35600C2F3560240F4C8
S31508000270000042F40002A0FB022000047F391404A7
S3150800028000D0401C50EA124001D44000491EC2B2B8
S315080002900C0604EBD010401C4008802A02D003E06C
S315080002A0002010BD20F00100002900DA00201843C4
S315080002B010BD30B480EA010202F0004530F0004279
S315080002C021F0004013D090B1C30DD40DC2F316012E
S315080002D0C0F31600E41A41F4000140F400027D342C
S315080002E0914201D3641C00E04900002C02DA30BCBC
S315080002F0002070474FF400000023914201D3891A69
S31508000300034340084FEA4101F7D151B1914202D166
S315080003104FF0004105E002D24FF0010101E06FF015
S31508000320010103EBC450284430BC00F077BA2DE92C
S31508000330FE4F804681EA0300C00F0C46009021F06C
S31508000340004123F00045B8EB0200A94105D240461A
S31508000350214690461C460B46024623F000401043B1
S3150800036047D0270DC7F30A00C3F30A510290401A73
S31508000370019040286BDAC3F3130040F4801B009801
S31508000380924620B10023D2EB030A63EB0B0B0198CC
S315080003905946C0F14002504600F00FFA06460D468F
S315080003A050465946019A00F027FA10EB08006141B9
S315080003B0002487EA115284EAE7731A4340D0009A68
S315080003C062B3019A012A4FEA075215DC001B61EB5A
S315080003D002014FF0004202EA0752CDE90042001C32
S315080003E041F5801132462B4600F05EFA03B0BDE8AF
S315080003F0F08F40462146F9E7001B61EB0201001C1D
S3150800040041F5801300185B412018A2F5001747EB49
S31508000410030140EAD570B6196D4111E06D084FEA3F
S31508000420360645EAC0754FEA0752001B61EB020122
S31508000430001C41F5801149084FEA30000019514166
S3150800044032462B4603B0BDE8F04F00F01EBA0098BE
S31508000450012240000023D0EB020263EBE073009810
S3150800046021464FEAE074B8EB000061EB0401E9E7C6
S3150800047083F000435BE781F0004158E72DE9FE4F22
S3150800048081EA030404F0004421F0004100944FF08F
S31508000490000B23F0004350EA01045ED052EA03043D
S315080004A05BD0C3F30A54C1F30A552C44A4F2F334BF
S315080004B00194A0FB0254C1F3130141F48011C3F364
S315080004C0130343F4801301FB024400FB034E840A22
S315080004D0970A44EA815447EA8357A4FB07680295BA
S315080004E08D0A05FB07854FEA932C04FB0C54270558
S315080004F0029D4FEA065847EA1637B5EB08056EEB34
S31508000500070C870E920E47EA811742EA8312A7FB69
S315080005100201B6EB0B0164EB00042B0D43EA0C3326
S315080005205E1844EB1C50DA465146E7FB0201C5F358
S3150800053013044FEA0B3343EA14534FEA0432019C7F
S3150800054043EA0603A4F10C040294009CCDE900B426
S3150800055000F0AAF903B0BDE8F08F00200146F9E7DC
S315080005602DE9F04D81EA030404F0004B21F0004523
S3150800057014464FF0000A23F0004150EA050220D045
S3150800058054EA01021DD0C5F30A570246C5F3130300
S31508000590C1F31300C1F30A5640F4801543F48013DF
S315080005A0A7EB0608101BD64608F2FD3873EB0500C4
S315080005B002D308F1010801E092185B41B8F1000F77
S315080005C003DA00200146BDE8F08D00204FF48011C3
S315080005D0064684460EE0171B73EB050705D3121B68
S315080005E063EB050306434CEA010C49084FEA300061
S315080005F092185B4150EA0107EDD152EA030012D086
S3150800060082EA040083EA0501084305D0101BAB41C2
S3150800061006D20122002306E000224FF0004302E042
S315080006206FF0010253101AEB06004CEB085110EB61
S315080006300A0041EB0B01BDE8F04D00F026B9C10FE9
S3150800064080EAE0700844CA079623002100F0EFB854
S3150800065096230022114600F0EAB80EB540F233415F
S3150800066002910021CDE900110A460B4600F01CF95B
S3150800067003B000BD20F00040C10DC0F3160040F4E1
S3150800068000007F2901DA00207047962903DCC1F1B2
S315080006909601C8407047963988407047C1F30A5298
S315080006A010B5C1F3130140F2FF3341F480119A42A9
S315080006B001DA002010BD40F233439A42A2F23342D7
S315080006C003DC524200F088F810BD904010BD00F0DF
S315080006D0004230F000400AD0C10D01F56071C0F348
S315080006E0160042EA0151C20840071143704700202C
S315080006F00146704701F0004330B421F0004150EA4A
S31508000700010206D00A0DA2F56072C1F31301002A90
S3150800071002DC30BC00207047440F44EAC104C10023
S31508000720E01830BC00EBC25000F078B830B50B4684
S31508000730014600202022012409E021FA02F59D4203
S3150800074005D303FA02F5491B04FA02F52844151ED7
S31508000750A2F10102F1DC30BD2DE9F05F054600206B
S3150800076092469B4688460646814640241BE0284614
S3150800077041464746224600F02FF853465A46C01AC5
S31508000780914110D311461846224600F016F82D1A44
S3150800079067EB01084F4622460120002100F00DF8BC
S315080007A017EB00094E41201EA4F10104DFDC484680
S315080007B031462A464346BDE8F09F202A04DB203A04
S315080007C000FA02F1002070479140C2F1200320FA96
S315080007D003F3194390407047202A04DB203A21FA94
S315080007E002F00021704721FA02F3D040C2F120023C
S315080007F09140084319467047202A06DBCB17203A52
S3150800080041FA02F043EAE07306E041FA02F3D04007
S31508000810C2F1200291400843194670470029A8BF33
S315080008207047401C490008BF20F00100704710B40B
S31508000830B0FA80FC00FA0CF050EA010404BF10BCC0
S31508000840704749B1CCF1200421FA04F411FA0CF1ED
S3150800085018BF012121430843A3EB0C01CB1D4FEA26
S3150800086000614FEA102042BF002010BC704700EB21
S31508000870C35010440029A4BF10BC7047401C49004F
S3150800088008BF20F0010010BC704710B5141E73F1A4
S31508000890000408DA401C41F1000192185B411A4332
S315080008A001D120F0010010BD2DE9F04D92469B467E
S315080008B011B1B1FA81F202E0B0FA80F22032904624
S315080008C0FFF77BFF04460F4640EA0A0041EA0B01A0
S315080008D053465A46084313D0114653EA010019D025
S315080008E0C8F140025046FFF777FF05460E465046C8
S315080008F059464246FFF761FF084305D0012004E048
S3150800090020463946BDE8F08D0020054346EAE076E4
S315080009102C4337430A986305E40AA0EB0800002233
S31508000920FD0A44EA47540A3002D500200146E9E7A1
S31508000930010510196941DDE9084500196941BDE855
S31508000940F04DA2E7C1F30A52C1F3130140F2FF3397
S3150800095041F480119A4202DA00200146704740F2BB
S3150800096033439A42A2F2334202DC5242FFF734BFC3
S31508000970FFF723BF30B5041E71F1000404DB4FF006
S315080009800044404264EB0101141E73F1000405DBC8
S315080009901C464FF00043524263EB0403994208BFDA
S315080009A0904230BD064C074D06E0E06840F0010372
S315080009B094E8070098471034AC42F6D3FFF79AFB41
S315080009C01C5C00083C5C000800BFFEE7704700009E
S315080009D00549096821F01001034A116011460968A2
S315080009E001431160704700000020024001460020C4
S315080009F0034A106800F0380008431060704700008A
S31508000A00002002402DE9F04102460025002600207C
S31508000A1000230024002791F803C00CF00F0591F875
S31508000A2003C00CF0100CBCF1000F03D091F802C003
S31508000A304CEA050591F800C0BCF1000F31D01468E6
S31508000A4000202BE04FF0010C0CFA00F3B1F800C0BF
S31508000A500CEA03069E4220D183004FF00F0C0CFAD5
S31508000A6003F7BC4305FA03FC4CEA040491F803C0F7
S31508000A70BCF1280F06D14FF0010C0CFA00FCC2F8A5
S31508000A8014C00AE091F803C0BCF1480F05D14FF035
S31508000A90010C0CFA00FCC2F810C0401C0828D1D37F
S31508000AA01460B1F800C0BCF1FF0F34DD54680020B3
S31508000AB02EE000F1080C4FF0010808FA0CF3B1F823
S31508000AC000C00CEA03069E4221D183004FF00F0CAA
S31508000AD00CFA03F7BC4305FA03FC4CEA040491F844
S31508000AE003C0BCF1280F05D100F1080C08FA0CF870
S31508000AF0C2F8148091F803C0BCF1480F07D100F181
S31508000B00080C4FF0010808FA0CF8C2F81080401CCF
S31508000B100828CED35460BDE8F081024600209368C9
S31508000B200B400BB1012000E0002070470AB10161BB
S31508000B3000E04161704700BFFEE721B1028842F438
S31508000B408062028004E002884FF6FF331A40028072
S31508000B507047002221F07F42D3438382704721B138
S31508000B60028842F00102028004E002884FF6FE7312
S31508000B701A400280704721B1028842F480720280CE
S31508000B8004E002884FF6FF631A400280704721B1DD
S31508000B90028842F40072028004E002884FF6FF538E
S31508000BA01A40028070470CB50246002000230193C4
S31508000BB0009300920B0F019321F07F41019B1BB11B
S31508000BC0009B1433009303E0090C009B1833009331
S31508000BD0009B1B680B400BB1012000E000200CBDF8
S31508000BE02DE9F04385B004460D460026B146042794
S31508000BF0DFF8CC80A6884FF6C0700640684600F03D
S31508000C00EDF8DDF808802F48B8FBF0F01FFA80F9F8
S31508000C1046EA0906A68020884FF6FE71084020801D
S31508000C2000262949286888420CD828684000B8FB5D
S31508000C30F0F087B2042F00DA04273E4309F10100D9
S31508000C40208427E0E8884BF6FF71884206D1286899
S31508000C5000EB4000B8FBF0F087B209E0286800EB2B
S31508000C60C00101EB0010B8FBF0F087B247F48047EB
S31508000C70C7F30B0008B947F0010747F400400643DD
S31508000C804FF4967009FB00F04FF47A7190FBF1F07F
S31508000C90401C2084A683208840F0010020802688F6
S31508000CA04FF6F5300640A88869890843064326802A
S31508000CB0A88929890843208105B0BDE8F08300008A
S31508000CC000127A0040420F00A086010008B50246CD
S31508000CD00020009000920098084400900098008830
S31508000CE008BD0146088AC0B270470182704741F2C2
S31508000CF088310160002181804BF6FF71C180002197
S31508000D00018141814FF480418181704700BFFEE730
S31508000D107047000070B5002100230F22C47804B381
S31508000D20154C246804F4E064C4F5E064210AC1F1B2
S31508000D300403CA40447804FA03F184781440214332
S31508000D4009010E4C0678A155047804F01F05012404
S31508000D50AC4005786D11AD0005F1E025C5F80041F8
S31508000D6009E0047804F01F050124AC40044D067818
S31508000D70761145F8264070BD0CED00E000E400E071
S31508000D8080E100E002490143024A11607047000011
S31508000D900000FA050CED00E07047000029B1064A8C
S31508000DA0D2690243044BDA6104E0034AD2698243FA
S31508000DB0014BDA61704700000010024029B1064A6B
S31508000DC092690243044B9A6104E0034A926982439A
S31508000DD0014B9A61704700000010024030B50021AF
S31508000DE00022002400232D4D6D6805F00C0121B169
S31508000DF0042905D0082923D105E0294D056022E0FC
S31508000E00274D05601FE0254D6D6805F47012234DCA
S31508000E106D6805F48034022505EB92421CB9214D14
S31508000E20554305600BE01D4D6D6805F400351DB191
S31508000E301C4D5543056002E0194D5543056002E017
S31508000E40174D056000BF00BF144D6D6805F0F00131
S31508000E500909154D6B5C0568DD4045600F4D6D68E9
S31508000E6005F4E061090A104D6B5C4568DD40856054
S31508000E700A4D6D6805F46051C90A0B4D6B5C4568EF
S31508000E80DD40C560054D6D6805F44041890B074D89
S31508000E906B5CC568B5FBF3F5056130BD0010024013
S31508000EA000127A0000093D002400002034000020CA
S31508000EB010B501460022002300204A11012A02D15A
S31508000EC0094C236806E0022A02D1074C236A01E08E
S31508000ED0054C636A01F01F02012494401C400CB1C2
S31508000EE0012000E0002010BD0010024002484068C2
S31508000EF000F00C0070470000001002400146002078
S31508000F00034A506820F0F00008435060704700001C
S31508000F10001002401149096821F480310F4A116016
S31508000F201146096821F480211160B0F5803F03D08D
S31508000F30B0F5802F0ED106E00849096841F48031E2
S31508000F40064A116007E00549096841F4A021034AE9
S31508000F50116000E000BF00BF7047000000100240AB
S31508000F6001460020034A506820F4E06008435060B8
S31508000F70704700000010024001460020034A5068EE
S31508000F8020F4605040EAC1005060704700100240EB
S31508000F9001490866704700000000424202460020E8
S31508000FA0044B586820F47C1042EA01031843014BAD
S31508000FB0586070470010024001460020034A5068F6
S31508000FC020F00300084350607047000000100240FC
S31508000FD0704710B500F002F810BD00000CB50020EF
S31508000FE0019000903348006840F480303149086029
S31508000FF000BF3048006800F4003000900198401C9B
S315080010000190009818B90198B0F5A06FF1D1294858
S31508001010006800F4003010B10120009001E00020C3
S3150800102000900098012843D12348006840F010003A
S31508001030214908600846006820F00700086008464D
S31508001040006840F0020008601A484068194948607C
S315080010500846406848600846406840F48060486032
S315080010600846406820F47C1048600846406840F40A
S31508001070E81048600846006840F08070086000BFC5
S315080010800C48006800F000700028F9D0094840684C
S3150800109020F00300074948600846406840F002000F
S315080010A0486000BF0348406800F00C000828F9D1E2
S315080010B00CBD0000001002400020024004480368EE
S315080010C040685A1C40F1000001490A6048607047B0
S315080010D01800002010B51348006840F001001149B7
S315080010E0086008464068104908400E4948600846A6
S315080010F000680E4908400B4908600846006820F455
S31508001100802008600846406820F4FE0048604FF4D6
S315080011101F008860FFF75DFF4FF000600449086014
S3150800112010BD0000001002400000FFF8FFFFF6FEA9
S3150800113008ED00E010B501210C48006800F029F818
S3150800114098B101210948006800F014F80848B0F879
S31508001150800020F4004000F500400549A1F8800011
S3150800116000210248006800F008F810BD3800002089
S3150800117084000020CA430282704721B1028842F0E7
S315080011800102028004E002884FF6FE731A400280CC
S31508001190704730B50246002000230024158A05EA68
S315080011A00103958905EA010413B10CB1012000E099
S315080011B0002030BD1AB183890B43838102E08389FD
S315080011C08B43838170478184704700000022028820
S315080011D01D4B98420ED01D4B98420BD0B0F1804F54
S315080011E008D01B4B984205D01A4B984202D01A4B8E
S315080011F0984204D14FF68F731A404B881A43174BFF
S31508001200984207D0164B984204D04FF6FF431A402F
S31508001210CB881A4302808B8883850B8803850A4B03
S3150800122098420BD0094B984208D00E4B984205D0ED
S315080012300D4B984202D00D4B984201D10B7A03868A
S315080012400123838270470000002C014000340140CE
S315080012500004004000080040000C00400010004058
S31508001260001400400040014000440140004801408D
S315080012704FF6FF71818000210180C1804180017293
S315080012807047000010B508213248006800F08CF855
S3150800129040B108212F48006800F062F82D48006820
S315080012A000F04AF940F225512A48006800F089F80A
S315080012B000284DD02748006800F03EF9C4B22648F9
S315080012C0B0F88000C0F30E007F2822DA00212348F8
S315080012D00068FFF778FF2048B0F88000C0F30E00DA
S315080012E020B901211D480068FFF747FF1A48B0F8E2
S315080012F08000C0F30E0018490C540846B0F8800068
S31508001300401CB1F8801060F30E011348A0F8801055
S3150800131018E01148B0F880006FF30E000E49A1F8E6
S3150800132080000846B0F88000C0F30E000C5408464A
S31508001330B0F88000401CB1F8801060F30E01064832
S31508001340A0F8801040F225510248006800F011F814
S3150800135010BD00003C00002084000020380000205A
S3150800136001F40072B2F5007F00D100BFCA430280C3
S31508001370704710B50022002340F66A14A14200D136
S3150800138000BF0A1201249440A3B2DC43048010BDB6
S3150800139021B1828942F40052828104E082894DF6A5
S315080013A0FF731A408281704702460020B1F5007F1C
S315080013B000D100BF13880B400BB1012000E00020CC
S315080013C0704770B50246002400230025002040F629
S315080013D06A16B14200D100BFC1F3421501F01F03DE
S315080013E0012606FA03F3012D02D19689334006E059
S315080013F0022D02D1168A334001E0968A33400C1238
S31508001400012606FA04F41688344013B10CB10120FB
S3150800141000E0002070BDF0B5034600240026002534
S31508001420002040F66A17B94200D100BF1846C1F33A
S31508001430421401F01F06012707FA06F5012C01D10F
S315080014400C3004E0022C01D1103000E014301AB13F
S3150800145007682F43076002E00768AF430760F0BDDF
S315080014602DE9F04786B005460E460024A24600BF81
S31508001470A1460027B08900B100BF2F462C8A4CF63A
S31508001480FF700440F08804432C82AC894EF6F310B2
S315080014900440B08831890843718908430443AC8104
S315080014A0AC8A4FF6FF400440B0890443AC8201A8D9
S315080014B0FFF794FC1F48874202D1DDF810A001E02F
S315080014C0DDF80CA0A88900F4004040B10AEBCA0078
S315080014D000EB0A1031684900B0FBF1F807E00AEBA7
S315080014E0CA0000EB0A1031688900B0FBF1F86420E5
S315080014F0B8FBF0F004012009642101FB1089A889D2
S3150800150000F4004040B1322000EBC900B0FBF1F016
S3150800151000F00700044308E0322000EB09106421BC
S31508001520B0FBF1F000F00F0004432C8106B0BDE8D3
S31508001530F08700000038014001468888C0F308009B
S315080015407047C1F30802828070474FF41651016054
S3150800155000218180C18001810C2141810021818186
S31508001560704700BFFEE700000FB41CB50246002016
S3150800157007AC00290BD0491ECDE90021054B6A4668
S315080015802146069800F000F9009A002111701CBC4B
S315080015905DF814FBB71E00080FB4084B10B504A974
S315080015A002AA039800F0F0F8044602A9002000F009
S315080015B08DFC204610BC5DF814FB0000CD1E00080B
S315080015C037B514460846064B6A46214600F0DCF84D
S315080015D004466946002000F079FC20463EBD00001E
S315080015E0CD1E000802E008C8121F08C1002AFAD159
S315080015F070477047002001E001C1121F002AFBD185
S31508001600704700002DE9FF5F82B00021DDE9043054
S31508001610020DDDF840B0034318D044F61050A2F28C
S31508001620FF3242431514119801281FD0A5EB0B0071
S31508001630401C5FEA000A4FF000064E4FDFF838916B
S31508001640B046504615D5CAF1000413E01198012496
S315080016504AA3012801D16FEA0B010298119AC0E941
S315080016600031C0E9024206B0BDE8F09FCBF10000A8
S31508001670DFE704460021404A491842EB0450CDE909
S31508001680001012E0E00707D032463B46404649467E
S31508001690FEF7F4FE8046894632463B461046194612
S315080016A0FEF7ECFE06460F466410002CEAD1DDE98B
S315080016B00401DDE90023BAF1000F06DAFEF7DEFEC3
S315080016C042464B46FEF7DAFE05E0FEF749FF42467C
S315080016D04B46FEF745FF04460E460022284BFFF709
S315080016E049F903D84FF0FF30014607E00022254BA1
S315080016F020463146FEF71BFEFFF724F9102409E0C1
S31508001700002C0ADB0A220023FFF726F8039B303257
S315080017101A55641E50EA0102F2D1641C039AC4F1F8
S3150800172011031444119A012A03D0012208430DD14A
S315080017300AE0084304D000204FF0110B119072E71D
S31508001740A3EB0B056D1E0DE05B4504DD4FF00002B3
S3150800175005F1010504E003DA4FF00002A5F10105E1
S31508001760002AECD002981199C0E90231C0E9004577
S3150800177079E70000000014400000F03F3000000048
S315080017800000F0430000E03F2DE9FF4F95B09B466F
S315080017908946064600250FE2252877D100242746E4
S315080017A0F84A0121059400E0044316F8013F203B5E
S315080017B001FA03F01042F7D130782A2811D06FF0D9
S315080017C02F033078A0F13002092A16D8059A44F07A
S315080017D0020402EB820203EB42021044761C0590D7
S315080017E0EFE759F8042B0592002A03DA504244F42D
S315080017F00054059044F00204761C30782E2816D141
S3150800180016F8010F44F004042A280DD06FF02F02B1
S315080018103078A0F13003092B09D807EB870302EBD0
S315080018204303C718761CF3E759F8047B761C30780F
S315080018306C280FD006DC4C2817D068280DD06A28EB
S3150800184014D104E0742810D07A280FD10DE044F49E
S3150800185000140AE044F4801401E044F44014727859
S31508001860824202D104F58014761C761C30786628EC
S315080018700BD013DC582877D009DC002875D045280A
S31508001880F6D04628F4D047281AD19DE118E06328F7
S3150800189035D0642879D0652812D195E1702873D09F
S315080018A008DC6728F1D069286FD06E280DD06F281C
S315080018B006D1B5E073282CD0752875D0782874D051
S315080018C05A46179990476D1C75E1C4F302500228D1
S315080018D009D003280DD0D9F8001004280DD00D60C2
S315080018E009F1040967E1D9F80010EA17C1E90052BD
S315080018F0F6E7D9F800100D80F2E70D70F0E719F851
S31508001900041B8DF8001000208DF80100EA4601201E
S3150800191003E059F804AB4FF0FF3061074FF00001C0
S3150800192002D40DE008F101018846B9420FDA804574
S31508001930F8DB1AF808100029F4D108E008F10101CB
S3150800194088468142FADB1AF808100029F6D105986C
S315080019505B46A0EB080721463846179A00F094FA2A
S31508001960284400EB080507E04DE029E10DE01AF8E8
S31508001970010B5A4617999047B8F10108F7D25B460A
S3150800198021463846179A13E142E00A220092C4F328
S3150800199002524FF0000A022A08D059F804CB032A4B
S315080019A04FEAEC710AD00DE029E02AE009F10701B7
S315080019B021F00702F2E802C1914609E00FFA8CFC11
S315080019C04FEAEC71042A03D14FFA8CFC4FEAEC710A
S315080019D0002907DA0A460021DCF1000C61EB020156
S315080019E02D2202E0220504D52B228DF8042001229F
S315080019F003E0E20701D02022F7E7904659E00A21E2
S31508001A0002E010220DE010214FF0000A00910BE0D1
S31508001A1010224FF0000A44F004040827009203E05D
S31508001A2008224FF0000A0092C4F30252022A05D097
S31508001A3059F804CB0021032A08D009E009F1070167
S31508001A4021F00702F2E802C1914605E01FFA8CFC74
S31508001A50042A01D10CF0FF0C4FF00008220728D504
S31508001A60702806D0009B83F0100353EA0A0305D0BA
S31508001A700EE040228DF80420012208E05CEA01020B
S31508001A8006D030228DF804208DF8050002229046F3
S31508001A90009B83F0080353EA0A030AD15CEA0102B1
S31508001AA001D1620705D530228DF804204FF00108D0
S31508001AB07F1E582804D034A003900EA802900DE08B
S31508001AC036A0F9E753466046009AFEF745FE844677
S31508001AD00398825C0298401E029002705CEA01003C
S31508001AE0F0D1029806A9081A00F1200A600702D563
S31508001AF024F4803400E00127574502DDA7EB0A00ED
S31508001B0000E0002000EB0A01009005984144401AC5
S31508001B100590E00306D45B462146179A059800F01F
S31508001B20B3F90544002706E001A85A46C05D17998F
S31508001B3090476D1C7F1C4745F6DBE0030CD55B46DA
S31508001B402146179A059800F09FF9054404E03020CD
S31508001B505A46179990476D1C0099481E009000290F
S31508001B60F5DC08E0029802995A460078491C029169
S31508001B70179990476D1CBAF10001AAF1010AF1DC28
S31508001B8065E1000009280100303132333435363733
S31508001B9038396162636465660000000030313233AB
S31508001BA0343536373839414243444546000000004B
S31508001BB000F058F90544761C307800287FF4ECAD1F
S31508001BC019B02846BDE8F08F620700D4062709F148
S31508001BD0070222F0070CFCE80223E14603F000485E
S31508001BE05FEA080C02D00FF2702C0DE05FEA045C85
S31508001BF002D50FF2682C07E05FEAC47C02D00FF228
S31508001C00602C01E0AFF2700C4FF0FF3823F0004370
S31508001C10CDF850C065280CD006DC452809D04628E2
S31508001C201DD047283DD13DE0662818D067287ED1CB
S31508001C3038E00021112F01DB112000E0781CCDE9E6
S31508001C40000106A90EA8FFF7DDFCDDE90F010E9AD3
S31508001C5003910021009207F1010A04914DE04FF02B
S31508001C6000400097CDE9011006A90EA8FFF7CAFCA7
S31508001C70DDE90F0203920E9B11990022DDF80CA0F4
S31508001C800093049211B9791C00EB010AB7EB0A001C
S31508001C9004D4C0F1FF3007F1010A0490AAEB07004B
S31508001CA0019044E0012F00DA01270021112F01DD00
S31508001CB0112000E03846CDE9000106A90EA8FFF775
S31508001CC0A1FCDDE90F010E9A03910021049100920F
S31508001CD0BA4621070CD40399514500DA8A46BAF167
S31508001CE0010F05DD009AAAF10101515C302908D0DF
S31508001CF0B84202DA10F1040F06DA0121CDE9011023
S31508001D0015E0AAF10101E9E7002805DC0499014478
S31508001D100491AAEB000102E0411C514500DD8A4608
S31508001D200499401A401C01904FF000400290200789
S31508001D3004D40198504501DBCDF8048000208DF8C5
S31508001D404F0002980DF14F07B0F1004F25D02B2018
S31508001D500E9002984FF0020800280CDA40420290D2
S31508001D602D200E9007E00A210298FEF7DFFC30319D
S31508001D70029007F8011DB8F10001A8F10108F2DC8C
S31508001D8002980028EFD1791E0E980870307800F076
S31508001D90200040F0450007F8020D12A8C01B00F10C
S31508001DA007081498007800B1012000EB0A01019891
S31508001DB001EBE07105984144401A401E0590E00386
S31508001DC006D45B462146179A059800F05DF8054447
S31508001DD01498007818B15A46179990476D1CE00375
S31508001DE024D55B462146179A059800F04DF8054418
S31508001DF01CE00498002807DBDDE90301884203DDBF
S31508001E000098405C179901E0179930205A46904788
S31508001E10049805F10105401C04900198401E0190A4
S31508001E2004D12E205A46179990476D1CBAF1000125
S31508001E30AAF1010ADDDC05E017F8010B5A461799E5
S31508001E4090476D1CB8F10001A8F10108F4DC5B4667
S31508001E502146179A0598ABE62D0000002B000000D6
S31508001E60200000002DE9F041044600251E461746CD
S31508001E70880404D405E039462020B0476D1C641E4A
S31508001E80F9D52846BDE8F0812DE9F041044600253C
S31508001E901E469046C80301D5302700E0202788044F
S31508001EA004D505E041463846B0476D1C641EF9D591
S31508001EB02846BDE8F0814A68002A06D00A68531CFD
S31508001EC00B6010704868401E486070470A68531CCB
S31508001ED00B6010707047000010B5064906A001F0A7
S31508001EE00BFF074907A001F007FF084801F02FFC80
S31508001EF010BD0000BD2000084248313735300000CB
S31508001F00E93E000853485433300000005C000020C6
S31508001F1070B50E4801F0EAFE04460C49091F081F71
S31508001F2001F0DCFE054644B93DB900F069FD0749F4
S31508001F300839C8600120087405E0002003490839FB
S31508001F400874012070BD0020FCE700005000002046
S31508001F5010B504460548007C08B9022010BD1422B5
S31508001F6002492046FEF7DEF80020F7E74800002081
S31508001F70014606290CD2DFE801F003040805060924
S31508001F8000BF00BF00BFB420704700BF1820FBE7A2
S31508001F900020F9E708B500BF01210820FEF70EFF6B
S31508001FA000BF2020ADF8000010208DF803000220A5
S31508001FB08DF8020069460548FEF724FD00BF002299
S31508001FC020210248FEF7B2FD00BF08BD000C014003
S31508001FD010B586B0044600BF01210820FEF7EEFEC4
S31508001FE000BF00BF01210820FEF7E8FE00BF00BFC2
S31508001FF001214805FEF7D2FE00BF4020ADF81400C7
S315080020001C208DF8170003208DF8160005A9154821
S31508002010FEF7F8FC8020ADF8140005A91148FEF774
S31508002020F1FC01A8FEF763FE0020ADF808004BF6A8
S31508002030FF70ADF80A000020ADF80C004FF4806080
S31508002040ADF80E000001ADF81000019401A906488C
S315080020500068FEF7C5FD012103480068FEF77FFD0D
S3150800206006B010BD000C01400400002038B5044637
S3150800207002236A4646210848006800F073FD08B145
S31508002080012038BD9DF801009DF8001040EA0120A6
S3150800209020800020F5E700000400002001B5012398
S315080020A06A4646210448006800F0FAFD08B1012096
S315080020B008BD0020FCE700000400002010B5FFF76B
S315080020C069FF0A48FFF784FF0A2000F063FA012037
S315080020D000F081F804460CB1204610BD00200449E2
S315080020E00870102000F077F8F7E70000A0860100D6
S315080020F00100002070B50546032000F073F8044679
S315080021000CB1204670BD284600F034F8FAE70146BF
S31508002110062910D2DFE801F0030507090B0D102088
S3150800212070471120FCE71320FAE72020F8E7212062
S31508002130F6E72320F4E70020F2E700002DE9F04156
S3150800214005460C462846FEF783FA07460849FEF771
S31508002150B0F80646012C01D0042C05D14FF0804179
S315080021603046FEF7A6F806463046BDE8F081000080
S315080021709A99993F38B5054612480078032807D03A
S3150800218010480078042803D00E480078052809D19D
S315080021900C480078FFF7ECFE0446002C02DD2046CA
S315080021A000F0F8F9684600F00FF808B1012038BDCC
S315080021B004480178BDF80000FFF7C0FF286000203A
S315080021C0F5E700000100002010B504462046FFF799
S315080021D04DFFC0B210BD10B504462046FFF75EFF9E
S315080021E0C0B210BD70B504462046FFF790FF0546FD
S315080021F00DB9032070BD2846FFF7EDFF08B1012091
S31508002200F8E7024804700020F4E700000100002007
S31508002210F0B5837B03B9F0BD002901DB802900DB1B
S31508002220F9E7002A01DB402A00DBF4E7438BBBB160
S31508002230838BABB1B0F916308B4205DCB0F916309A
S31508002240448B23448B4200DCE5E7B0F9183093420F
S3150800225005DCB0F91830848B2344934200DCDAE7B6
S31508002260837B012B1CD1D51702EB5575ED1001EBBD
S31508002270C5154668755D1446D61702EB5676F610F0
S31508002280A2EBC6070126BE403543EEB21346D51764
S3150800229002EB5575ED1001EBC51547687E551AE03A
S315080022A0D51702EB5575ED1001EBC5154668755D3A
S315080022B01446D61702EB5676F610A2EBC607012689
S315080022C0BE40B5431346D61702EB5676F61001EB19
S315080022D0C6164768BD5500BF9DE7000070B50546A0
S315080022E00C4600F08DFB064613E000BF00220221D3
S315080022F00C48FEF71BFC00BF284600F05DF900BF3E
S31508002300012202210748FEF711FC00BF284600F00B
S3150800231053F900F075FB801BA042E6D300F0A4F841
S3150800232070BD0000000C01402DE9F04107460D463E
S315080023301646012E06D0022E0BD0032E10D0042EE0
S315080023401DD115E050201E49088032201D490880FD
S3150800235017E096201A49088064201A49088010E078
S315080023604FF4967016490880C8201649088008E078
S31508002370C8201349088064201249088001E0BDE896
S31508002380F08100BF00F03CFB04460EE00C480188D3
S315080023903846FFF7A3FF00F033FB001BA84200D323
S315080023A008E00848008800F0F5F800F029FB001B53
S315080023B0A842EBD300BF00F057F800BFDFE70000E4
S315080023C0080000200A0000202DE9F04106460D46C7
S315080023D090461F4636B1012E06D0022E07D0032E90
S315080023E009D106E0FA2408E04FF4FA7405E0C82497
S315080023F003E0A62401E0BDE8F08100BF25B939460F
S315080024002046FFF76BFF06E0012D04D14246394608
S315080024102046FFF789FF00BFEDE7000008B500BFBB
S3150800242001210820FEF7CAFC00BF0220ADF8000013
S3150800243010208DF8030002208DF802006946034833
S31508002440FEF7E0FA00F010F808BD0000000C0140A5
S3150800245010B5FFF7E3FF00F017F8322000F09AF8FE
S3150800246000F002F8002010BD10B500BF01220221BD
S315080024700448FEF75BFB00BF0A2000F09DF8002029
S3150800248010BD0000000C014010B500BF002202215B
S315080024900448FEF74BFB00BF0A2000F08DF8002029
S315080024A010BD0000000C01402DE9F041C1F30A52AD
S315080024B0A2F2FF362F4A304B0D460446142E2FDA69
S315080024C0002E12DAFDF733FF00221346FEF752FA02
S315080024D04CD2002DBCBF4FF00045002446DB55EA20
S315080024E0040018BF254D19D140E0DFF894C02CFA36
S315080024F006F705EA070C5CEA040C08BFBDE8F0819C
S31508002500FDF715FF00221346FEF734FA2ED2002DEA
S3150800251003DD4FF48010F0400544BD43002425E058
S31508002520332EC8BFBDE8F081A6F1140C4FF0FF3773
S3150800253027FA0CF73C4208BFBDE8F081FDF79BFF80
S3150800254000221346FEF716FA10D2002D0DDD142EC2
S3150800255008BF6D1C09D0C6F13400012101FA00F04C
S315080025602044A04238BF6D1C0446BC432946204679
S31508002570BDE8F0819C7500883CE4377E0000F03F9A
S31508002580FFFF0F00002100E0491CC2008A42FBD869
S315080025907047000070B5044601F07CFE05480068E7
S315080025A00519002600BF034800680021401BB141F9
S315080025B0F9D370BD1800002070B5044601F06AFE14
S315080025C000F08CFA021941F10000551C40F1000692
S315080025D000BF00F083FA401BB141FAD370BD00007A
S315080025E010B5024801F0B3F810BD00005C000020E9
S315080025F038B50446FFF7F4FF002328221946024897
S31508002600009401F0B5FA38BD5C00002010B5064804
S3150800261001F09DF801221146034801F0A6FA0021AF
S31508002620014801F09DFA10BD5C0000202DE9FF412C
S3150800263004460D46FFF7EAFF25A000230A2219469D
S315080026400090274801F094FA26A000231422194680
S315080026500090234801F08CFA2068FEF738F8CDE997
S31508002660020125A000231E22194600901C4801F0ED
S315080026707FFA6068FEF72BF8CDE9020122A0002355
S315080026802D2219460090164801F072FAA068FEF746
S315080026901EF8CDE9020120A000233C22194600902D
S315080026A00F4801F065FA45B91FA0002355221946BF
S315080026B000900B4801F05CFA07E01EA000235522A3
S315080026C019460090064801F053FABDE8FF8100005C
S315080026D020202041677269204D6F6E69746F720001
S315080026E05C0000203D3D3D3D3D3D3D3D3D3D3D3D84
S315080026F03D3D3D3D3D3D000054656D703A20252E1B
S31508002700316620430000000048756D693A20252E81
S3150800271031662025255248004C696768743A202599
S315080027202E3166206C7578004D6F64653A204C6FC3
S31508002730526100004D6F64653A204E422D496F5430
S31508002740000000002DE9F04F87B005460F46904679
S315080027509946A87B20B9287B10B907B0BDE8F08F49
S3150800276095F80DA0012068734846FDF776FF00220C
S31508002770214BCDE90001FDF7F3FECDE90201FFF794
S3150800278093FECDE90401FDF789FF1FFA80FB0024BB
S315080027902CE0002625E0E21704EB5272D21006FB65
S315080027A00B23119AD25CE31704EB5373DB10A4EBEB
S315080027B0C30C802343FA0CF31A4042B108EB060017
S315080027C002B2381901B2284601F038FA07E008EBD8
S315080027D0060002B2381901B22846FFF719FD701C27
S315080027E006B210988642D6DB601C04B24C45D0DB94
S315080027F085F80DA000BFB0E7000020402DE9F04F96
S3150800280087B004460F46A06810B907B0BDE8F08F38
S315080028103946204601F00AFE06460025002E07DB4B
S31508002820A068006A06EB460101EBC60100EB8105CC
S31508002830608C00287CD0A08C002879D0B4F916804A
S31508002840B4F91890608B0FFA80FAA08B0FFA80FB08
S31508002850608B70B3A08B60B3E08BADF81400208C4E
S31508002860ADF81600608CADF81800A08CADF81A000B
S31508002870E08AADF80C00208BADF80E00608BADF841
S315080028801000A08BADF8120004980090039BDDE9B8
S31508002890051201A800F0BCF8BDF80400E082BDF8F6
S315080028A006002083BDF808006083BDF80A00A083EF
S315080028B008E0FFE7E08BE082208C2083608C608351
S315080028C0A08CA083B4F91000B4F91E10884207DB67
S315080028D0B4F91E00618C0844B4F91010884201DC72
S315080028E0E08B2082A5B1B4F91000A9890844B4F98F
S315080028F01E10628C114488420ADBE08B2082608AB3
S31508002900A168898A0844A168098B084400B26082D4
S315080029100D2F02D1E08B20820AE00A2F08D1608AA7
S31508002920A168898A0844A168098B084400B26082B4
S315080029306DB3A068808A0090608AD4F808C0BCF895
S3150800294018C0A0EB0C00D4F808C0BCF814C0A0EB63
S315080029500C0002B2AB89B4F91010204600F02BF82F
S31508002960E98BA86ACDE90010608AB5F822C0A0EB09
S315080029700C00B5F81EC0A0EB0C0002B2208AB5F810
S3150800298020C0604401B2AB8B2046FFF7DBFE608CAB
S3150800299048B1A08C38B1A4F81680A4F81890A4F809
S315080029A01AA0A4F81CB025B1208AA989084400B247
S315080029B0208200BF29E72DE9F04780460D461646D6
S315080029C09946DDF820A098F80E0008B9BDE8F0870A
S315080029D02C460EE0374606E03A4621464046FFF7C3
S315080029E017FC781C07B206EB0A00B842F4DC601C38
S315080029F004B205EB0900A042ECDC00BFE6E70000E4
S31508002A0010B501F047FC0148006810BD1800002009
S31508002A100FB4FCB50446002500950195BDF9205074
S31508002A20BDF92860B54202DDBDF9205001E0BDF9C7
S31508002A3028502846BDF92050BDF824603544BDF914
S31508002A402860BDF82C703E44B54205DDBDF9285016
S31508002A50BDF82C60354404E0BDF92050BDF824606B
S31508002A60354429B2BDF92250BDF92A60B54202DDC6
S31508002A70BDF9225001E0BDF92A502A46BDF9225077
S31508002A80BDF826603544BDF92A60BDF82E703E446F
S31508002A90B54205DDBDF92A50BDF82E60354404E07F
S31508002AA0BDF92250BDF8266035442BB288420DDAAE
S31508002AB09A420BDAADF80000ADF802200D1AADB255
S31508002AC0ADF804509D1AADB2ADF80650009D2560CC
S31508002AD0019D6560FCBC5DF814FB00002DE9F04122
S31508002AE001F0D8FB4FF0E020006920F480304FF069
S31508002AF0E02108611948046800250846866905E04A
S31508002B004FF0E02086691548046800254FF0E0205C
S31508002B10006900F480300028F2D14FF47A72214619
S31508002B20A1FB027C05FB02C204FB00253C464FF0D4
S31508002B30E0214969881BFDF78BFD80460848016836
S31508002B404046FDF784FB0746FDF794FD041945F159
S31508002B50000520462946BDE8F0810000180000203F
S31508002B60200000202DE9F04180460F4615461C46F8
S31508002B7014B90020BDE8F08100BF4FF4003140468B
S31508002B80FEF711F80128F8D001214046FDF7F3FFBA
S31508002B9000BF41494046FEF706F80028F9D03F49EC
S31508002BA04046FDF7D6FF47F001014046FEF79DF87F
S31508002BB014E03949491C4046FDF7F5FF012800D1C4
S31508002BC00DE036494046FDF7EEFF012806D1012102
S31508002BD04046FDF7DCFF4FF0FF30CBE7E9E700BFE3
S31508002BE0012C1ED100214046FDF7A7FF72B614211D
S31508002BF04046FEF76BF818214046FEF767F80121B4
S31508002C004046FDF7C4FF62B600BF23493F31404640
S31508002C10FDF7C9FF0028F8D04046FEF762F828708D
S31508002C2038E001214046FDF788FF14214046FEF7AB
S31508002C304DF818214046FEF749F8002611E0A01E77
S31508002C40B04200D172B600BF13493F314046FDF786
S31508002C50AAFF0028F8D04046FEF743F8A855701C8E
S31508002C6086B2601EB042EADC00214046FDF765FFE9
S31508002C7001214046FDF78BFF62B600BF06493F318A
S31508002C804046FDF790FF0028F8D04046FEF729F8A1
S31508002C90611E685400206DE7010000100004001052
S31508002CA02DE9F04180460D4616461F4600BF4FF4F3
S31508002CB000314046FDF777FF0128F8D0012140464C
S31508002CC0FDF759FF00BF38494046FDF76CFF00285D
S31508002CD0F9D036494046FDF73CFF05F0FE0140466F
S31508002CE0FEF703F815E03049491C4046FDF75BFF3F
S31508002CF0012800D10EE02D494046FDF754FF012872
S31508002D0007D101214046FDF742FF4FF0FF30BDE8ED
S31508002D10F081E8E700BF14214046FDF7D7FF1821E8
S31508002D204046FDF7D3FF00241DE014E01F49404646
S31508002D30FDF739FF012806D101214046FDF727FF97
S31508002D406FF00100E3E718497F314046FDF72BFF96
S31508002D50012800D100E0E9E700BF315D4046FDF7F4
S31508002D60C4FF601C84B2BC42DFDB14E00F49404656
S31508002D70FDF719FF012806D101214046FDF707FF97
S31508002D806FF00100C3E70849C91C4046FDF70BFF71
S31508002D90012800D100E0E9E700BF01214046FDF720
S31508002DA0F6FE0020B3E70000010000100004001042
S31508002DB008B500BF01210820FEF700F800BF00BFD4
S31508002DC001210820FDF7FAFF00BF00BF01210820F6
S31508002DD0FDF7F4FF00BF4FF48050ADF8000048201F
S31508002DE08DF8030003208DF8020069460E48FDF7AA
S31508002DF009FE4FF40050ADF8000048208DF8030096
S31508002E0003208DF8020069460748FDF7FBFD4FF4DD
S31508002E108040ADF8000028208DF803006946024876
S31508002E20FDF7F0FD08BD0000000C014010B5FFF7E6
S31508002E30BFFF10BD70B50446002514B10120264910
S31508002E4008702548007878B34FF480512348FDF779
S31508002E5064FE60B14FF400512048FDF75EFE30B1C4
S31508002E604FF480411D48FDF758FE01281DD10A2060
S31508002E70FFF790FB0020184908704FF48051174857
S31508002E80FDF74BFE00B901254FF400511348FDF735
S31508002E9044FE00B902254FF480411048FDF73DFE77
S31508002EA0012817D1032515E0FFE74FF480510B4899
S31508002EB0FDF733FE01280DD141030848FDF72DFE25
S31508002EC0012807D181030548FDF727FE10B901201F
S31508002ED001490870284670BD0C000020000C01400E
S31508002EE010E000224FF400510748FDF71FFEC820E6
S31508002EF0FFF750FB012251030348FDF717FEC820D0
S31508002F00FFF748FBEDE700000010014008B5012176
S31508002F101020FDF753FF4FF40050ADF800000220D3
S31508002F208DF8020014208DF8030069460448FDF761
S31508002F3069FD012251030248FDF7F8FD08BD0000AE
S31508002F40001001407FB504460020009001900290D1
S31508002F500390E3B2220A08A16846FEF71DFB4FF468
S31508002F60FA720AA1684600F09BF8054615B10120D9
S31508002F7004B070BD0020FBE741542B414444523D48
S31508002F80253032582C253032580000004F4B0000AF
S31508002F9070B500250BE04FF4FA7207A107A000F000
S31508002FA07FF804460CB9002070BD681CC5B20A2D0E
S31508002FB0F1DB0120F8E700004F4B00004154000008
S31508002FC010B500BF0122D1030248FDF7AFFD00BFCF
S31508002FD010BD0000000C014010B500BF00224FF4E0
S31508002FE000410248FDF7A2FD00BF10BD000C0140DC
S31508002FF010B54FF480710448FDF78FFD08B1042021
S3150800300010BD0020FCE700000008014008B500BF1D
S3150800301001210420FDF7D2FE00BF00BF01210420D4
S31508003020FDF7CCFE00BF4FF48070ADF800004820D5
S315080030308DF8030003208DF8020069460C48FDF759
S31508003040E1FC4FF40040ADF8000010208DF80300B5
S3150800305003208DF8020069460648FDF7D3FC00BF39
S3150800306000224FF400410348FDF760FD00BF08BD8C
S3150800307000080140000C014070B50446FFF7C6FF82
S31508003080204600F0AFF9FFF79BFFFFF781FF0546E3
S31508003090FFF7A2FF0DB1012070BD0020FCE700007C
S315080030A02DE9F04105460E461446002700F032FA8F
S315080030B029460FA000F0FCF906B114B90020BDE8B6
S315080030C0F08110E000F010FA074647B1314638465D
S315080030D0FDF74CF808B10020F1E700F01BFA641E72
S315080030E00120FFF757FA002CECD10220E7E7000091
S315080030F025730D0A0000000038B505463E4800F065
S3150800310026FB012211463C4800F02FFD00213A48D3
S3150800311000F026FD39A000231922194600903648EA
S3150800312000F026FD3AA000232822194600903248CE
S3150800313000F01EFD31A04FF4FA73372200210090EB
S315080031402D4800F015FD2846FFF796FF04466CB19A
S31508003150294800F0FCFA33A04FF4FA7319221E210D
S315080031600090254800F004FDFFF7BAFEFFF728FF98
S315080031700220FFF7E7FE04461421052000F0DCF9DB
S315080031802044C4B2032000F0BBF82044C4B2002097
S3150800319000F034FA2044C4B2002000F089F8204434
S315080031A0C4B2002000F000FA2044C4B2002107206F
S315080031B000F0D6F82044C4B2FFF70EFF6CB10E48F3
S315080031C000F0C5FA17A04FF4FA7319221E210090D1
S315080031D0094800F0CDFC204638BD074800F0B7FA8C
S315080031E013A04FF4FA7328221E210090024800F01B
S315080031F0BFFC2046F0E700005C0000202A2A2A2AA5
S315080032002A2A2A2A2A2A2A2A2A2A2A2A2A2A2A003A
S315080032103C3C3C3C53544D33322D4C6F52613E3E40
S315080032203E3E00004C6F526120657272210000001C
S315080032304C6F5261206F6B21000000000EB500F044
S315080032401FF86846FEF714F841F61F40ADF800006F
S315080032500020ADF802006320ADF804000020ADF8A8
S315080032600600694605480068FDF7B0FF01221146C9
S3150800327002480068FDF79EFF0EBD000038000020DA
S3150800328008B500BF01210846FDF788FD00BF1C20D0
S315080032908DF8000001208DF8010000208DF802004D
S315080032A001208DF803006846FDF734FD08BD0000CF
S315080032B03EB50446002000900190029014B1012CFE
S315080032C002D100E000BF01E003203EBD00BF224658
S315080032D007A16846FEF760F94FF4FA7207A1684637
S315080032E0FFF7DEFE05460DB10120EEE70020ECE70C
S315080032F041542B544D4F44453D2564004F4B000027
S315080033003EB50446002000900190029034B1012C8D
S3150800331005D0022C04D0032C04D102E000BF00BF64
S3150800332000BF01E003203EBD00BF224607A1684654
S31508003330FEF732F94FF4FA7208A16846FFF7B0FEB5
S3150800334005460DB10120EEE70020ECE741542B5469
S31508003350504F5745523D2564000000004F4B000072
S31508003360FEB504460D460020009001900290082CF8
S315080033700DD2DFE804F00405060708090A0B00BFAA
S3150800338000BF00BF00BF00BF00BF00BF01E00320B1
S31508003390FEBD00BF25B1012D03D0022D03D101E0EA
S315080033A000BF00BF01E00320F2E700BF2B4622461C
S315080033B007A16846FEF7F0F84FF4FA7208A16846C6
S315080033C0FFF76EFE06460EB10120E1E70020DFE7B3
S315080033D041542B554152543D25642C256400000068
S315080033E04F4B000010B586B0044600BF0121880384
S315080033F0FDF7E4FC00BF00BF01210420FDF7DEFC59
S3150800340000BF00BF01210420FDF7D8FC00BF4FF420
S315080034100070ADF8140018208DF8170003208DF8F9
S31508003420160005A92048FDF7EDFA4FF48060ADF8BF
S31508003430140004208DF8170005A91B48FDF7E2FAC9
S3150800344001A8FEF782F801940020ADF80800ADF84F
S315080034500A00ADF80C000C20ADF80E000020ADF8FF
S31508003460100001A911480068FDF7FAFF012240F291
S3150800347025510E480068FDF7CEFF25208DF800007F
S3150800348000208DF801008DF8020001208DF8030058
S315080034906846FDF73FFC012104480068FDF778FF00
S315080034A0FFF7CCFE06B010BD000801403C00002026
S315080034B00FB438B505A800900948009A0499FEF794
S315080034C07FF8002000900648FCF762FE84B2224688
S315080034D003490448006800F0C4FF38BC5DF814FBD3
S315080034E0060100203C0000200948B0F880000121B0
S315080034F0B1EBD03F09D100200549B1F88010C1F3DE
S315080035000E01034A5054104670470020FCE700009D
S31508003510840000200748B0F880006FF30E000549C4
S31508003520A1F880000846B0F8800020F40040A1F811
S3150800353080007047840000207FB504460D460020B1
S315080035400090019002900390062C09D2DFE804F05F
S3150800355008030405060700BF00BF00BF00BF02E05E
S31508003560032004B070BD00BF532D01DD0320F8E72A
S3150800357023462A4607A16846FEF70EF84FF4FA7264
S3150800358008A16846FFF78CFD06460EB10120E8E75C
S315080035900020E6E741542B574C524154453D2564DB
S315080035A02C2564004F4B00003EB5044600200090D1
S315080035B00190029014B1012C02D100E000BF01E095
S315080035C003203EBD00BF224607A16846FDF7E4FF7B
S315080035D04FF4FA7208A16846FFF762FD05460DB179
S315080035E00120EEE70020ECE741542B574C54494D97
S315080035F0453D2564000000004F4B00003EB50446DB
S31508003600002000900190029034B1012C05D0022CC4
S3150800361004D0032C04D102E000BF00BF00BF01E0C4
S3150800362003203EBD00BF224607A16846FDF7B4FF4A
S315080036304FF4FA7208A16846FFF732FD05460DB148
S315080036400120EEE70020ECE741542B43574D4F4449
S31508003650453D2564000000004F4B000086B04FF43E
S31508003660A060FDF78FFB092000F0CEFD00F012FEEA
S3150800367000F0F4F9FFF74AFCFEF7EAFEFFF7D6FB7F
S3150800368000F072FEFEF728FC4FF47A73032201213C
S315080036900846FEF799FE1BE00020FFF7CBFB054620
S315080036A0FEF736FC50B901A8FEF752FC214601A8E0
S315080036B0FEF7BCFF01A800F08BFE02E005A0FEF7AE
S315080036C097FF00F061FE41F28830FEF763FF00BF06
S315080036D0E2E700006765742065727200F0B50B308A
S315080036E0154D20F007010024144A0FE003688B42A9
S315080036F00BD38B4205D95E1A43184768C3E900679E
S3150800370000E04368136002C004E0021D1068002848
S31508003710ECD12046002802D1286808B10020F0BD67
S31508003720064A07481060074A121A22F00702C0E93B
S31508003730002401202860D7E744000020400000202C
S315080037408C0100208811002001460020704710B522
S3150800375004464FF480616068FCF7FDFC10BD2DE956
S31508003760F05F82460E46002700BF3846791C8FB2A6
S31508003770355C05B988E005F0800028B9AB4659469E
S315080037805046FFF73BF8F0E705F0E000C02814D1F3
S3150800379005F01F053846791C8FB2345C1CB104F05D
S315080037A0C000802800D06FE004F03F0444EA851B7F
S315080037B059465046FFF722F8D7E705F0F000E0280B
S315080037C026D105F00F053846791C8FB2345C1CB13A
S315080037D004F0C000802800D056E004F03F043846C4
S315080037E0791C8FB216F80080B8F1000F03D008F0E4
S315080037F0C000802800D047E008F03F08280340EAC8
S31508003800841040EA080B59465046FEF7F7FFACE726
S3150800381005F0F800F028A8D105F007053846791C08
S315080038208FB2345C1CB104F0C000802800D02BE0B5
S3150800383004F03F043846791C8FB216F80080B8F1B8
S31508003840000F03D008F0C000802800D01CE008F064
S315080038503F083846791C8FB216F80090B9F1000F68
S3150800386003D009F0C000802800D00DE009F03F0918
S31508003870A80440EA043040EA841040EA090B594695
S315080038805046FEF7BBFF70E700BFBDE8F09F00009B
S3150800389038B504460D462868206040F20140FFF717
S315080038A01DFF6060606810B96FF0010038BD606880
S315080038B0401C60604FF480616068FCF74CFC002394
S315080038C01A46AE21204600F012F910B14FF0FF302B
S315080038D0ECE78020009001236A46D521204600F0B7
S315080038E006F910B14FF0FF30E0E73F2000900123C2
S315080038F06A46A821204600F0FAF810B14FF0FF30CA
S31508003900D4E70020009001236A46D321204600F020
S31508003910EEF810B14FF0FF30C8E700231A464021F1
S31508003920204600F0E4F810B14FF0FF30BEE714204F
S31508003930009001236A468D21204600F0D8F810B180
S315080039404FF0FF30B2E70020009001236A4620219D
S31508003950204600F0CCF810B14FF0FF30A6E7002360
S315080039601A46A121204600F0C2F810B14FF0FF30E8
S315080039709CE700231A46C821204600F0B8F810B183
S315080039804FF0FF3092E71220009001236A46DA21B1
S31508003990204600F0ACF810B14FF0FF3086E7CF2094
S315080039A0009001236A468121204600F0A0F810B154
S315080039B04FF0FF307AE7F120009001236A46D921BB
S315080039C0204600F094F810B14FF0FF306EE7202043
S315080039D0009001236A46DB21204600F088F810B1E2
S315080039E04FF0FF3062E700231A462E21204600F0EA
S315080039F07EF810B14FF0FF3058E700231A46A4218D
S31508003A00204600F074F810B14FF0FF304EE700235F
S31508003A101A46A621204600F06AF810B14FF0FF308A
S31508003A2044E700231A46AF21204600F060F810B19B
S31508003A304FF0FF303AE70120607320730020A0732F
S31508003A4020826082A082E08320846084A084024869
S31508003A50A06000202AE70000B458000808B500F066
S31508003A6001FB0348009069460248FFF711FF08BDAD
S31508003A70F54100085C00002038B5044600208DF8A2
S31508003A80000001236A462021204600F030F810B1D4
S31508003A904FF0FF3038BD00208DF800007F208DF8EC
S31508003AA0010002236A462121204600F020F810B1C1
S31508003AB04FF0FF30EEE700208DF8000007208DF864
S31508003AC0010002236A462221204600F010F810B1B0
S31508003AD04FF0FF30DEE74FF480622046616800F061
S31508003AE027F810B14FF0FF30D4E70020D2E72DE9D0
S31508003AF0FC4105460E461746984600208DF80000FC
S31508003B008DF80160002405E0395DA01C0DF8001051
S31508003B10601CC4B24445F7DBA21C694678202B68B2
S31508003B20984718B14FF0FF30BDE8FC810020FBE74D
S31508003B302DE9F04105460C461646002714F8018C77
S31508003B40402004F8010C701C82B2611E78202B6894
S31508003B50984700B17F1E04F8018C3846BDE8F0810D
S31508003B6081737047018242827047017342737047BE
S31508003B70F0B591B005460E4617461C463A463146FC
S31508003B802846FFF7EFFF17A8009001A8009A169994
S31508003B90FDF716FD0020009001A92846FFF7DFFD76
S31508003BA02846FFF769FF2046FEF7F4FC11B0F0BD82
S31508003BB02DE9F0478AB0044689469246207C18B912
S31508003BC000200AB0BDE8F087A068FCF780FD05462E
S31508003BD00E466068FCF77BFD074688462068FCF7BA
S31508003BE076FDCDE90801E068CDE90278CDE904560D
S31508003BF00690089804A2CDE9000151464846FDF70B
S31508003C00B3FC80B2DDE700007B2274656D70223A52
S31508003C10252E31662C2268756D69223A252E316665
S31508003C202C226C69676874223A252E30662C227419
S31508003C30696D65223A256C757D0000002DE9FC5FEB
S31508003C4004468A469346207B08B9BDE8FC9F607BFC
S31508003C5000B9FAE7607B00EBD0714910A0EB41018F
S31508003C6039B1607B00EBD0714D102E462F46A84621
S31508003C700CE0607B00EBD0714D102E462F46A8460F
S31508003C80A8F101001FFA80F8781E87B2A07B019080
S31508003C90207BA073AAEB08000FFA80F916E0ABEBBD
S31508003CA0070000B2009008E049462046009AFEF751
S31508003CB0AFFA0098401C00B200900BEB0601009882
S31508003CC08142F1DA09F101000FFA80F90AEB0500E1
S31508003CD04845E4DA0198A07300BFB6E770B5044614
S31508003CE00D462946204600F00BF970BD10B504466E
S31508003CF02046FEF7FFF910BD7CB504460D4621485F
S31508003D00FFF725FD20A000231922194600901D481B
S31508003D10FFF72EFF21A0002328221946CDE900042B
S31508003D201848FFF725FF18A04FF4FA733722002129
S31508003D3000901448FFF71CFF1248FFF708FDA84734
S31508003D40064666B90F48FFF702FD18A00023282289
S31508003D501E21CDE900040B48FFF70AFF0DE00948CC
S31508003D60FFF7F5FC13A0002328221E21CDE9000445
S31508003D700448FFF7FDFE00BFFEE74FF47A70FEF732
S31508003D8009FC7CBD5C0000202A2A2A2A2A2A2A2A1B
S31508003D902A2A2A2A2A2A2A2A2A2A2A003C3C3C3C57
S31508003DA02020257320203E3E3E3E00002573204FEE
S31508003DB04B210000257320457272210030B502465A
S31508003DC00B46FF20002113E0555C684008240BE0F1
S31508003DD000F0800525B1312585EA4005E8B201E005
S31508003DE04506280E651EECB2002CF1DC4D1CE9B226
S31508003DF09942E9DB30BD000010B586B0044600BF25
S31508003E0001210820FCF7DAFF00BF00BF01210820C6
S31508003E10FCF7D4FF00BF00BF01218805FCF7BEFFF1
S31508003E2000BF4FF48060ADF814001C208DF8170011
S31508003E3003208DF8160005A91548FCF7E3FD4FF495
S31508003E400060ADF8140005A91148FCF7DBFD01A8D0
S31508003E50FCF74DFF0020ADF808004BF6FF70ADF8F3
S31508003E600A000020ADF80C004FF48060ADF80E0093
S31508003E700001ADF81000019401A906480068FCF796
S31508003E80AFFE012103480068FCF769FE06B010BDC5
S31508003E90000C01401400002070B504460D462B4660
S31508003EA02246882104480068FEF75CFE08B1012016
S31508003EB070BD0020FCE700001400002038B5044659
S31508003EC0200A8DF80000E0B28DF8010002236A4648
S31508003ED0882104480068FEF7E3FE08B1012038BDD2
S31508003EE00020FCE71400002010B50448FFF784FF03
S31508003EF00A20FEF74FFB002010BD0000A086010037
S31508003F002DE9FC4704460D46694601A800F02EF83F
S31508003F10064616B13046BDE8FC87BDF90400FCF735
S31508003F208EFB81460D49FCF7C4F980460C49FCF71F
S31508003F308EF907460B49FCF732F92060BDF80000F8
S31508003F40FCF786FB80460549FCF7B3F907460649A0
S31508003F50FCF77DF928600020DDE7000000FF7F47B9
S31508003F6000002F43000034C20000C8427CB5054655
S31508003F700E461D480088FFF7A1FF08B101207CBD49
S31508003F801A480088FEF706FB06216846FFF784FFF5
S31508003F9008B10120F3E702216846FFF70FFF044640
S31508003FA09DF80200A04201D00320E8E702210DF1A6
S31508003FB00300FFF703FF04469DF80500A04201D061
S31508003FC00320DCE79DF801009DF8001040EA012077
S31508003FD000B228809DF804009DF8031040EA0120ED
S31508003FE030800020CBE700000E00002010000020E3
S31508003FF008B500BF01210820FCF7E0FE00BF00BF9E
S31508004000012211021648FCF791FD00BF00BF0122EC
S3150800401051021348FCF78AFD00BF00BF01210820A2
S31508004020FCF7CCFE00BF4FF48070ADF800001420FA
S315080040308DF8030002208DF8020069460848FCF74F
S31508004040E1FC4FF40070ADF8000014208DF8030071
S3150800405002208DF8020069460148FCF7D3FC08BD2A
S31508004060000C014010B5FFF7C3FF10BD70B505463B
S3150800407007242CE000BF00224FF480712648FCF785
S3150800408055FD00BF00BF0120A040284008B101200F
S3150800409000E0002028B1012251021F48FCF746FD26
S315080040A005E000224FF400711B48FCF73FFD00BFF6
S315080040B00220FEF767FA00BF012211021648FCF734
S315080040C035FD00BF0220FEF75DFA601E44B2002CE3
S315080040D0D0DA00BF00224FF480710F48FCF726FDA6
S315080040E000BF00BF012251020B48FCF71FFD00BFAD
S315080040F00220FEF747FA00BF012211020648FCF724
S3150800410015FD00BF0220FEF73DFA4FF40071024884
S31508004110FCF703FD70BD0000000C01402DE9F041DD
S3150800412005460E46174600BF012251021948FCF7FC
S31508004130FDFC00BF00BF012211021648FCF7F6FC81
S3150800414000BF00BF00224FF400711248FCF7EEFCD6
S3150800415000BF0120FEF716FA05F0FE00FFF786FFFE
S3150800416028B100F019F84FF0FF30BDE8F0810024BF
S315080041700AE0305DFFF77AFF20B100F00DF86FF026
S315080041800100F2E7601C84B2BC42F2DB00F004F8DE
S315080041900020EAE7000C014010B500BF00224FF4EA
S315080041A080711348FCF7C2FC00BF0120FEF7EAF94C
S315080041B000BF00224FF400710D48FCF7B7FC00BFA2
S315080041C00120FEF7DFF900BF012211020848FCF7BB
S315080041D0ADFC00BF0120FEF7D5F900BF0122510250
S315080041E00348FCF7A3FC00BF0120FEF7CBF910BD7E
S315080041F0000C014070B504460D461646324629465F
S315080042002046FFF78BFF70BD10B590B004463C22E0
S315080042101F4901A8FBF786FF022C01D3102C01D9F0
S3150800422000BFFEE74FF48030FCF774FE00BF312074
S31508004230FCF73EFE0028FAD01020FCF7C9FB022046
S31508004240FCF7D4FB0020FCF759FE4FF48060FCF71E
S3150800425087FE0020FCF790FEA01E01AA52F8201047
S315080042604FF48030FCF79AFE0120FCF791FE00BF60
S315080042703920FCF71DFE0028FAD00220FCF79CFE28
S3150800428000BFFCF733FE0828FBD110B010BD0000B4
S31508004290D85800082DE9F04186B02E480078002845
S315080042A055D101202B490870142101A8FBF753FFAB
S315080042B04FF0E020006920F001004FF0E02108618E
S315080042C000202549086001A8FCF788FD4FF0E0208A
S315080042D0006940F002004FF0E021086100211F4804
S315080042E0C1774FF47A710298B0FBF1F4B4F1807F8C
S315080042F009D3E4084FF0E020006920F004004FF0ED
S31508004300E021086107E04FF0E020006940F0040072
S315080043104FF0E0210861601E4FF0E0214861084631
S31508004320006940F001000861496921F07F41481C95
S31508004330FCF793F907463A460B4600200849FCF76E
S315080043400FF90546FCF7D6F90649086000BF06B01E
S31508004350BDE8F0811C0000201800002000ED00E0F8
S3150800436000408F402000002010B54FF4E130FEF7E2
S31508004370C3FE4FF4E130FFF7E7F90248FFF7E7F924
S3150800438010BD00005C0000201CB50D48007800B187
S315080043901CBDFFF7A9F8044684B10A48FFF7D7F908
S315080043A009A0002319221946CDE900040548FFF79C
S315080043B0DFFBFFF7AFF86420FEF7ECF800BFE7E78E
S315080043C0000000205C00002052583A2025730000A7
S315080043D030B5A1B00546287C10B9022021B030BD01
S315080043E0802201A92846FFF7E3FB04460CB9012001
S315080043F0F4E70B48007888B9FEF7FAFD042801D1DE
S315080044000320EBE701A907A0FFF752F8C82301220A
S3150800441011461046FDF7D8FF0020DFE70120DDE74B
S315080044200000002025730D0A0000000010B50246A2
S315080044300B464FF0FF34906808B9204610BD00219E
S3150800444008E09068C06950F82100984201D10CB282
S3150800445004E0491C9068408B8842F2D800BF204689
S31508004460ECE72DE9F04107460E4614460CB9BDE8BF
S31508004470F08100250CE000BF80213846FCF794FF48
S315080044800028F9D0715D3846FDF75BF8681C85B2DF
S31508004490A542F0DB00BF40213846FCF785FF00281F
S315080044A0F9D000BFE3E700000080808080800080AC
S315080044B0A0A0A05050F850F850502078A05008D02E
S315080044C0C0C81020409818E090A040A89068C04046
S315080044D080204080808040208040202020408050DE
S315080044E020F820502020F82020C04080F8C0C008BE
S315080044F010204080708898A8C8887040C040404006
S3150800450040E0708808102040F8F8102010088870DD
S3150800451010305090F81010F880F008088870304075
S3150800452080F0888870F808102040404070888870AD
S3150800453088887070888878081060C0C000C0C0C0BD
S31508004540C000C0408010204080402010F800F8804D
S3150800455040201020408070880810200020708808AD
S3150800456068A8A87070888888F88888F08888F0888D
S3150800457088F070888080808870E09088888890E0CD
S31508004580F88080F08080F8F88080E08080807088ED
S315080045908080988870888888F8888888C0404040D5
S315080045A04040C0301010101090608890A0C0A090B5
S315080045B088808080808080F888D8A88888888888BD
S315080045C088C8A898888870888888888870F08888B5
S315080045D0F080808070888888A89068F08888F0A025
S315080045E09088788080700808F0F820202020202005
S315080045F088888888888870888888888850208888E5
S3150800460088A8A8D888888850205088888888502004
S31508004610202020F80810204080F8E08080808080E4
S31508004620E08040201008E02020202020E02050884C
S31508004630F880402070087888788080B0C88888F02C
S315080046407080808870080868988888787088F880EC
S3150800465070304840E040404078887808308080B024
S31508004660C88888884000C0404040E01000301010DC
S315080046709060808090A0C0A090C04040404040E03C
S31508004680D0A8A88888B0C88888887088888870F074
S3150800469088F08080689878080808B0C8808080709C
S315080046A0807008704040E040404830888888889884
S315080046B06888888850208888A8A8508850205088FC
S315080046C08888780870F8102040F8204040804040DC
S315080046D020808080808080808040402040408040CC
S315080046E0A8100000200000002100000022000000A1
S315080046F0230000002400000025000000260000001A
S315080047002700000028000000290000002A000000F9
S315080047102B0000002C0000002D0000002E000000D9
S315080047202F000000300000003100000032000000B9
S315080047303300000034000000350000003600000099
S315080047403700000038000000390000003A00000079
S315080047503B0000003C0000003D0000003E00000059
S315080047603F00000040000000410000004200000039
S315080047704300000044000000450000004600000019
S315080047804700000048000000490000004A000000F9
S315080047904B0000004C0000004D0000004E000000D9
S315080047A04F000000500000005100000052000000B9
S315080047B05300000054000000550000005600000099
S315080047C05700000058000000590000005A00000079
S315080047D05B0000005C0000005D0000005E00000059
S315080047E05F00000060000000610000006200000039
S315080047F06300000064000000650000006600000019
S315080048006700000068000000690000006A000000F8
S315080048106B0000006C0000006D0000006E000000D8
S315080048206F000000700000007100000072000000B8
S315080048307300000074000000750000007600000098
S315080048407700000078000000790000007A00000078
S315080048507B0000007C0000007D0000007E00000058
S315080048601459000820000000E803000007000000B3
S31508004870000000000000000000000000000000002A
S315080048800000000000000000A8440008485900087D
S3150800489021000000E80300000700000000000000F7
S315080048A000000000000000000100070003000100EE
S315080048B007000000A94400087859000822000000F3
S315080048C0E8030000070000000000000000000000E8
S315080048D000000000030003000200040003000000BB
S315080048E0B0440008A859000823000000E8030000A7
S315080048F007000000000000000000000000000000A3
S31508004900050007000100010007000000B344000885
S31508004910D859000824000000E8030000070000003A
S31508004920000000000000000000000000050006006E
S315080049300100020006000000BA440008085A0008F0
S3150800494025000000E8030000070000000000000042
S31508004950000000000000000005000700010001003B
S3150800496007000000C0440008385A00082600000066
S31508004970E803000007000000000000000000000037
S315080049800000000005000700010001000700000004
S31508004990C7440008685A000827000000E80300001A
S315080049A007000000000000000000000000000000F2
S315080049B0020003000200050003000000CE440008C0
S315080049C0985A000828000000E803000007000000C5
S315080049D000000000000000000000000003000700BF
S315080049E00200010007000000D1440008D45A00085C
S315080049F029000000E803000007000000000000008E
S31508004A00000000000000000003000700020001008B
S31508004A1007000000D8440008045B00082A000000CC
S31508004A20E803000007000000000000000000000086
S31508004A300000000005000500010002000500000056
S31508004A40DF440008345B00082B000000E803000080
S31508004A500700000000000000000000000000000041
S31508004A60050005000100020005000000E4440008F6
S31508004A70645B00082C000000E80300000700000043
S31508004A800000000000000000000000000200030013
S31508004A900200010003000000E9440008945B0008D6
S31508004AA02D000000E80300000700000000000000D9
S31508004AB000000000000000000500010001000400DD
S31508004AC001000000EC440008C45B00082E0000004A
S31508004AD0E8030000070000000000000000000000D6
S31508004AE000000000020002000200010002000000AF
S31508004AF0ED440008F45B00082F000000E8030000FE
S31508004B000700000000000000000000000000000090
S31508004B10050005000100020005000000EF4400083A
S31508004B201C59000830000000E803000007000000D8
S31508004B30000000000000000000000000050007005B
S31508004B400100010007000000F4440008505900085D
S31508004B5031000000E8030000070000000000000024
S31508004B60000000000000000003000700020001002A
S31508004B7007000000FB4400088059000832000000C6
S31508004B80E803000007000000000000000000000025
S31508004B9000000000050007000100010007000000F2
S31508004BA002450008B059000833000000E803000079
S31508004BB007000000000000000000000000000000E0
S31508004BC0050007000100010007000000094500086C
S31508004BD0E059000834000000E80300000700000060
S31508004BE000000000000000000000000005000700AB
S31508004BF0010001000700000010450008105A0008CF
S31508004C0035000000E803000007000000000000006F
S31508004C100000000000000000050007000100010078
S31508004C200700000017450008405A00083600000033
S31508004C30E803000007000000000000000000000074
S31508004C400000000005000700010001000700000041
S31508004C501E450008705A000837000000E8030000E7
S31508004C60070000000000000000000000000000002F
S31508004C70050007000100010007000000254500089F
S31508004C80A05A000838000000E803000007000000EA
S31508004C9000000000000000000000000005000700FA
S31508004CA001000100070000002C450008DC5A000836
S31508004CB039000000E80300000700000000000000BB
S31508004CC000000000000000000500070001000100C8
S31508004CD007000000334500080C5B00083A00000096
S31508004CE0E8030000070000000000000000000000C4
S31508004CF00000000002000500020002000500000096
S31508004D003A4500083C5B00083B000000E803000049
S31508004D10070000000000000000000000000000007E
S31508004D200200060002000100060000003F450008D8
S31508004D306C5B00083C000000E80300000700000068
S31508004D40000000000000000000000000040007004A
S31508004D500200010007000000454500089C5B0008AA
S31508004D603D000000E8030000070000000000000006
S31508004D700000000000000000050003000100030019
S31508004D80030000004C450008CC5B00083E0000000C
S31508004D90E803000007000000000000000000000013
S31508004DA000000000040007000100010007000000E1
S31508004DB04F450008FC5B00083F000000E8030000C0
S31508004DC007000000000000000000000000000000CE
S31508004DD0050007000100010007000000564500080D
S31508004DE02459000840000000E803000007000000FE
S31508004DF00000000000000000000000000500070099
S31508004E0001000100070000005D4500085859000828
S31508004E1041000000E8030000070000000000000051
S31508004E200000000000000000050007000100010066
S31508004E300700000064450008885900084200000081
S31508004E40E803000007000000000000000000000062
S31508004E50000000000500070001000100070000002F
S31508004E606B450008B859000843000000E803000035
S31508004E70070000000000000000000000000000001D
S31508004E800500070001000100070000007245000840
S31508004E90E859000844000000E80300000700000085
S31508004EA000000000000000000000000005000700E8
S31508004EB0010001000700000079450008185A00089B
S31508004EC045000000E803000007000000000000009D
S31508004ED000000000000000000500070001000100B6
S31508004EE00700000080450008485A000846000000F0
S31508004EF0E8030000070000000000000000000000B2
S31508004F00000000000500070001000100070000007E
S31508004F1087450008785A000847000000E8030000A3
S31508004F20070000000000000000000000000000006C
S31508004F300500070001000100070000008E45000873
S31508004F40A85A000848000000E8030000070000000F
S31508004F500000000000000000000000000500070037
S31508004F60010001000700000095450008E45A000802
S31508004F7049000000E80300000700000000000000E8
S31508004F800000000000000000030007000200010006
S31508004F90070000009C450008145B00084A00000052
S31508004FA0E803000007000000000000000000000001
S31508004FB000000000050007000100010007000000CE
S31508004FC0A3450008445B00084B000000E803000006
S31508004FD007000000000000000000000000000000BC
S31508004FE0050007000100010007000000AA450008A7
S31508004FF0745B00084C000000E8030000070000008E
S315080050000000000000000000000000000500070086
S315080050100100010007000000B1450008A45B000874
S315080050204D000000E8030000070000000000000033
S315080050300000000000000000050007000100010054
S3150800504007000000B8450008D45B00084E000000C1
S31508005050E803000007000000000000000000000050
S31508005060000000000500070001000100070000001D
S31508005070BF450008045C00084F000000E803000074
S31508005080070000000000000000000000000000000B
S31508005090050007000100010007000000C6450008DA
S315080050A02C59000850000000E80300000700000023
S315080050B000000000000000000000000005000700D6
S315080050C00100010007000000CD45000860590008EE
S315080050D051000000E803000007000000000000007F
S315080050E000000000000000000500070001000100A4
S315080050F007000000D4450008905900085200000037
S31508005100E80300000700000000000000000000009F
S31508005110000000000500070001000100070000006C
S31508005120DB450008C059000853000000E8030000EA
S31508005130070000000000000000000000000000005A
S31508005140050007000100010007000000E24500080D
S31508005150F059000854000000E803000007000000AA
S315080051600000000000000000000000000500070025
S315080051700100010007000000E9450008205A000860
S3150800518055000000E80300000700000000000000CA
S3150800519000000000000000000500070001000100F3
S315080051A007000000F0450008505A000856000000A5
S315080051B0E8030000070000000000000000000000EF
S315080051C000000000050007000100010007000000BC
S315080051D0F7450008805A000857000000E803000059
S315080051E007000000000000000000000000000000AA
S315080051F0050007000100010007000000FE45000841
S31508005200B05A000858000000E80300000700000034
S315080052100000000000000000000000000500070074
S31508005220010001000700000005460008EC5A0008C6
S3150800523059000000E8030000070000000000000015
S315080052400000000000000000050007000100010042
S31508005250070000000C4600081C5B00085A00000006
S31508005260E80300000700000000000000000000003E
S31508005270000000000500070001000100070000000B
S31508005280134600084C5B00085B000000E8030000BA
S3150800529007000000000000000000000000000000F9
S315080052A00300070002000100070000001A46000874
S315080052B07C5B00085C000000E803000007000000B3
S315080052C000000000000000000000000005000500C6
S315080052D0010002000500000021460008AC5B00083A
S315080052E05D000000E8030000070000000000000061
S315080052F00000000000000000030007000200010093
S315080053000700000026460008DC5B00085E00000077
S31508005310E80300000700000000000000000000008D
S31508005320000000000500030001000500030000005E
S315080053302D4600080C5C00085F000000E80300002A
S315080053400700000000000000000000000000000048
S3150800535005000100010001000100000030460008B8
S315080053603459000860000000E80300000700000048
S315080053700000000000000000000000000300030019
S3150800538002000500030000003146000868590008BD
S3150800539061000000E80300000700000000000000AC
S315080053A000000000000000000500050001000100E3
S315080053B005000000344600089859000862000000FD
S315080053C0E8030000070000000000000000000000DD
S315080053D000000000050007000100010007000000AA
S315080053E039460008C859000863000000E8030000B1
S315080053F00700000000000000000000000000000098
S3150800540005000500010001000500000040460008EF
S31508005410F859000864000000E803000007000000CF
S315080054200000000000000000000000000500070062
S31508005430010001000700000045460008285A000838
S3150800544065000000E80300000700000000000000F7
S315080054500000000000000000050005000100010032
S31508005460050000004C460008585A0008660000006F
S31508005470E80300000700000000000000000000002C
S3150800548000000000050007000100010007000000F9
S3150800549051460008885A000867000000E803000023
S315080054A007000000000000000000000000000000E7
S315080054B00500050001000100050000005846000827
S315080054C0B85A000868000000E8030000070000005A
S315080054D000000000000000000000000005000700B2
S315080054E001000100070000005D460008F45A0008A4
S315080054F069000000E8030000070000000000000043
S315080055000000000000000000030007000200010080
