S315080000005024002001010008B50E0008DB0C00088A
S31508000010B10E00086F0B00083B180008000000002E
S315080000200000000000000000000000008D1100081C
S31508000030730B0008000000003D0F00087912000845
S315080000401B0100081B0100081B0100081B01000812
S315080000501B0100081B0100081B0100081B01000802
S315080000601B0100081B0100081B0100081B010008F2
S315080000701B0100081B0100081B0100081B010008E2
S315080000801B0100081B0100081B0100081B010008D2
S315080000901B0100081B0100081B0100081B010008C2
S315080000A01B0100081B0100081B0100081B010008B2
S315080000B0F1120008311300081B0100081B01000893
S315080000C01B0100081B0100081B0100081B01000892
S315080000D01B010008811400085D1500081B010008B3
S315080000E01B0100081B0100081B010008DFF80CD0E3
S315080000F000F066FC00480047F53D00085024002043
S315080001000648804706480047FEE7FEE7FEE7FEE7A3
S31508000110FEE7FEE7FEE7FEE7FEE7FEE791120008C8
S31508000120ED00000840EA01039B0703D009E008C96F
S31508000130121F08C0042AFAD203E011F8013B00F89E
S31508000140013B521EF9D27047D2B201E000F8012BEA
S31508000150491EFBD270470022F6E710B513460A4639
S3150800016004461946FFF7F0FF204610BD30B5054690
S315080001702A460B4612F8010B13F8014B08B1A042A8
S31508000180F8D01CB1002802D06D1CF1E7284630BD16
S31508000190F0B480EA0102D40F4200B2EB410F02D25A
S315080001A00246084611464A0042D0C30DDDB2C1F3E5
S315080001B0C752AD1A202D35DAC1F3160141F40002F3
S315080001C004B15242C5F1200602FA06F12A4110444A
S315080001D0B3EBD05F23D0C4B1012DA0EBC35009DC2B
S315080001E0F0BC4FF0004202EAC352DBB200F5000051
S315080001F000F02BBB400000F1807000EBC350A0F16B
S31508000200807040EAD170490009E0490841EAC071A6
S31508000210A0EBC35000F50000400800EBC350F0BC4B
S3150800022000F00ABB6142012202EB4101001BF6E71E
S31508000230F0BC704781F00041AAE780F00040A7E7CC
S3150800024080EA010210B502F00043400022D04A00BD
S315080002501FD0010E01EB1261C0F35600C2F356021D
S3150800026040F4000042F40002A0FB022000047F399B
S31508000270140400D0401C50EA124001D44000491E24
S31508000280C2B20C0604EBD010401C4008802A02D0EB
S3150800029003E0002010BD20F00100002900DA00204C
S315080002A0184310BD30B480EA010202F0004530F070
S315080002B0004221F0004013D090B1C30DD40DC2F313
S315080002C01601C0F31600E41A41F4000140F40002D6
S315080002D07D34914201D3641C00E04900002C02DA07
S315080002E030BC002070474FF400000023914201D330
S315080002F0891A034340084FEA4101F7D151B19142A7
S3150800030002D14FF0004105E002D24FF0010101E0B1
S315080003106FF0010103EBC450284430BC00F08CBADE
S315080003202DE9FE4F804681EA0300C00F0C46009077
S3150800033021F0004123F00045B8EB0200A94105D29F
S315080003404046214690461C460B46024623F000408E
S31508000350104347D0270DC7F30A00C3F30A5102908A
S31508000360401A019040286BDAC3F3130040F4801B4F
S315080003700098924620B10023D2EB030A63EB0B0BDD
S3150800038001985946C0F14002504600F024FA064644
S315080003900D4650465946019A00F03CFA10EB080003
S315080003A06141002487EA115284EAE7731A4340D070
S315080003B0009A62B3019A012A4FEA075215DC001B1C
S315080003C061EB02014FF0004202EA0752CDE9004212
S315080003D0001C41F5801132462B4600F073FA03B033
S315080003E0BDE8F08F40462146F9E7001B61EB0201A4
S315080003F0001C41F5801300185B412018A2F5001770
S3150800040047EB030140EAD570B6196D4111E06D0856
S315080004104FEA360645EAC0754FEA0752001B61EBFC
S315080004200201001C41F5801149084FEA3000001905
S31508000430514132462B4603B0BDE8F04F00F033BABF
S315080004400098012240000023D0EB020263EBE07320
S31508000450009821464FEAE074B8EB000061EB04010E
S31508000460E9E783F000435BE781F0004158E72DE9AF
S31508000470FE4F81EA030404F0004421F00041009491
S315080004804FF0000B23F0004350EA01045ED052EA15
S3150800049003045BD0C3F30A54C1F30A552C44A4F2EF
S315080004A0F3340194A0FB0254C1F3130141F4801103
S315080004B0C3F3130343F4801301FB024400FB034E0A
S315080004C0840A970A44EA815447EA8357A4FB0768D3
S315080004D002958D0A05FB07854FEA932C04FB0C54FD
S315080004E02705029D4FEA065847EA1637B5EB080571
S315080004F06EEB070C870E920E47EA811742EA8312C3
S31508000500A7FB0201B6EB0B0164EB00042B0D43EAD3
S315080005100C335E1844EB1C50DA465146E7FB0201E1
S31508000520C5F313044FEA0B3343EA14534FEA043274
S31508000530019C43EA0603A4F10C040294009CCDE94D
S3150800054000B400F0BFF903B0BDE8F08F0020014603
S31508000550F9E72DE9F04D81EA030404F0004B21F098
S31508000560004514464FF0000A23F0004150EA050200
S3150800057020D054EA01021DD0C5F30A570246C5F336
S315080005801303C1F31300C1F30A5640F4801543F46C
S315080005908013A7EB0608101BD64608F2FD3873EB46
S315080005A0050002D308F1010801E092185B41B8F191
S315080005B0000F03DA00200146BDE8F08D00204FF455
S315080005C08011064684460EE0171B73EB050705D314
S315080005D0121B63EB050306434CEA010C49084FEA74
S315080005E0300092185B4150EA0107EDD152EA030048
S315080005F012D082EA040083EA0501084305D0101BDD
S31508000600AB4106D20122002306E000224FF0004348
S3150800061002E06FF0010253101AEB06004CEB08518A
S3150800062010EB0A0041EB0B01BDE8F04D00F03BB9B9
S31508000630C10F80EAE0700844CA079623002100F03B
S3150800064004B996230022114600F0FFB80EB540F211
S31508000650334102910021CDE900110A460B4600F00C
S3150800066031F903B000BD20F00040C10DC0F31600FB
S3150800067040F400007F2901DA00207047962903DC40
S31508000680C1F19601C8407047963988407047C1F352
S315080006900A5210B5C1F3130140F2FF3341F4801139
S315080006A09A4201DA002010BD40F233439A42A2F280
S315080006B0334203DC524200F09DF810BD904010BD55
S315080006C000F0004230F000400AD0C10D01F560711B
S315080006D0C0F3160042EA0151C208400711437047A9
S315080006E000200146704701F0004330B421F0004174
S315080006F050EA010206D00A0DA2F56072C1F3130191
S31508000700002A02DC30BC00207047440F44EAC104CA
S31508000710C100E01830BC00EBC25000F08DB80000F4
S31508000720002801DBC0F10040002901DBC1F10041CE
S3150800073081427047002801DBC0F10040002901DB37
S31508000740C1F100418842704730B50B46014600208A
S315080007502022012409E021FA02F59D4205D303FA75
S3150800076002F5491B04FA02F52844151EA2F10102F6
S31508000770F1DC30BD2DE9F05F0546002092469B4628
S3150800078088460646814640241BE028464146474699
S31508000790224600F02FF853465A46C01A914110D304
S315080007A011461846224600F016F82D1A67EB01087E
S315080007B04F4622460120002100F00DF817EB0009EC
S315080007C04E41201EA4F10104DFDC484631462A4684
S315080007D04346BDE8F09F202A04DB203A00FA02F1DE
S315080007E0002070479140C2F1200320FA03F3194311
S315080007F090407047202A04DB203A21FA02F00021B3
S31508000800704721FA02F3D040C2F120029140084312
S3150800081019467047202A06DBCB17203A41FA02F020
S3150800082043EAE07306E041FA02F3D040C2F120023F
S3150800083091400843194670470029A8BF7047401CD5
S31508000840490008BF20F00100704710B4B0FA80FCD8
S3150800085000FA0CF050EA010404BF10BC704749B115
S31508000860CCF1200421FA04F411FA0CF118BF012185
S3150800087021430843A3EB0C01CB1D4FEA00614FEA65
S31508000880102042BF002010BC704700EBC350104434
S315080008900029A4BF10BC7047401C490008BF20F0BF
S315080008A0010010BC704710B5141E73F1000408DA75
S315080008B0401C41F1000192185B411A4301D120F016
S315080008C0010010BD2DE9F04D92469B4611B1B1FAD3
S315080008D081F202E0B0FA80F220329046FFF77BFF01
S315080008E004460F4640EA0A0041EA0B0153465A46B7
S315080008F0084313D0114653EA010019D0C8F1400243
S315080009005046FFF777FF05460E465046594642467B
S31508000910FFF761FF084305D0012004E02046394669
S31508000920BDE8F08D0020054346EAE0762C433743C0
S315080009300A986305E40AA0EB08000022FD0A44EAC7
S3150800094047540A3002D500200146E9E70105101987
S315080009506941DDE9084500196941BDE8F04DA2E79E
S31508000960C1F30A52C1F3130140F2FF3341F4801177
S315080009709A4202DA00200146704740F233439A420F
S31508000980A2F2334202DC5242FFF734BFFFF723BF1D
S3150800099030B5041E71F1000404DB4FF000444042F8
S315080009A064EB0101141E73F1000405DB1C464FF0CD
S315080009B00043524263EB0403994208BF904230BD9C
S315080009C0064C074D06E0E06840F0010394E807008E
S315080009D098471034AC42F6D3FFF78CFB7C660008C8
S315080009E09C66000821B1826842F00102826003E039
S315080009F0826822F0010282607047014600208A68F8
S31508000A0002F004020AB1012000E000207047014606
S31508000A10C86C80B270470246002013680B400BB1C1
S31508000A20012000E000207047014600208A6802F095
S31508000A3008020AB1012000E00020704730B50246DE
S31508000A400020002350680F4C20400D790C6844EABA
S31508000A5005242043506090680B4C2040D1E902548D
S31508000A602C434D7944EA450420439060D06A20F42B
S31508000A7070000C7C641EE4B2234340EA0350D06243
S31508000A8030BD0000FFFEF0FFFDF7F1FFF0B50446AC
S31508000A900D4600200021092D11DDE068A5F10A06A2
S31508000AA006EB4607072606FA07F18843A5F10A0664
S31508000AB006EB460603FA06F10843E0600CE02069F7
S31508000AC005EB4507072606FA07F1884305EB4506B1
S31508000AD003FA06F108432061072A0FDA606B561EEF
S31508000AE006EB86071F2606FA07F18843561E06EB0D
S31508000AF0860605FA06F10843606322E00D2A0FDA36
S31508000B00206BD61F06EB86071F2606FA07F18843D1
S31508000B10D61F06EB860605FA06F10843206310E0A1
S31508000B20E06AA2F10D0606EB86071F2606FA07F10C
S31508000B308843A2F10D0606EB860605FA06F1084378
S31508000B40E062F0BD816841F008018160704721B11B
S31508000B50826842F4A002826003E0826822F4A0025E
S31508000B6082607047816841F004018160704700BF68
S31508000B70FEE770470549096821F01001034A11602C
S31508000B8011460968014311607047000000200240C1
S31508000B9001460020034A106800F038000843106038
S31508000BA070470000002002402DE9F041024600256A
S31508000BB00026002000230024002791F803C00CF02B
S31508000BC00F0591F803C00CF0100CBCF1000F03D010
S31508000BD091F802C04CEA050591F800C0BCF1000F77
S31508000BE031D0146800202BE04FF0010C0CFA00F30A
S31508000BF0B1F800C00CEA03069E4220D183004FF0EC
S31508000C000F0C0CFA03F7BC4305FA03FC4CEA040480
S31508000C1091F803C0BCF1280F06D14FF0010C0CFA6D
S31508000C2000FCC2F814C00AE091F803C0BCF1480FF2
S31508000C3005D14FF0010C0CFA00FCC2F810C0401C9C
S31508000C400828D1D31460B1F800C0BCF1FF0F34DD19
S31508000C50546800202EE000F1080C4FF0010808FA4D
S31508000C600CF3B1F800C00CEA03069E4221D18300BA
S31508000C704FF00F0C0CFA03F7BC4305FA03FC4CEAD9
S31508000C80040491F803C0BCF1280F05D100F1080C43
S31508000C9008FA0CF8C2F8148091F803C0BCF1480FA2
S31508000CA007D100F1080C4FF0010808FA0CF8C2F851
S31508000CB01080401C0828CED35460BDE8F081024657
S31508000CC0002093680B400BB1012000E0002070471C
S31508000CD00AB1016100E04161704700BFFEE721B13A
S31508000CE0028842F48062028004E002884FF6FF33ED
S31508000CF01A4002807047002221F07F42D343838244
S31508000D00704721B1028842F00102028004E002889D
S31508000D104FF6FE731A400280704721B1028842F4EA
S31508000D208072028004E002884FF6FF631A40028050
S31508000D30704721B1028842F40072028004E00288FA
S31508000D404FF6FF531A40028070470CB50246002042
S31508000D5000230193009300920B0F019321F07F412A
S31508000D60019B1BB1009B1433009303E0090C009B05
S31508000D7018330093009B1B680B400BB1012000E061
S31508000D8000200CBD2DE9F04385B004460D4600262B
S31508000D90B1460427DFF8CC80A6884FF6C070064017
S31508000DA0684600F0F9F8DDF808802F48B8FBF0F03F
S31508000DB01FFA80F946EA0906A68020884FF6FE71D2
S31508000DC00840208000262949286888420CD82868C7
S31508000DD04000B8FBF0F087B2042F00DA04273E4340
S31508000DE009F10100208427E0E8884BF6FF71884264
S31508000DF006D1286800EB4000B8FBF0F087B209E09E
S31508000E00286800EBC00101EB0010B8FBF0F087B2D0
S31508000E1047F48047C7F30B0008B947F0010747F4C2
S31508000E20004006434FF4967009FB00F04FF47A71C0
S31508000E3090FBF1F0401C2084A683208840F0010036
S31508000E40208026884FF6F5300640A8886989084329
S31508000E5006432680A88929890843208105B0BDE86C
S31508000E60F083000000127A0040420F00A0860100BD
S31508000E7008B50246002000900092009808440090A9
S31508000E800098008808BD0146088AC0B270470182EA
S31508000E90704741F288310160002181804BF6FF716D
S31508000EA0C1800021018141814FF4804181817047D1
S31508000EB000BFFEE77047000070B5002100230F222F
S31508000EC0C47804B3154C246804F4E064C4F5E064FB
S31508000ED0210AC1F10403CA40447804FA03F184786C
S31508000EE01440214309010E4C0678A155047804F0F4
S31508000EF01F050124AC4005786D11AD0005F1E0250C
S31508000F00C5F8004109E0047804F01F050124AC4047
S31508000F10044D0678761145F8264070BD0CED00E0C4
S31508000F2000E400E080E100E002490143024A116062
S31508000F30704700000000FA050CED00E0704700005D
S31508000F4001460020034A506820F440400843506098
S31508000F50704700000010024029B1064AD2690243D0
S31508000F60044BDA6104E0034AD2698243014BDA6131
S31508000F70704700000010024029B1064A92690243F0
S31508000F80044B9A6104E0034A92698243014B9A61D1
S31508000F90704700000010024030B5002100220024EE
S31508000FA000232D4D6D6805F00C0121B1042905D0EB
S31508000FB0082923D105E0294D056022E0274D056063
S31508000FC01FE0254D6D6805F47012234D6D6805F414
S31508000FD08034022505EB92421CB9214D5543056024
S31508000FE00BE01D4D6D6805F400351DB11C4D5543CC
S31508000FF0056002E0194D5543056002E0174D05608E
S3150800100000BF00BF144D6D6805F0F0010909154DC4
S315080010106B5C0568DD4045600F4D6D6805F4E06161
S31508001020090A104D6B5C4568DD4085600A4D6D68A0
S3150800103005F46051C90A0B4D6B5C4568DD40C56017
S31508001040054D6D6805F44041890B074D6B5CC56815
S31508001050B5FBF3F5056130BD0010024000127A00B9
S3150800106000093D00340000204400002010B5014668
S315080010700022002300204A11012A02D1094C2368C4
S3150800108006E0022A02D1074C236A01E0054C636A8E
S3150800109001F01F02012494401C400CB1012000E01D
S315080010A0002010BD001002400248406800F00C0005
S315080010B0704700000010024001460020034A5068AD
S315080010C020F0F0000843506070470000001002400E
S315080010D01149096821F480310F4A116011460968DF
S315080010E021F480211160B0F5803F03D0B0F5802F40
S315080010F00ED106E00849096841F48031064A1160B4
S3150800110007E00549096841F4A021034A116000E097
S3150800111000BF00BF704700000010024001460020D3
S31508001120034A506820F4E0600843506070470000A6
S315080011300010024001460020034A506820F460501F
S3150800114040EAC10050607047001002400149086635
S31508001150704700000000424202460020044B5868CF
S3150800116020F47C1042EA01031843014B586070478B
S315080011700010024001460020034A506820F0030090
S31508001180084350607047000000100240704710B5D1
S3150800119000F002F810BD00000CB500200190009088
S315080011A03348006840F480303149086000BF304851
S315080011B0006800F4003000900198401C01900098E7
S315080011C018B90198B0F5A06FF1D12948006800F464
S315080011D0003010B10120009001E000200090009836
S315080011E0012843D12348006840F0100021490860CF
S315080011F00846006820F0070008600846006840F0C6
S31508001200020008601A48406819494860084640685C
S3150800121048600846406840F4806048600846406870
S3150800122020F47C1048600846406840F4E81048609E
S315080012300846006840F08070086000BF0C480068E7
S3150800124000F000700028F9D00948406820F0030033
S31508001250074948600846406840F00200486000BFF9
S315080012600348406800F00C000828F9D10CBD0000BE
S3150800127000100240002002400448036840685A1CD7
S3150800128040F1000001490A604860704728000020C4
S3150800129010B51348006840F0010011490860084677
S315080012A04068104908400E494860084600680E49DB
S315080012B008400B4908600846006820F4802008604A
S315080012C00846406820F4FE0048604FF41F00886016
S315080012D0FFF75DFF4FF000600449086010BD00008D
S315080012E0001002400000FFF8FFFFF6FE08ED00E0E0
S315080012F010B501210C48006800F049F898B10121A1
S315080013000948006800F034F80848B0F8800020F46E
S31508001310004000F500400549A1F880000021024878
S31508001320006800F028F810BD48000020C80000201A
S3150800133010B501210C48006800F029F898B1012180
S315080013400948006800F014F80848B0F8000220F4CC
S31508001350004000F500400549A1F8000200210248B6
S31508001360006800F008F810BD50000020CA010020EF
S31508001370CA430282704721B1028842F00102028004
S3150800138004E002884FF6FE731A400280704730B5B3
S315080013900246002000230024158A05EA01039589E0
S315080013A005EA010413B10CB1012000E0002030BDAC
S315080013B01AB183890B43838102E083898B43838136
S315080013C07047818470470000002202881D4B9842AE
S315080013D00ED01D4B98420BD0B0F1804F08D01B4B56
S315080013E0984205D01A4B984202D01A4B984204D11B
S315080013F04FF68F731A404B881A43174B984207D0FB
S31508001400164B984204D04FF6FF431A40CB881A432E
S3150800141002808B8883850B8803850A4B98420BD0FC
S31508001420094B984208D00E4B984205D00D4B98426E
S3150800143002D00D4B984201D10B7A03860123838291
S3150800144070470000002C01400034014000040040B1
S3150800145000080040000C0040001000400014004046
S315080014600040014000440140004801404FF6FF712A
S31508001470818000210180C18041800172704700008F
S3150800148010B508213248006800F0FAF840B1082182
S315080014902F48006800F0D0F82D48006800F0B8F929
S315080014A040F225512A48006800F0F7F800284DD088
S315080014B02748006800F0ACF9C4B22648B0F88000A6
S315080014C0C0F30E007F2822DA002123480068FFF7C0
S315080014D078FF2048B0F88000C0F30E0020B901213B
S315080014E01D480068FFF747FF1A48B0F88000C0F3A8
S315080014F00E0018490C540846B0F88000401CB1F894
S31508001500801060F30E011348A0F8801018E0114807
S31508001510B0F880006FF30E000E49A1F88000084667
S31508001520B0F88000C0F30E000C540846B0F88000EE
S31508001530401CB1F8801060F30E010648A0F8801030
S3150800154040F225510248006800F07FF810BD0000FF
S315080015504C000020C80000204800002010B50821D3
S315080015603248006800F08CF840B108212F4800681E
S3150800157000F062F82D48006800F04AF940F225515B
S315080015802A48006800F089F800284ED027480068E5
S3150800159000F03EF9C4B22648B0F80002C0F30E00C7
S315080015A0B0F5FF7F22DC002122480068FFF709FF1B
S315080015B01F48B0F80002C0F30E0020B901211D48EB
S315080015C00068FFF7D8FE1A48B0F80002C0F30E000C
S315080015D017490C540846B0F80002401CB1F800122E
S315080015E060F30E011248A0F8001218E01048B0F88F
S315080015F000026FF30E000E49A1F800020846B0F883
S315080016000002C0F30E000C540846B0F80002401C55
S31508001610B1F8001260F30E010548A0F8001240F276
S3150800162025510248006800F010F810BD540000204B
S31508001630CA0100205000002001F40072B2F5007FB4
S3150800164000D100BFCA430280704710B500220023AC
S3150800165040F66A14A14200D100BF0A120124944040
S31508001660A3B2DC43048010BD21B1828942F4005242
S31508001670828104E082894DF6FF731A4082817047A1
S3150800168002460020B1F5007F00D100BF13880B4049
S315080016900BB1012000E00020704770B50246002417
S315080016A000230025002040F66A16B14200D100BF8B
S315080016B0C1F3421501F01F03012606FA03F3012DB3
S315080016C002D19689334006E0022D02D1168A3340AC
S315080016D001E0968A33400C12012606FA04F41688AD
S315080016E0344013B10CB1012000E0002070BDF0B504
S315080016F00346002400260025002040F66A17B94252
S3150800170000D100BF1846C1F3421401F01F06012795
S3150800171007FA06F5012C01D10C3004E0022C01D1A0
S31508001720103000E014301AB107682F43076002E052
S315080017300768AF430760F0BD2DE9F04786B0054658
S315080017400E460024A24600BFA1460027B08900B174
S3150800175000BF2F462C8A4CF6FF700440F0880443DD
S315080017602C82AC894EF6F3100440B08831890843C0
S31508001770718908430443AC81AC8A4FF6FF400440A4
S31508001780B0890443AC8201A8FFF706FC1F488742CC
S3150800179002D1DDF810A001E0DDF80CA0A88900F45C
S315080017A0004040B10AEBCA0000EB0A103168490054
S315080017B0B0FBF1F807E00AEBCA0000EB0A10316843
S315080017C08900B0FBF1F86420B8FBF0F004012009A9
S315080017D0642101FB1089A88900F4004040B1322039
S315080017E000EBC900B0FBF1F000F00700044308E085
S315080017F0322000EB09106421B0FBF1F000F00F0075
S3150800180004432C8106B0BDE8F0870000003801408B
S3150800181001468888C0F308007047C1F30802828031
S3150800182070474FF41651016000218180C180018103
S315080018300C21418100218181704700BFFEE700002D
S315080018400FB41CB50246002007AC00290BD0491E70
S31508001850CDE90021054B6A462146069800F016F99F
S31508001860009A002111701CBC5DF814FBBB2100080E
S315080018700FB4084B10B504A902AA039800F006F99C
S31508001880044602A9002000F0A3FC204610BC5DF81F
S3150800189014FB0000D12100087CB5044600201D4633
S315080018A0164600290BD0491ECDE90041044B6A466D
S315080018B02946304600F0EAF8009A002111707CBDEE
S315080018C0BB21000837B514460846064B6A4621462A
S315080018D000F0DCF804466946002000F079FC204652
S315080018E03EBD0000D121000802E008C8121F08C149
S315080018F0002AFAD170477047002001E001C1121F83
S31508001900002AFBD1704700002DE9FF5F82B0002155
S31508001910DDE90430020DDDF840B0034318D044F683
S315080019201050A2F2FF3242431514119801281FD015
S31508001930A5EB0B00401C5FEA000A4FF000064E4F6D
S31508001940DFF83891B046504615D5CAF1000413E0C1
S31508001950119801244AA3012801D16FEA0B010298C4
S31508001960119AC0E90031C0E9024206B0BDE8F09F0D
S31508001970CBF10000DFE704460021404A491842EB54
S315080019800450CDE9001012E0E00707D032463B4686
S3150800199040464946FEF76BFD8046894632463B4639
S315080019A010461946FEF763FD06460F466410002CDE
S315080019B0EAD1DDE90401DDE90023BAF1000F06DA10
S315080019C0FEF755FD42464B46FEF751FD05E0FEF78C
S315080019D0C0FD42464B46FEF7BCFD04460E460022B5
S315080019E0284BFEF7D5FF03D84FF0FF30014607E036
S315080019F00022254B20463146FEF792FCFEF7B0FF43
S31508001A00102409E0002C0ADB0A220023FEF7B2FEA6
S31508001A10039B30321A55641E50EA0102F2D1641C47
S31508001A20039AC4F111031444119A012A03D001221E
S31508001A3008430DD10AE0084304D000204FF0110BEB
S31508001A40119072E7A3EB0B056D1E0DE05B4504DDF7
S31508001A504FF0000205F1010504E003DA4FF0000239
S31508001A60A5F10105002AECD002981199C0E90231C6
S31508001A70C0E9004579E70000000014400000F03F87
S31508001A80300000000000F0430000E03F2DE9FF4F62
S31508001A9095B09B468946064600250FE2252877D14C
S31508001AA000242746F84A0121059400E0044316F865
S31508001AB0013F203B01FA03F01042F7D130782A287B
S31508001AC011D06FF02F033078A0F13002092A16D80A
S31508001AD0059A44F0020402EB820203EB4202104428
S31508001AE0761C0590EFE759F8042B0592002A03DACD
S31508001AF0504244F40054059044F00204761C3078B1
S31508001B002E2816D116F8010F44F004042A280DD001
S31508001B106FF02F023078A0F13003092B09D807EBB4
S31508001B20870302EB4303C718761CF3E759F8047BCF
S31508001B30761C30786C280FD006DC4C2817D068281D
S31508001B400DD06A2814D104E0742810D07A280FD151
S31508001B500DE044F400140AE044F4801401E044F46F
S31508001B6040147278824202D104F58014761C761CE1
S31508001B70307866280BD013DC582877D009DC002883
S31508001B8075D04528F6D04628F4D047281AD19DE1C5
S31508001B9018E0632835D0642879D0652812D195E1F4
S31508001BA0702873D008DC6728F1D069286FD06E28B2
S31508001BB00DD06F2806D1B5E073282CD0752875D0BE
S31508001BC0782874D05A46179990476D1C75E1C4F366
S31508001BD00250022809D003280DD0D9F8001004288D
S31508001BE00DD00D6009F1040967E1D9F80010EA176C
S31508001BF0C1E90052F6E7D9F800100D80F2E70D703A
S31508001C00F0E719F8041B8DF8001000208DF8010084
S31508001C10EA46012003E059F804AB4FF0FF306107AC
S31508001C204FF0000102D40DE008F101018846B942DF
S31508001C300FDA8045F8DB1AF808100029F4D108E015
S31508001C4008F1010188468142FADB1AF808100029D2
S31508001C50F6D105985B46A0EB080721463846179A41
S31508001C6000F094FA284400EB080507E04DE029E166
S31508001C700DE01AF8010B5A4617999047B8F1010872
S31508001C80F7D25B4621463846179A13E142E00A2204
S31508001C900092C4F302524FF0000A022A08D059F8FB
S31508001CA004CB032A4FEAEC710AD00DE029E02AE0BA
S31508001CB009F1070121F00702F2E802C1914609E09D
S31508001CC00FFA8CFC4FEAEC71042A03D14FFA8CFC0C
S31508001CD04FEAEC71002907DA0A460021DCF1000C0C
S31508001CE061EB02012D2202E0220504D52B228DF894
S31508001CF00420012203E0E20701D02022F7E79046FC
S31508001D0059E00A2102E010220DE010214FF0000AE6
S31508001D1000910BE010224FF0000A44F00404082753
S31508001D20009203E008224FF0000A0092C4F3025220
S31508001D30022A05D059F804CB0021032A08D009E065
S31508001D4009F1070121F00702F2E802C1914605E010
S31508001D501FFA8CFC042A01D10CF0FF0C4FF0000886
S31508001D60220728D5702806D0009B83F0100353EA73
S31508001D700A0305D00EE040228DF80420012208E06F
S31508001D805CEA010206D030228DF804208DF80500A1
S31508001D9002229046009B83F0080353EA0A030AD1FD
S31508001DA05CEA010201D1620705D530228DF80420CC
S31508001DB04FF001087F1E582804D034A003900EA8BF
S31508001DC002900DE036A0F9E753466046009AFEF702
S31508001DD0D1FC84460398825C0298401E02900270E9
S31508001DE05CEA0100F0D1029806A9081A00F1200A57
S31508001DF0600702D524F4803400E00127574502DD48
S31508001E00A7EB0A0000E0002000EB0A010090059805
S31508001E104144401A0590E00306D45B462146179ACA
S31508001E20059800F0B3F90544002706E001A85A46CC
S31508001E30C05D179990476D1C7F1C4745F6DBE0038C
S31508001E400CD55B462146179A059800F09FF905447C
S31508001E5004E030205A46179990476D1C0099481E91
S31508001E6000900029F5DC08E0029802995A460078A5
S31508001E70491C0291179990476D1CBAF10001AAF105
S31508001E80010AF1DC65E1000009280100303132332E
S31508001E903435363738396162636465660000000098
S31508001EA03031323334353637383941424344454682
S31508001EB00000000000F058F90544761C3078002828
S31508001EC07FF4ECAD19B02846BDE8F08F620700D460
S31508001ED0062709F1070222F0070CFCE80223E1466F
S31508001EE003F000485FEA080C02D00FF2702C0DE0F0
S31508001EF05FEA045C02D50FF2682C07E05FEAC47C4F
S31508001F0002D00FF2602C01E0AFF2700C4FF0FF38F0
S31508001F1023F00043CDF850C065280CD006DC4528D0
S31508001F2009D046281DD047283DD13DE0662818D05F
S31508001F3067287ED138E00021112F01DB112000E04F
S31508001F40781CCDE9000106A90EA8FFF7DDFCDDE93E
S31508001F500F010E9A03910021009207F1010A0491DC
S31508001F604DE04FF000400097CDE9011006A90EA8F4
S31508001F70FFF7CAFCDDE90F0203920E9B11990022B6
S31508001F80DDF80CA00093049211B9791C00EB010A44
S31508001F90B7EB0A0004D4C0F1FF3007F1010A049038
S31508001FA0AAEB0700019044E0012F00DA012700217F
S31508001FB0112F01DD112000E03846CDE9000106A900
S31508001FC00EA8FFF7A1FCDDE90F010E9A0391002187
S31508001FD004910092BA4621070CD40399514500DAB8
S31508001FE08A46BAF1010F05DD009AAAF10101515C92
S31508001FF0302908D0B84202DA10F1040F06DA0121B6
S31508002000CDE9011015E0AAF10101E9E7002805DC90
S31508002010049901440491AAEB000102E0411C5145D0
S3150800202000DD8A460499401A401C01904FF0004092
S315080020300290200704D40198504501DBCDF80480AE
S3150800204000208DF84F0002980DF14F07B0F1004FB0
S3150800205025D02B200E9002984FF0020800280CDAA3
S31508002060404202902D200E9007E00A210298FEF7C2
S315080020706BFB3031029007F8011DB8F10001A8F199
S315080020800108F2DC02980028EFD1791E0E98087034
S31508002090307800F0200040F0450007F8020D12A83D
S315080020A0C01B00F107081498007800B1012000EB66
S315080020B00A01019801EBE07105984144401A401E57
S315080020C00590E00306D45B462146179A059800F06A
S315080020D05DF805441498007818B15A461799904740
S315080020E06D1CE00324D55B462146179A059800F037
S315080020F04DF805441CE00498002807DBDDE90301D8
S31508002100884203DD0098405C179901E01799302052
S315080021105A469047049805F10105401C0490019819
S31508002120401E019004D12E205A46179990476D1CDF
S31508002130BAF10001AAF1010ADDDC05E017F8010B86
S315080021405A46179990476D1CB8F10001A8F1010885
S31508002150F4DC5B462146179A0598ABE62D0000008D
S315080021602B000000200000002DE9F0410446002560
S315080021701E461746880404D405E039462020B04791
S315080021806D1C641EF9D52846BDE8F0812DE9F0419D
S31508002190044600251E469046C80301D5302700E0B0
S315080021A02027880404D505E041463846B0476D1C0B
S315080021B0641EF9D52846BDE8F0814A68002A06D08B
S315080021C00A68531C0B6010704868401E48607047C8
S315080021D00A68531C0B6010707047000010B5084958
S315080021E008A002F0A7F9094909A002F0A3F90A49CB
S315080021F00AA002F09FF90B4801F094FE10BD0000FA
S31508002200E92300084248313735300000E94800081C
S315080022105348543330000000AD470008534833395B
S3150800222033000000A000002070B5114802F076F9CE
S3150800223004460F490839081F02F068F905460C4894
S31508002240001F02F071F906464CB945B93EB900F0CF
S3150800225081FF07490C3988610120087705E00020CD
S3150800226003490C390877012070BD0020FCE70000FF
S315080022706C00002010B504460CB9012010BD0648B4
S31508002280007F08B90220F9E7202203492046FDF716
S3150800229049FF0020F2E700006000002001460629F9
S315080022A00CD2DFE801F003040805060900BF00BFE9
S315080022B000BFB420704700BF1820FBE70020F9E7ED
S315080022C008B500BF01210820FEF756FE00BF2020F2
S315080022D0ADF8000010208DF8030002208DF80200EA
S315080022E069460548FEF760FC00BF00222021024827
S315080022F0FEF7EEFC00BF08BD000C014010B586B025
S31508002300044600BF01210820FEF736FE00BF00BFC5
S3150800231001210820FEF730FE00BF00BF0121480555
S31508002320FEF71AFE00BF4020ADF814001C208DF8F9
S31508002330170003208DF8160005A91548FEF734FC8A
S315080023408020ADF8140005A91148FEF72DFC01A858
S31508002350FEF79FFD0020ADF808004BF6FF70ADF8BC
S315080023600A000020ADF80C004FF48060ADF80E00AE
S315080023700001ADF81000019401A906480068FEF7AF
S3150800238001FD012103480068FEF7BBFC06B010BD3D
S31508002390000C01400800002038B5044602236A46AE
S315080023A046210848006800F087FF08B1012038BDBB
S315080023B09DF801009DF8001040EA012020800020C9
S315080023C0F5E700000800002001B501236A4646210A
S315080023D00448006801F00EF808B1012008BD002085
S315080023E0FCE700000800002010B5FFF769FF0A485F
S315080023F0FFF784FF0A2000F063FA012000F081F855
S3150800240004460CB1204610BD00200449087010206F
S3150800241000F077F8F7E70000A08601000500002025
S3150800242070B50546032000F073F804460CB1204643
S3150800243070BD284600F034F8FAE70146062910D29E
S31508002440DFE801F0030507090B0D1020704711207E
S31508002450FCE71320FAE72020F8E72120F6E72320F7
S31508002460F4E70020F2E700002DE9F04105460C46A6
S315080024702846FEF7E6F807460849FDF713FF06461D
S31508002480012C01D0042C05D14FF080413046FDF7D0
S3150800249009FF06463046BDE8F08100009A99993F43
S315080024A038B5054612480078032807D01048007842
S315080024B0042803D00E480078052809D10C4800786E
S315080024C0FFF7ECFE0446002C02DD204600F0F8F982
S315080024D0684600F00FF808B1012038BD04480178B5
S315080024E0BDF80000FFF7C0FF28600020F5E70000F0
S315080024F00500002010B504462046FFF74DFFC0B280
S3150800250010BD10B504462046FFF75EFFC0B210BDE9
S3150800251070B504462046FFF790FF05460DB903201F
S3150800252070BD2846FFF7EDFF08B10120F8E702481D
S3150800253004700020F4E7000005000020F0B5837B56
S3150800254003B9F0BD002901DB802900DBF9E7002A81
S3150800255001DB402A00DBF4E7438BBBB1838BABB1CD
S31508002560B0F916308B4205DCB0F91630448B23449B
S315080025708B4200DCE5E7B0F91830934205DCB0F988
S315080025801830848B2344934200DCDAE7837B012BE3
S315080025901CD1D51702EB5575ED1001EBC51546682C
S315080025A0755D1446D61702EB5676F610A2EBC607EB
S315080025B00126BE403543EEB21346D51702EB5575D4
S315080025C0ED1001EBC51547687E551AE0D51702EBE5
S315080025D05575ED1001EBC5154668755D1446D61799
S315080025E002EB5676F610A2EBC6070126BE40B543A7
S315080025F01346D61702EB5676F61001EBC616476851
S31508002600BD5500BF9DE7000070B505460C4600F0B5
S31508002610A1FD064613E000BF002202210C48FEF782
S3150800262057FB00BF284600F05DF900BF01220221D2
S315080026300748FEF74DFB00BF284600F053F900F0A7
S3150800264089FD801BA042E6D300F0A4F870BD000007
S31508002650000C01402DE9F04107460D461646012EAD
S3150800266006D0022E0BD0032E10D0042E1DD115E055
S3150800267050201E49088032201D49088017E0962000
S315080026801A49088064201A49088010E04FF49670A9
S3150800269016490880C8201649088008E0C82013494A
S315080026A0088064201249088001E0BDE8F08100BF77
S315080026B000F050FD04460EE00C4801883846FFF746
S315080026C0A3FF00F047FD001BA84200D308E0084816
S315080026D0008800F0F5F800F03DFD001BA842EBD39A
S315080026E000BF00F057F800BFDFE700000C0000202D
S315080026F00E0000202DE9F04106460D4690461F467D
S3150800270036B1012E06D0022E07D0032E09D106E0D7
S31508002710FA2408E04FF4FA7405E0C82403E0A62476
S3150800272001E0BDE8F08100BF25B939462046FFF72C
S315080027306BFF06E0012D04D1424639462046FFF7D5
S3150800274089FF00BFEDE7000008B500BF012108209A
S31508002750FEF712FC00BF0220ADF8000010208DF82D
S31508002760030002208DF8020069460348FEF71CFAAA
S3150800277000F010F808BD0000000C014010B5FFF786
S31508002780E3FF00F017F8322000F09AF800F002F89C
S31508002790002010BD10B500BF012202210448FEF733
S315080027A097FA00BF0A2000F09DF8002010BD00002F
S315080027B0000C014010B500BF002202210448FEF7B4
S315080027C087FA00BF0A2000F08DF8002010BD00002F
S315080027D0000C01402DE9F041C1F30A52A2F2FF367E
S315080027E02F4A304B0D460446142E2FDA002E12DAE5
S315080027F0FDF796FD00221346FEF7CAF84CD2002DC7
S31508002800BCBF4FF00045002446DB55EA040018BF5C
S31508002810254D19D140E0DFF894C02CFA06F705EAF1
S31508002820070C5CEA040C08BFBDE8F081FDF778FDEB
S3150800283000221346FEF7ACF82ED2002D03DD4FF426
S315080028408010F0400544BD43002425E0332EC8BF60
S31508002850BDE8F081A6F1140C4FF0FF3727FA0CF704
S315080028603C4208BFBDE8F081FDF7FEFD0022134695
S31508002870FEF78EF810D2002D0DDD142E08BF6D1C44
S3150800288009D0C6F13400012101FA00F02044A04223
S3150800289038BF6D1C0446BC4329462046BDE8F08176
S315080028A09C7500883CE4377E0000F03FFFFF0F0070
S315080028B0002100E0491CC2008A42FBD8704700008C
S315080028C070B5044602F0FEF90548006805190026A9
S315080028D000BF034800680021401BB141F9D370BD11
S315080028E02800002070B5044602F0ECF900F0A0FCC0
S315080028F0021941F10000551C40F1000600BF00F026
S3150800290097FC401BB141FAD370BD00002DE9F04792
S3150800291004460D469146B9F1030F09D1FA480078E5
S31508002920401C032190FBF1F201FB1200F6490870E6
S315080029300026F648007820B101260020F3490870E1
S31508002940AFE0F1480078F2490978884201D00126BB
S3150800295096E0002CFCD0EC48007820B1012848D03D
S31508002960022845D18AE0EB4A11682068FDF7E2FEA5
S3150800297005D2E84A11682068FDF75CFC04E0E54AE0
S3150800298021681068FDF756FC07464FF07C51FDF7A5
S31508002990D1FE2CD9DF4AD168E068FDF7CBFE05D217
S315080029A0DC4AD168E068FDF745FC04E0D94AE168ED
S315080029B0D068FDF73FFC0746D749FDF7BBFE16D999
S315080029C0D44A51686068FDF7B5FE05D2D14A516808
S315080029D06068FDF72FFC04E0CE4A61685068FDF791
S315080029E029FC07464FF08041FDF7A4FE00D80126D2
S315080029F045E0C84A11692069FDF79CFE05D2C54A1B
S31508002A0011692069FDF716FC04E0C24A21691069BC
S31508002A10FDF710FC0746C149FDF78CFE2CD9BD4AC7
S31508002A2051696069FDF786FE05D2BA4A516960693F
S31508002A30FDF700FC04E0B74A61695069FDF7FAFB47
S31508002A400746B749FDF776FE16D9B24A9168A068D7
S31508002A50FDF770FE05D2AF4A9168A068FDF7EAFB5C
S31508002A6004E0AC4AA1689068FDF7E4FB07464FF01E
S31508002A708041FDF75FFE00D8012600E000BF00BFD9
S31508002A807EB9A148007802280BD155B12878A54906
S31508002A900978884204D16878A2494978884200D0E2
S31508002AA001260EB9BDE8F08724B1202221469948AF
S31508002AB0FDF738FB15B19B482988018092480078B4
S31508002AC09349087001F036FA974801F02BFA01226B
S31508002AD01146954801F05CFC0021934801F053FC2F
S31508002AE08948007820B101285FD002287ED1BCE051
S31508002AF00A2219218C4801F048FC8CA18A4801F069
S31508002B002DFA14220021884801F03FFC8BA1864843
S31508002B1001F024FA6CB320220021834801F035FC29
S31508002B202068FDF7CDFD07463A460B4688A17E4844
S31508002B3001F0A0FB2C2200217B4801F026FCE0686E
S31508002B40FDF7BEFD07463A460B4685A1764801F0D5
S31508002B5091FB3A220021744801F017FC6068FDF7E2
S31508002B60AFFD07463A460B4681A16F4801F082FB46
S31508002B701AE0202200216C4801F007FC81A16A486E
S31508002B8001F0ECF92C220021674801F0FEFB80A138
S31508002B90654801F0E3F93A220021634801F0F5FBA4
S31508002BA07EA1614801F0DAF9A5E00A220F215E4804
S31508002BB001F0EBFB7DA15C4801F0D0F9142200215D
S31508002BC0594801F0E2FB5DA1574801F0C7F97CB30B
S31508002BD020220021544801F0D8FB2069FDF770FD3A
S31508002BE007463A460B4676A14F4800E082E001F0D8
S31508002BF041FB2C2200214C4801F0C7FB6069FDF718
S31508002C005FFD07463A460B4670A1474801F032FB7E
S31508002C103A220021444801F0B8FBA068FDF750FDB0
S31508002C2007463A460B466DA13F4801F023FB1BE0D9
S31508002C30FFE7202200213C4801F0A7FB6CA13A4897
S31508002C4001F08CF92C220021374801F09EFB6BA17C
S31508002C50354801F083F93A220021334801F095FB03
S31508002C6069A1314801F07AF945E00A2211462E4851
S31508002C7001F08BFB67A12C4801F070F914220021A2
S31508002C80294801F082FB2DA1274801F067F9F5B123
S31508002C9024220021244801F078FB287808B162A094
S31508002CA000E063A0024664A11F4801F0E3FA3A2255
S31508002CB000211D4801F069FB687808B161A000E0B1
S31508002CC063A0024664A1184801F0D4FA11E0242250
S31508002CD00021154801F059FB62A1134801F03EF99D
S31508002CE03A220021104801F050FB60A10E4801F07D
S31508002CF035F900E000BF00BF0B4801F0D0FA01F03B
S31508002D0023F900BFCEE600000300002004000020DF
S31508002D10020000208000002000004842CDCCCC3DB7
S31508002D200000C84200000020A000002020416D627B
S31508002D3069656E742020205B315D00003D3D3D3D98
S31508002D403D3D3D3D3D3D3D3D3D3D3D3D3D3D00001F
S31508002D5054656D703A20252E316620430000000028
S31508002D604C696768743A20252E3166206C757800A0
S31508002D7041697248756D693A20252E3166202525E8
S31508002D805248000054656D703A204E2F41000000ED
S31508002D904C696768743A204E2F41000041697220D9
S31508002DA04875696D3A204E2F410000002053756220
S31508002DB07375726661636520205B325D00000000F2
S31508002DC050483A20252E326600000000434F323A1A
S31508002DD020252E30662070706D000000536F696CD8
S31508002DE048756D693A20252E316620252500000094
S31508002DF0504820203A204E2F41000000434F3220F1
S31508002E003A204E2F41000000536F696C3A204E2F2E
S31508002E104100000020436F6E6E65637469766974BD
S31508002E2079205B335D00000052656164790000001B
S31508002E3042757379000000004C6F52613A20257381
S31508002E4000000000436F6E6E6563746564000000E1
S31508002E50446973636F6E6E004E422D496F543A2073
S31508002E60257300004C6F52613A203F004E422D49AF
S31508002E706F543A203F0000002DE9F04F87B0054611
S31508002E800F4690469946A87B20B9287B10B907B00B
S31508002E90BDE8F08F95F80DA0012068734846FDF748
S31508002EA0D5FB0022214BCDE90001FDF752FBCDE908
S31508002EB00201FFF78FFCCDE90401FDF7E8FB1FFAD5
S31508002EC080FB00242CE0002625E0E21704EB527272
S31508002ED0D21006FB0B23119AD25CE31704EB53734B
S31508002EE0DB10A4EBC30C802343FA0CF31A4042B15F
S31508002EF008EB060002B2381901B2284601F0B6FA04
S31508002F0007E008EB060002B2381901B22846FFF7B7
S31508002F1015FB701C06B210988642D6DB601C04B2FC
S31508002F204C45D0DB85F80DA000BFB0E70000204077
S31508002F302DE9F04F87B004460F46A06810B907B0D0
S31508002F40BDE8F08F3946204601F072FF0646002597
S31508002F50002E07DBA068006A06EB460101EBC601F6
S31508002F6000EB8105608C00287CD0A08C002879D0E5
S31508002F70B4F91680B4F91890608B0FFA80FAA08B12
S31508002F800FFA80FB608B70B3A08B60B3E08BADF853
S31508002F901400208CADF81600608CADF81800A08CD3
S31508002FA0ADF81A00E08AADF80C00208BADF80E00DB
S31508002FB0608BADF81000A08BADF812000498009055
S31508002FC0039BDDE9051201A800F0CCF8BDF8040062
S31508002FD0E082BDF806002083BDF808006083BDF8CE
S31508002FE00A00A08308E0FFE7E08BE082208C2083BC
S31508002FF0608C6083A08CA083B4F91000B4F91E100D
S31508003000884207DBB4F91E00618C0844B4F9101035
S31508003010884201DCE08B2082A5B1B4F91000A989A9
S315080030200844B4F91E10628C114488420ADBE08B0E
S315080030302082608AA168898A0844A168098B0844A5
S3150800304000B260820D2F02D1E08B20820AE00A2F9F
S3150800305008D1608AA168898A0844A168098B08444E
S3150800306000B260826DB3A068808A0090608AD4F846
S3150800307008C0BCF818C0A0EB0C00D4F808C0BCF80F
S3150800308014C0A0EB0C0002B2AB89B4F910102046AC
S3150800309000F02BF8E98BA86ACDE90010608AB5F82C
S315080030A022C0A0EB0C00B5F81EC0A0EB0C0002B2C3
S315080030B0208AB5F820C0604401B2AB8B2046FFF7E2
S315080030C0DBFE608C48B1A08C38B1A4F81680A4F851
S315080030D01890A4F81AA0A4F81CB025B1208AA989CA
S315080030E0084400B2208200BF29E72DE9F047804650
S315080030F00D4616469946DDF820A098F80E0008B940
S31508003100BDE8F0872C460EE0374606E03A462146EB
S315080031104046FFF713FA781C07B206EB0A00B842D6
S31508003120F4DC601C04B205EB0900A042ECDC00BF2D
S31508003130E6E708B500F01AFB08B9012000E0002010
S315080031408DF8000000208DF80100BDF80010084633
S3150800315008BD000010B501F0B5FD0148006810BDB6
S31508003160280000200FB4FCB50446002500950195FB
S31508003170BDF92050BDF92860B54202DDBDF92050E1
S3150800318001E0BDF928502846BDF92050BDF8246055
S315080031903544BDF92860BDF82C703E44B54205DDBE
S315080031A0BDF92850BDF82C60354404E0BDF920501F
S315080031B0BDF82460354429B2BDF92250BDF92A600C
S315080031C0B54202DDBDF9225001E0BDF92A502A4672
S315080031D0BDF92250BDF826603544BDF92A60BDF810
S315080031E02E703E44B54205DDBDF92A50BDF82E6065
S315080031F0354404E0BDF92250BDF8266035442BB2AB
S3150800320088420DDA9A420BDAADF80000ADF80220D2
S315080032100D1AADB2ADF804509D1AADB2ADF8065010
S31508003220009D2560019D6560FCBC5DF814FB0000EF
S315080032302DE9F04101F046FD4FF0E020006920F449
S3150800324080304FF0E02108611948046800250846D7
S31508003250866905E04FF0E020866915480468002570
S315080032604FF0E020006900F480300028F2D14FF4D6
S315080032707A722146A1FB027C05FB02C204FB0025EB
S315080032803C464FF0E0214969881BFDF7DAF980468C
S31508003290084801684046FCF7D3FF0746FDF7E3F9FF
S315080032A0041945F1000520462946BDE8F0810000CD
S315080032B028000020300000202DE9F04180460F4606
S315080032C015461C4614B90020BDE8F08100BF4FF42E
S315080032D000314046FDF739FD0128F8D00121404666
S315080032E0FDF71BFD00BF41494046FDF72EFD0028AE
S315080032F0F9D03F494046FDF7FEFC47F0010140463C
S31508003300FDF7C5FD14E03949491C4046FDF71DFD8A
S31508003310012800D10DE036494046FDF716FD012883
S3150800332006D101214046FDF704FD4FF0FF30CBE7FB
S31508003330E9E700BF012C1ED100214046FDF7CFFC6E
S3150800334072B614214046FDF793FD18214046FDF755
S315080033508FFD01214046FDF7ECFC62B600BF23490C
S315080033603F314046FDF7F1FC0028F8D04046FDF70E
S315080033708AFD287038E001214046FDF7B0FC14218B
S315080033804046FDF775FD18214046FDF771FD0026FC
S3150800339011E0A01EB04200D172B600BF13493F31FA
S315080033A04046FDF7D2FC0028F8D04046FDF76BFDF5
S315080033B0A855701C86B2601EB042EADC0021404661
S315080033C0FDF78DFC01214046FDF7B3FC62B600BF50
S315080033D006493F314046FDF7B8FC0028F8D040467C
S315080033E0FDF751FD611E685400206DE701000010CD
S315080033F0000400102DE9F04180460D4616461F468A
S3150800340000BF4FF400314046FDF79FFC0128F8D075
S3150800341001214046FDF781FC00BF38494046FDF7CB
S3150800342094FC0028F9D036494046FDF764FC05F0BF
S31508003430FE014046FDF72BFD15E03049491C404684
S31508003440FDF783FC012800D10EE02D494046FDF723
S315080034507CFC012807D101214046FDF76AFC4FF0A4
S31508003460FF30BDE8F081E8E700BF14214046FDF7CC
S31508003470FFFC18214046FDF7FBFC00241DE014E084
S315080034801F494046FDF761FC012806D10121404647
S31508003490FDF74FFC6FF00100E3E718497F3140461E
S315080034A0FDF753FC012800D100E0E9E700BF315DD4
S315080034B04046FDF7ECFC601C84B2BC42DFDB14E03E
S315080034C00F494046FDF741FC012806D10121404637
S315080034D0FDF72FFC6FF00100C3E70849C91C4046F9
S315080034E0FDF733FC012800D100E0E9E700BF012120
S315080034F04046FDF71EFC0020B3E70000010000105F
S315080035000004001008B500BF01210820FDF734FDAE
S3150800351000BF00BF01210820FDF72EFD00BF00BF38
S3150800352001210820FDF728FD00BF4FF48050ADF8B3
S31508003530000048208DF8030003208DF80200694634
S315080035400E48FDF731FB4FF40050ADF80000482057
S315080035508DF8030003208DF8020069460748FDF739
S3150800356023FB4FF48040ADF8000028208DF80300B7
S3150800357069460248FDF718FB08BD0000000C01402B
S3150800358010B5FFF7BFFF10BD70B5044600254FF410
S3150800359080512D48FDF793FB08B901250FE04FF43C
S315080035A000512948FDF78BFB08B9022507E04FF4BF
S315080035B080412548FDF783FB012800D103252348D0
S315080035C0007830B101280DD0022820D0032837D141
S315080035D024E035B11E4805701E48046001201B49C9
S315080035E008702DE01B480068201A14280ED31848C6
S315080035F00078854207D116480078174908700220D6
S315080036001249087002E000201049087018E025B930
S315080036101048046003200D49087011E00D48006841
S31508003620201A14280BD33DB90B49087800210A4AF9
S315080036301170064A117070BD02200449087000BF57
S3150800364000BF0020F7E70000000C01401000002032
S3150800365018000020140000201900002010E00022A5
S315080036604FF400510748FDF733FBC820FFF728F948
S31508003670012251030348FDF72BFBC820FFF720F969
S31508003680EDE700000010014008B501211020FDF704
S3150800369073FC4FF40050ADF8000002208DF80200CC
S315080036A014208DF8030069460448FDF77DFA0122C7
S315080036B051030248FDF70CFB08BD0000001001404D
S315080036C07FB5044600200090019002900390E3B273
S315080036D0220A08A16846FEF7CBF84FF4FA720AA147
S315080036E0684600F09BF8054615B1012004B070BD88
S315080036F00020FBE741542B414444523D25303258C3
S315080037002C253032580000004F4B000070B50025BC
S315080037100BE04FF4FA7207A107A000F07FF8044601
S315080037200CB9002070BD681CC5B20A2DF1DB01205A
S31508003730F8E700004F4B00004154000010B500BFE9
S315080037400122D1030248FDF7C3FA00BF10BD0000ED
S31508003750000C014010B500BF00224FF4004102489A
S31508003760FDF7B6FA00BF10BD000C014010B54FF4C6
S3150800377080710448FDF7A3FA08B1042010BD0020A3
S31508003780FCE700000008014008B500BF012104203D
S31508003790FDF7F2FB00BF00BF01210420FDF7ECFB9B
S315080037A000BF4FF48070ADF8000048208DF8030084
S315080037B003208DF8020069460C48FDF7F5F94FF429
S315080037C00040ADF8000010208DF8030003208DF8A6
S315080037D0020069460648FDF7E7F900BF00224FF4E4
S315080037E000410348FDF774FA00BF08BD0008014010
S315080037F0000C014070B50446FFF7C6FF204600F0EE
S31508003800AFF9FFF79BFFFFF781FF0546FFF7A2FF1A
S315080038100DB1012070BD0020FCE700002DE9F04144
S3150800382005460E461446002700F040FA29460FA022
S3150800383000F0FCF906B114B90020BDE8F08110E0EB
S3150800384000F01EFA074647B131463846FCF78EFCAB
S3150800385008B10020F1E700F029FA641E0120FFF7FD
S315080038602FF8002CECD10220E7E7000025730D0A9B
S315080038700000000038B505463E4800F053FB01221B
S3150800388011463C4800F084FD00213A4800F07BFDD3
S3150800389039A00023192219460090364800F07BFD0E
S315080038A03AA00023282219460090324800F073FDFA
S315080038B031A04FF4FA733722002100902D4800F00A
S315080038C06AFD2846FFF796FF04466CB1294800F0C2
S315080038D029FB33A04FF4FA7319221E2100902548BC
S315080038E000F059FDFFF7BAFEFFF728FF0220FFF7A1
S315080038F0E7FE04461421052000F0EAF92044C4B284
S31508003900032000F0BBF82044C4B2002000F042FABD
S315080039102044C4B2002000F089F82044C4B2002034
S3150800392000F00EFA2044C4B20021072000F0D6F8B1
S315080039302044C4B2FFF70EFF6CB10E4800F0F2FA4D
S3150800394017A04FF4FA7319221E210090094800F0B7
S3150800395022FD204638BD074800F0E4FA13A04FF4CC
S31508003960FA7328221E210090024800F014FD002058
S31508003970F0E70000A00000202A2A2A2A2A2A2A2A52
S315080039802A2A2A2A2A2A2A2A2A2A2A003C3C3C3C6B
S3150800399053544D33322D4C6F52613E3E3E3E00002D
S315080039A04C6F526120657272210000004C6F5261A3
S315080039B0206F6B21000000000EB500F01FF8684666
S315080039C0FDF754FD41F61F40ADF800000020ADF8A4
S315080039D002006320ADF804000020ADF80600694631
S315080039E005480068FDF7F0FC012211460248006808
S315080039F0FDF7DEFC0EBD00004800002008B500BF3C
S31508003A0001210846FDF7A8FA00BF1C208DF8000022
S31508003A1001208DF8010000208DF8020001208DF8A4
S31508003A2003006846FDF748FA08BD00003EB504469F
S31508003A30002000900190029014B1012C02D100E000
S31508003A4000BF01E003203EBD00BF224607A168462D
S31508003A50FDF70EFF4FF4FA7207A16846FFF7DEFE80
S31508003A6005460DB10120EEE70020ECE741542B5442
S31508003A704D4F44453D2564004F4B00003EB5044676
S31508003A80002000900190029034B1012C05D0022C40
S31508003A9004D0032C04D102E000BF00BF00BF01E040
S31508003AA003203EBD00BF224607A16846FDF7E0FE9B
S31508003AB04FF4FA7208A16846FFF7B0FE05460DB145
S31508003AC00120EEE70020ECE741542B54504F5745B0
S31508003AD0523D2564000000004F4B0000FEB5044629
S31508003AE00D460020009001900290082C0DD2DFE8C8
S31508003AF004F00405060708090A0B00BF00BF00BF4B
S31508003B0000BF00BF00BF00BF01E00320FEBD00BF2D
S31508003B1025B1012D03D0022D03D101E000BF00BF5E
S31508003B2001E00320F2E700BF2B46224607A16846BC
S31508003B30FDF79EFE4FF4FA7208A16846FFF76EFE7F
S31508003B4006460EB10120E1E70020DFE741542B5578
S31508003B504152543D25642C25640000004F4B00005B
S31508003B6010B586B0044600BF01218803FDF704FAA4
S31508003B7000BF00BF01210420FDF7FEF900BF00BF0A
S31508003B8001210420FDF7F8F900BF4FF40070ADF8E5
S31508003B90140018208DF8170003208DF8160005A9C3
S31508003BA02048FDF701F84FF48060ADF814000420B2
S31508003BB08DF8170005A91B48FCF7F6FF01A8FDF7C5
S31508003BC030FE01940020ADF80800ADF80A00ADF803
S31508003BD00C000C20ADF80E000020ADF8100001A96D
S31508003BE011480068FDF7A8FD012240F225510E484C
S31508003BF00068FDF77CFD25208DF8000000208DF873
S31508003C0001008DF8020001208DF803006846FDF7D3
S31508003C1053F9012104480068FDF726FDFFF7CCFE9D
S31508003C2006B010BD000801404C0000200FB438B59E
S31508003C3005A8009080211048009B049AFDF72CFEE9
S31508003C4004B200200090002C03DA012038BC5DF88D
S31508003C5014FB802C08DB7F242246074907480068A6
S31508003C6001F001F90220F1E7A2B20349034800680E
S31508003C7001F0F9F80020E9E74A0100204C0000208D
S31508003C800948B0F880000121B1EBD03F09D10020E6
S31508003C900549B1F88010C1F30E01034A5054104685
S31508003CA070470020FCE70000C80000200748B0F86D
S31508003CB080006FF30E000549A1F880000846B0F8A9
S31508003CC0800020F40040A1F880007047C80000205A
S31508003CD07FB504460D46002000900190029003909F
S31508003CE0062C09D2DFE804F008030405060700BF1E
S31508003CF000BF00BF00BF02E0032004B070BD00BFD4
S31508003D00532D01DD0320F8E723462A4607A1684616
S31508003D10FDF7AEFD4FF4FA7208A16846FFF77EFD7F
S31508003D2006460EB10120E8E70020E6E741542B5786
S31508003D304C524154453D25642C2564004F4B0000E8
S31508003D403EB50446002000900190029014B1012C63
S31508003D5002D100E000BF01E003203EBD00BF2246BD
S31508003D6007A16846FDF784FD4FF4FA7208A1684674
S31508003D70FFF754FD05460DB10120EEE70020ECE7FC
S31508003D8041542B574C54494D453D256400000000CD
S31508003D904F4B00003EB5044600200090019002906B
S31508003DA034B1012C05D0022C04D0032C04D102E036
S31508003DB000BF00BF00BF01E003203EBD00BF224692
S31508003DC007A16846FDF754FD4FF4FA7208A1684644
S31508003DD0FFF724FD05460DB10120EEE70020ECE7CC
S31508003DE041542B43574D4F44453D25640000000080
S31508003DF04F4B00008AB000F04DFF00F0CDFF4FF4A6
S31508003E007A73032201210846FEF774FCFEF7E6F9E9
S31508003E104FF47A73032201210846FEF76BFC202132
S31508003E2002A8FCF798F9002001900026002700BF99
S31508003E3000BF40E0FFF78EF904462046FFF7A4FBD3
S31508003E408046A01BB0F57A7F0DD32646FEF7ECF91F
S31508003E5030B902A8FEF70EFA01208DF8240002E018
S31508003E6000208DF82400E01B41F28831884218D3DF
S31508003E7027469DF82400A0B102A800F099FF054640
S31508003E8035B9C823012211461046FEF733FC07E070
S31508003E90042D05D1C823042201210846FEF72AFC71
S31508003EA000BFFFF746F90190424601A902A8FEF7AE
S31508003EB02DFD30BF00BFBDE7F0B50B30154D20F026
S31508003EC007010024144A0FE003688B420BD38B4288
S31508003ED005D95E1A43184768C3E9006700E04368D6
S31508003EE0136002C004E0021D10680028ECD12046C9
S31508003EF0002802D1286808B10020F0BD064A074804
S31508003F001060074A121A22F00702C0E900240120AD
S31508003F102860D7E75C0000205800002054040020E1
S31508003F205014002010B504464FF480616068FCF711
S31508003F3012F910BD10B500231A46AE21014800F04B
S31508003F40E9F910BDA000002010B500231A46AF21DC
S31508003F50014800F0DFF910BDA00000202DE9F05F50
S31508003F6082460E46002700BF3846791C8FB2355C5C
S31508003F7005B988E005F0800028B9AB465946504691
S31508003F80FEF7D6FFF0E705F0E000C02814D105F0EB
S31508003F901F053846791C8FB2345C1CB104F0C0008A
S31508003FA0802800D06FE004F03F0444EA851B594698
S31508003FB05046FEF7BDFFD7E705F0F000E02826D10A
S31508003FC005F00F053846791C8FB2345C1CB104F035
S31508003FD0C000802800D056E004F03F043846791C1B
S31508003FE08FB216F80080B8F1000F03D008F0C000B1
S31508003FF0802800D047E008F03F08280340EA8410EC
S3150800400040EA080B59465046FEF792FFACE705F022
S31508004010F800F028A8D105F007053846791C8FB2B4
S31508004020345C1CB104F0C000802800D02BE004F0FA
S315080040303F043846791C8FB216F80080B8F1000F95
S3150800404003D008F0C000802800D01CE008F03F0824
S315080040503846791C8FB216F80090B9F1000F03D0D4
S3150800406009F0C000802800D00DE009F03F09A80437
S3150800407040EA043040EA841040EA090B59465046A3
S31508004080FEF756FF70E700BFBDE8F09F38B5044657
S315080040900D462868206040F20140FFF70DFF60607A
S315080040A0606810B96FF0010038BD6068401C606038
S315080040B04FF480616068FCF74EF800231A46AE217B
S315080040C0204600F027F910B14FF0FF30ECE78020CA
S315080040D0009001236A46D521204600F01BF910B14D
S315080040E04FF0FF30E0E73F20009001236A46A82101
S315080040F0204600F00FF910B14FF0FF30D4E700204A
S31508004100009001236A46D321204600F003F910B136
S315080041104FF0FF30C8E700231A464021204600F03A
S31508004120F9F810B14FF0FF30BEE7142000900123D4
S315080041306A468D21204600F0EDF810B14FF0FF30A9
S31508004140B2E70020009001236A462021204600F0AD
S31508004150E1F810B14FF0FF30A6E700231A46A12177
S31508004160204600F0D7F810B14FF0FF309CE7002347
S315080041701A46C821204600F0CDF810B14FF0FF309E
S3150800418092E71220009001236A46DA21204600F0C1
S31508004190C1F810B14FF0FF3086E7CF200090012319
S315080041A06A468121204600F0B5F810B14FF0FF307D
S315080041B07AE7F120009001236A46D921204600F0CB
S315080041C0A9F810B14FF0FF306EE7202000900123C8
S315080041D06A46DB21204600F09DF810B14FF0FF300B
S315080041E062E700231A462E21204600F093F810B104
S315080041F04FF0FF3058E700231A46A421204600F066
S3150800420089F810B14FF0FF304EE700231A46A62171
S31508004210204600F07FF810B14FF0FF3044E7002346
S315080042201A46AF21204600F075F810B14FF0FF305E
S315080042303AE70120607320730020A0732082608211
S31508004240A082E08320846084A0840248A0600020C5
S315080042502AE70000B862000808B500F003FC034826
S31508004260009069460248FFF711FF08BDF54B0008A4
S31508004270A00000200FB410B592B0044616A801900D
S3150800428002A8019A1599FDF71DFB0020019002A9C5
S315080042902046FFF763FE12B010BC5DF814FB38B574
S315080042A0044600208DF8000001236A462021204696
S315080042B000F030F810B14FF0FF3038BD00208DF80F
S315080042C000007F208DF8010002236A46212120463E
S315080042D000F020F810B14FF0FF30EEE700208DF81F
S315080042E0000007208DF8010002236A462221204695
S315080042F000F010F810B14FF0FF30DEE74FF480629F
S315080043002046616800F027F810B14FF0FF30D4E777
S315080043100020D2E72DE9FC4105460E461746984689
S3150800432000208DF800008DF80160002405E0395D55
S31508004330A01C0DF80010601CC4B24445F7DBA21C93
S31508004340694678202B68984718B14FF0FF30BDE8CA
S31508004350FC810020FBE72DE9F04105460C46164690
S31508004360002714F8018C402004F8010C701C82B256
S31508004370611E78202B68984700B17F1E04F8018CCF
S315080043803846BDE8F08181737047018242827047E2
S31508004390017342737047F0B591B005460E4617464D
S315080043A01C463A4631462846FFF7EFFF17A8009005
S315080043B001A8009A1699FDF785FA0020009001A930
S315080043C02846FFF7CBFD2846FFF769FF2046FEF78C
S315080043D077FA11B0F0BD00002DE9F04796B0044613
S315080043E089469246207F18B9002016B0BDE8F087A6
S315080043F06069FCF765F905460E462069FCF760F921
S3150800440007468846E068FCF75BF9CDE91401A06821
S31508004410FCF756F9CDE912016068FCF751F9CDE9C8
S3150800442010012068FCF74CF9CDE90E01A069CDE929
S315080044300878CDE90A560C90DDE91401CDE90601A4
S31508004440DDE91201CDE90401DDE91001CDE902013A
S31508004450DDE90E01044ACDE9000151464846FDF75B
S31508004460EFF980B2C1E70000186300082DE9FC5F88
S3150800447004468A469346207B08B9BDE8FC9F607BC4
S3150800448000B9FAE7607B00EBD0714910A0EB410157
S3150800449039B1607B00EBD0714D102E462F46A846E9
S315080044A00CE0607B00EBD0714D102E462F46A846D7
S315080044B0A8F101001FFA80F8781E87B2A07B019048
S315080044C0207BA073AAEB08000FFA80F916E0ABEB85
S315080044D0070000B2009008E049462046009AFEF719
S315080044E02DF80098401C00B200900BEB06010098CE
S315080044F08142F1DA09F101000FFA80F90AEB0500A9
S315080045004845E4DA0198A07300BFB6E770B50446DB
S315080045100D462946204600F0F3F970BD10B504464D
S315080045202046FDF77DFF10BD10B50446204600F075
S31508004530F7F810BD7CB504460D462148FFF7F2FC96
S3150800454020A000231922194600901D48FFF723FFD3
S3150800455021A0002328221946CDE900041848FFF7B0
S315080045601AFF18A04FF4FA73372200210090144856
S31508004570FFF711FF1248FFF7D5FCA847064666B9AC
S315080045800F48FFF7CFFC18A0002328221E21CDE9EB
S3150800459000040B48FFF7FFFE0DE00948FFF7C2FCD1
S315080045A013A0002328221E21CDE900040448FFF7A2
S315080045B0F2FE00BFFEE74FF47A70FEF781F97CBD84
S315080045C0A00000202A2A2A2A2A2A2A2A2A2A2A2A25
S315080045D02A2A2A2A2A2A2A003C3C3C3C20202573DF
S315080045E020203E3E3E3E00002573204F4B21000012
S315080045F0257320457272210010B586B000BF0121CF
S315080046000420FCF7B9FC00BF0220ADF81400002016
S315080046108DF8170005A92948FCF7C6FA00BF01213D
S315080046204802FCF7A9FC00BF4FF40040FCF788FCE1
S315080046300020009003904FF46020029000208DF82F
S3150800464005008DF8040001208DF8100069461C4805
S315080046500068FCF7F3F9012119480068FCF7C2F96C
S3150800466017480068FCF76EFA42F2107408E0601EFC
S31508004670041E02D1012006B010BD0A20FEF732F949
S315080046800F480068FCF7D0F90128F0D00C480068FC
S31508004690FCF768FA42F2107407E0601E041E01D1A6
S315080046A00120E8E70A20FEF71DF905480068FCF72F
S315080046B0A4F90128F1D00020DDE700000008014038
S315080046C01C00002070B504460CB9012070BD0723F4
S315080046D00122114611480068FCF7D8F901210F4854
S315080046E00068FCF734FA42F2107508E0681E051EE9
S315080046F002D120800120E9E70A20FEF7F3F802211B
S3150800470006480068FCF787F90028EFD003480068D8
S31508004710FCF77DF920800020D8E700001C00002067
S315080047202DE9F84304464FF07C57DFF8708014B93A
S315080047300120BDE8F8836846FFF7C4FF08B10120E9
S31508004740F7E7BDF80000FBF77CFF81461449FBF745
S3150800475077FD06464FF08B41FBF7A4FD05464FF063
S315080047607C512846FBF766FD81460E49FBF79AFD04
S3150800477006460D49FBF764FD206000212068FBF71B
S31508004780CFFF01D20020206007492068FBF7D2FF3F
S3150800479001D2054820600020CBE700000000404019
S315080047A033335340000020400000C84210B5FFF7DD
S315080047B023FF08B1012010BD0020FCE730B50246F2
S315080047C00B46FF20002113E0555C684008240BE0E7
S315080047D000F0800525B1312585EA4005E8B201E0FB
S315080047E04506280E651EECB2002CF1DC4D1CE9B21C
S315080047F09942E9DB30BD000010B586B0044600BF1B
S3150800480001210820FCF7B8FB00BF00BF01210820E2
S31508004810FCF7B2FB00BF00BF01218805FCF79CFB33
S3150800482000BF4FF48060ADF814001C208DF8170007
S3150800483003208DF8160005A91548FCF7B5F94FF4BD
S315080048400060ADF8140005A91148FCF7ADF901A8F8
S31508004850FCF71FFB0020ADF808004BF6FF70ADF81B
S315080048600A000020ADF80C004FF48060ADF80E0089
S315080048700001ADF81000019401A906480068FCF78C
S3150800488081FA012103480068FCF73BFA06B010BD1F
S31508004890000C01402400002070B504460D462B4646
S315080048A02246882104480068FEF706FD08B1012063
S315080048B070BD0020FCE700002400002038B504463F
S315080048C0200A8DF80000E0B28DF8010002236A463E
S315080048D0882104480068FEF78DFD08B1012038BD1F
S315080048E00020FCE72400002010B50448FFF784FFE9
S315080048F00A20FDF7E5FF002010BD0000A086010094
S315080049002DE9FC4704460D46694601A800F02EF835
S31508004910064616B13046BDE8FC87BDF90400FBF72C
S3150800492087FE81460D49FBF7BDFC80460C49FBF71F
S3150800493087FC07460B49FBF72BFC2060BDF80000F7
S31508004940FBF77FFE80460549FBF7ACFC07460649A0
S31508004950FBF776FC28600020DDE7000000FF7F47B4
S3150800496000002F43000034C20000C8427CB505464B
S315080049700E461D480088FFF7A1FF08B101207CBD3F
S315080049801A480088FDF79CFF06216846FFF784FF52
S3150800499008B10120F3E702216846FFF70FFF044636
S315080049A09DF80200A04201D00320E8E702210DF19C
S315080049B00300FFF703FF04469DF80500A04201D057
S315080049C00320DCE79DF801009DF8001040EA01206D
S315080049D000B228809DF804009DF8031040EA0120E3
S315080049E030800020CBE700002000002022000020B5
S315080049F008B500BF01210820FCF7BEFA00BF00BFBA
S31508004A00012211021648FCF763F900BF00BF012214
S31508004A1051021348FCF75CF900BF00BF01210820CA
S31508004A20FCF7AAFA00BF4FF48070ADF80000142016
S31508004A308DF8030002208DF8020069460848FCF745
S31508004A40B3F84FF40070ADF8000014208DF8030099
S31508004A5002208DF8020069460148FCF7A5F808BD52
S31508004A60000C014010B5FFF7C3FF10BD70B5054631
S31508004A7007242CE000BF00224FF480712648FCF77B
S31508004A8027F900BF00BF0120A040284008B1012037
S31508004A9000E0002028B1012251021F48FCF718F94E
S31508004AA005E000224FF400711B48FCF711F900BF1E
S31508004AB00220FDF7FDFE00BF012211021648FCF791
S31508004AC007F900BF0220FDF7F3FE601E44B2002C72
S31508004AD0D0DA00BF00224FF480710F48FCF7F8F8CF
S31508004AE000BF00BF012251020B48FCF7F1F800BFD6
S31508004AF00220FDF7DDFE00BF012211020648FCF781
S31508004B00E7F800BF0220FDF7D3FE4FF40071024814
S31508004B10FCF7D5F870BD0000000C01402DE9F04106
S31508004B2005460E46174600BF012251021948FCF7F2
S31508004B30CFF800BF00BF012211021648FCF7C8F8DB
S31508004B4000BF00BF00224FF400711248FCF7C0F8FE
S31508004B5000BF0120FDF7ACFE05F0FE00FFF786FF5B
S31508004B6028B100F019F84FF0FF30BDE8F0810024B5
S31508004B700AE0305DFFF77AFF20B100F00DF86FF01C
S31508004B800100F2E7601C84B2BC42F2DB00F004F8D4
S31508004B900020EAE7000C014010B500BF00224FF4E0
S31508004BA080711348FCF794F800BF0120FDF780FEDA
S31508004BB000BF00224FF400710D48FCF789F800BFCA
S31508004BC00120FDF775FE00BF012211020848FCF717
S31508004BD07FF800BF0120FDF76BFE00BF01225102DE
S31508004BE00348FCF775F800BF0120FDF761FE10BD0C
S31508004BF0000C014070B504460D4616463246294655
S31508004C002046FFF78BFF70BD10B590B004463C22D6
S31508004C101F4901A8FBF786FA022C01D3102C01D9EB
S31508004C2000BFFEE74FF48030FCF752FA00BF312090
S31508004C30FCF71CFA0028FAD01020FBF79BFF02208D
S31508004C40FBF7A6FF0020FCF737FA4FF48060FCF765
S31508004C5065FA0020FCF76EFAA01E01AA52F8201089
S31508004C604FF48030FCF778FA0120FCF76FFA00BFA2
S31508004C703920FCF7FBF90028FAD00220FCF77AFA6B
S31508004C8000BFFCF711FA0828FBD110B010BD0000D0
S31508004C90DC62000810B54FF4A060FCF745F909205E
S31508004CA0FFF7B2FF00F00EF8FFF7D6FAFEF7ECFCB6
S31508004CB0FDF764FDFEF764FC002211461046FDF779
S31508004CC025FE10BD2DE9F04186B02E480078002853
S31508004CD055D101202B490870142101A8FBF73BFA8E
S31508004CE04FF0E020006920F001004FF0E021086154
S31508004CF000202549086001A8FCF74EF94FF0E0208E
S31508004D00006940F002004FF0E021086100211F48C9
S31508004D10C1774FF47A710298B0FBF1F4B4F1807F51
S31508004D2009D3E4084FF0E020006920F004004FF0B2
S31508004D30E021086107E04FF0E020006940F0040038
S31508004D404FF0E0210861601E4FF0E02148610846F7
S31508004D50006940F001000861496921F07F41481C5B
S31508004D60FBF774FC07463A460B4600200849FBF752
S31508004D70F0FB0546FBF7B7FC0649086000BF06B01E
S31508004D80BDE8F0812C0000202800002000ED00E09E
S31508004D9000408F403000002010B54FF4E130FEF798
S31508004DA069FD0248FFF7BEF810BD0000A00000200C
S31508004DB02DE9F041C0B00746387F18B9032040B046
S31508004DC0BDE8F0814FF4807269463846FFF704FB68
S31508004DD005460DB90120F2E7FEF7C8FC042801D103
S31508004DE0022413E0694610A0FEF720FF8046B8F1BA
S31508004DF0000F03D0B8F1020F04D101E0002403E04C
S31508004E00042401E0012400BF00BF00BF012604B14D
S31508004E100EB90020D3E7022C03D1022E01D10220BD
S31508004E20CDE70120CBE7000025730D0A000000003E
S31508004E3010B502460B464FF0FF34906808B9204675
S31508004E4010BD002108E09068C06950F8210098421A
S31508004E5001D10CB204E0491C9068408B8842F2D814
S31508004E6000BF2046ECE72DE9F04107460E461446FA
S31508004E700CB9BDE8F08100250CE000BF802138465A
S31508004E80FCF7FEFB0028F9D0715D3846FCF7C5FC37
S31508004E90681C85B2A542F0DB00BF40213846FCF706
S31508004EA0EFFB0028F9D000BFE3E700000080808010
S31508004EB080800080A0A0A05050F850F8505020786C
S31508004EC0A05008D0C0C81020409818E090A040A86C
S31508004ED09068C0408020408080804020804020200C
S31508004EE02040805020F820502020F82020C0408004
S31508004EF0F8C0C00810204080708898A8C8887040FC
S31508004F00C040404040E0708808102040F8F8102063
S31508004F101008887010305090F81010F880F00808C3
S31508004F208870304080F0888870F80810204040402B
S31508004F307088887088887070888878081060C0C003
S31508004F4000C0C0C0C000C040801020408040201073
S31508004F50F800F88040201020408070880810200053
S31508004F602070880868A8A87070888888F88888F0EB
S31508004F708888F08888F070888080808870E09088BB
S31508004F80888890E0F88080F08080F8F88080E0805B
S31508004F90808070888080988870888888F888888853
S31508004FA0C04040404040C0301010101090608890BB
S31508004FB0A0C0A09088808080808080F888D8A88843
S31508004FC08888888888C8A8988888708888888888FB
S31508004FD070F08888F080808070888888A89068F04B
S31508004FE08888F0A09088788080700808F0F82020DB
S31508004FF020202020888888888888708888888888DB
S315080050005020888888A8A8D88888885020508888FA
S3150800501088885020202020F80810204080F8E0805A
S3150800502080808080E08040201008E020202020201A
S31508005030E0205088F880402070087888788080B012
S31508005040C88888F07080808870080868988888788A
S315080050507088F88070304840E0404040788878088A
S31508005060308080B0C88888884000C0404040E01042
S31508005070003010109060808090A0C0A090C0404082
S31508005080404040E0D0A8A88888B0C888888870883A
S31508005090888870F088F08080689878080808B0C812
S315080050A080808070807008704040E04040483088BA
S315080050B0888888986888888850208888A8A850880A
S315080050C0502050888888780870F8102040F82040CA
S315080050D040804040208080808080808080404020C2
S315080050E040408040A8100000200000002100000079
S315080050F02200000023000000240000002500000014
S3150800510026000000270000002800000029000000F3
S315080051102A0000002B0000002C0000002D000000D3
S315080051202E0000002F0000003000000031000000B3
S315080051303200000033000000340000003500000093
S315080051403600000037000000380000003900000073
S315080051503A0000003B0000003C0000003D00000053
S315080051603E0000003F000000400000004100000033
S315080051704200000043000000440000004500000013
S3150800518046000000470000004800000049000000F3
S315080051904A0000004B0000004C0000004D000000D3
S315080051A04E0000004F0000005000000051000000B3
S315080051B05200000053000000540000005500000093
S315080051C05600000057000000580000005900000073
S315080051D05A0000005B0000005C0000005D00000053
S315080051E05E0000005F000000600000006100000033
S315080051F06200000063000000640000006500000013
S3150800520066000000670000006800000069000000F2
S315080052106A0000006B0000006C0000006D000000D2
S315080052206E0000006F0000007000000071000000B2
S315080052307200000073000000740000007500000092
S315080052407600000077000000780000007900000072
S315080052507A0000007B0000007C0000007D00000052
S315080052607E0000007463000820000000E8030000C8
S315080052700700000000000000000000000000000019
S31508005280000000000000000000000000AC4E00080E
S31508005290A863000821000000E803000007000000DA
S315080052A000000000000000000000000001000700E8
S315080052B00300010007000000AD4E0008D86300088F
S315080052C022000000E80300000700000000000000BC
S315080052D000000000000000000300030002000400B4
S315080052E003000000B44E000808640008230000000C
S315080052F0E8030000070000000000000000000000AE
S31508005300000000000500070001000100070000007A
S31508005310B74E00083864000824000000E8030000BF
S315080053200700000000000000000000000000000068
S31508005330050006000100020006000000BE4E000837
S315080053406864000825000000E80300000700000064
S315080053500000000000000000000000000500070033
S315080053600100010007000000C44E00089864000808
S3150800537026000000E8030000070000000000000007
S315080053800000000000000000050007000100010001
S3150800539007000000CB4E0008C8640008270000007C
S315080053A0E8030000070000000000000000000000FD
S315080053B000000000020003000200050003000000D0
S315080053C0D24E0008F864000828000000E803000030
S315080053D007000000000000000000000000000000B8
S315080053E0030007000200010007000000D54E000870
S315080053F03465000829000000E803000007000000E3
S315080054000000000000000000000000000300070084
S315080054100200010007000000DC4E00086465000871
S315080054202A000000E8030000070000000000000052
S315080054300000000000000000050005000100020051
S3150800544005000000E34E0008946500082B000000E4
S31508005450E80300000700000000000000000000004C
S31508005460000000000500050001000200050000001C
S31508005470E84E0008C46500082C000000E803000098
S315080054800700000000000000000000000000000007
S31508005490020003000200010003000000ED4E0008B0
S315080054A0F46500082D000000E8030000070000006E
S315080054B000000000000000000000000005000100D8
S315080054C00100040001000000F04E000824660008F0
S315080054D02E000000E803000007000000000000009E
S315080054E000000000000000000200020002000100A7
S315080054F002000000F14E0008546600082F00000064
S31508005500E80300000700000000000000000000009B
