S315080000007824002001010008470F00083F0F000868
S31508000010430F0008D10D00085F1B00080000000010
S315080000200000000000000000000000004512000863
S31508000030D50D000800000000CD0F00083113000898
S315080000401B0100081B0100081B0100081B01000812
S315080000501B0100081B0100081B0100081B01000802
S315080000601B0100081B0100081B0100081B010008F2
S315080000701B0100081B0100081B0100081B010008E2
S315080000801B0100081B0100081B0100081B010008D2
S315080000901B0100081B0100081B0100081B010008C2
S315080000A01B010008A91300081B0100081B01000812
S315080000B0E9130008291400081B0100081B010008A1
S315080000C01B0100081B0100081B0100081B01000892
S315080000D01B0100087915000855160008E5170008E1
S315080000E01B0100081B0100081B010008DFF80CD0E3
S315080000F000F0ACFC004800478D2C0008782400204E
S315080001000648804706480047FEE7FEE7FEE7FEE7A3
S31508000110FEE7FEE7FEE7FEE7FEE7FEE7491300080F
S31508000120ED00000840EA01039B0703D009E008C96F
S31508000130121F08C0042AFAD203E011F8013B00F89E
S31508000140013B521EF9D27047D2B201E000F8012BEA
S31508000150491EFBD270470022F6E710B513460A4639
S3150800016004461946FFF7F0FF204610BD30B5054690
S315080001702A460B4612F8010B13F8014B08B1A042A8
S31508000180F8D01CB1002802D06D1CF1E7284630BD16
S31508000190421C10F8011B0029FBD1801A7047000089
S315080001A00FB400B58DB010A909900B9000914FF0CF
S315080001B0FF300A9000200C900548069005480790E5
S315080001C06A4609A80F9900F04FFB0DB05DF814FBBD
S315080001D085080008A30800082DE9FF5F1D464FF0B3
S315080001E0FF3BD5E9014691465F464FF00008A969ED
S315080001F07F1C01988847296A824688470028F6D1D5
S31508000200BAF1FF3F0CD024F4C064002E19DD600655
S3150800021014D5BAF12B0F09D0BAF12D0F0ED103E080
S31508000220584604B0BDE8F09F44F48064A9697F1C71
S3150800023001988847761E8246002E02DDBAF1300FF5
S3150800024003D0B9F1000F26D032E0A969761E44F42E
S3150800025000747F1C019888478246002E05DDBAF196
S31508000260780F06D0BAF1580F03D0B9F1000F10D0A5
S315080002701EE0B9F1000F02D0B9F1100F18D1A96923
S31508000280761E24F400747F1C019888478246102045
S3150800029002E0082000E00A20814609E008FB090878
S315080002A0A969761E44F400747F1C01988847824623
S315080002B0002E05DD4946504600F0C1FA0028EDDA61
S315080002C0E96901988847A00502D46FF00100A8E7FC
S315080002D0E00725D1600613D5600502D5C8F10000F0
S315080002E000E0404629680A1D2A600968220501D5EA
S315080002F0087015E0220701D5088011E008600FE0B4
S315080003002868011D29600068210502D580F800804B
S3150800031006E0210702D5A0F8008001E0C0F80080B9
S3150800032038467EE780EA010210B502F00043400035
S3150800033022D04A001FD0010E01EB1261C0F356000D
S31508000340C2F3560240F4000042F40002A0FB022069
S3150800035000047F39140400D0401C50EA124001D42E
S315080003604000491EC2B20C0604EBD010401C4008DF
S31508000370802A02D003E0002010BD20F001000029E9
S3150800038000DA0020184310BD2DE9FE4F804681EAA9
S315080003900300C00F0C46009021F0004123F00045F1
S315080003A0B8EB0200A94105D24046214690461C46B4
S315080003B00B46024623F00040104347D0270DC7F3EB
S315080003C00A00C3F30A510290401A019040286BDADA
S315080003D0C3F3130040F4801B0098924620B1002313
S315080003E0D2EB030A63EB0B0B01985946C0F14002A6
S315080003F0504600F0F3F906460D4650465946019A0E
S3150800040000F00BFA10EB08006141002487EA11524C
S3150800041084EAE7731A4340D0009A62B3019A012A24
S315080004204FEA075215DC001B61EB02014FF0004250
S3150800043002EA0752CDE90042001C41F58011324616
S315080004402B4600F085FA03B0BDE8F08F40462146FA
S31508000450F9E7001B61EB0201001C41F58013001847
S315080004605B412018A2F5001747EB030140EAD57057
S31508000470B6196D4111E06D084FEA360645EAC075B2
S315080004804FEA0752001B61EB0201001C41F580117F
S3150800049049084FEA30000019514132462B4603B04D
S315080004A0BDE8F04F00F045BA00980122400000234D
S315080004B0D0EB020263EBE073009821464FEAE07442
S315080004C0B8EB000061EB0401E9E783F000435BE762
S315080004D081F0004158E72DE9FE4F81EA030404F054
S315080004E0004421F0004100944FF0000B23F0004334
S315080004F050EA01045ED052EA03045BD0C3F30A54FF
S31508000500C1F30A552C44A4F2F3340194A0FB025417
S31508000510C1F3130141F48011C3F3130343F48013A9
S3150800052001FB024400FB034E840A970A44EA8154FD
S3150800053047EA8357A4FB076802958D0A05FB0785DA
S315080005404FEA932C04FB0C542705029D4FEA0658E4
S3150800055047EA1637B5EB08056EEB070C870E920EC1
S3150800056047EA811742EA8312A7FB0201B6EB0B01A1
S3150800057064EB00042B0D43EA0C335E1844EB1C5065
S31508000580DA465146E7FB0201C5F313044FEA0B337B
S3150800059043EA14534FEA0432019C43EA0603A4F1E2
S315080005A00C040294009CCDE900B400F0D1F903B024
S315080005B0BDE8F08F00200146F9E72DE9F04D81EA04
S315080005C0030404F0004B21F0004514464FF0000ADE
S315080005D023F0004150EA050220D054EA01021DD05A
S315080005E0C5F30A570246C5F31303C1F31300C1F353
S315080005F00A5640F4801543F48013A7EB0608101B2F
S31508000600D64608F2FD3873EB050002D308F1010857
S3150800061001E092185B41B8F1000F03DA00200146A9
S31508000620BDE8F08D00204FF48011064684460EE0A2
S31508000630171B73EB050705D3121B63EB050306436C
S315080006404CEA010C49084FEA300092185B4150EA1F
S315080006500107EDD152EA030012D082EA040083EAC8
S315080006600501084305D0101BAB4106D20122002321
S3150800067006E000224FF0004302E06FF0010253103B
S315080006801AEB06004CEB085110EB0A0041EB0B0184
S31508000690BDE8F04D00F04DB996230022114600F052
S315080006A01AB90EB540F2334102910021CDE9001185
S315080006B00A460B4600F04CF903B000BD20F0004096
S315080006C0C10DC0F3160040F400007F2901DA0020AE
S315080006D07047962903DCC1F19601C84070479639E0
S315080006E088407047C1F30A5210B5C1F3130140F2AE
S315080006F0FF3341F480119A4201DA002010BD40F21E
S3150800070033439A42A2F2334203DC524200F075F8B0
S3150800071010BD904010BD01F0004330B421F00041F7
S3150800072050EA010206D00A0DA2F56072C1F3130160
S31508000730002A02DC30BC00207047440F44EAC1049A
S31508000740C100E01830BC00EBC25000F0BBB830B5B1
S315080007500B46014600202022012409E021FA02F571
S315080007609D4205D303FA02F5491B04FA02F528440B
S31508000770151EA2F10102F1DC30BD2DE9F05F054638
S31508000780002092469B4688460646814640241BE042
S31508000790284641464746224600F02FF853465A4611
S315080007A0C01A914110D311461846224600F016F891
S315080007B02D1A67EB01084F4622460120002100F05A
S315080007C00DF817EB00094E41201EA4F10104DFDCE9
S315080007D0484631462A464346BDE8F09F202A04DBB0
S315080007E0203A00FA02F1002070479140C2F1200336
S315080007F020FA03F3194390407047202A04DB203A75
S3150800080021FA02F00021704721FA02F3D040C2F122
S3150800081020029140084319467047202A06DBCB1769
S31508000820203A41FA02F043EAE07306E041FA02F39D
S31508000830D040C2F1200291400843194670473A2831
S3150800084000D2303820F02002412A01D3A2F1370025
S31508000850884201D34FF0FF30704700000268114408
S315080008601378016018467047D160044951610449FC
S31508000870116200211161114600F000B95D080008F7
S31508000880710A0008426842B1016811F8013B23B1B8
S31508000890521EC0E90012184670470121C160881E21
S315080008A0704742685AB1C368016843B983688B4286
S315080008B005D0491E521CC0E90012002070474FF0AF
S315080008C0FF3070470029A8BF7047401C490008BF81
S315080008D020F00100704710B4B0FA80FC00FA0CF062
S315080008E050EA010404BF10BC704749B1CCF120049A
S315080008F021FA04F411FA0CF118BF01212143084327
S31508000900A3EB0C01CB1D4FEA00614FEA102042BF52
S31508000910002010BC704700EBC35010440029A4BF48
S3150800092010BC7047401C490008BF20F0010010BCED
S31508000930704710B5141E73F1000408DA401C41F123
S31508000940000192185B411A4301D120F0010010BD45
S315080009502DE9F04D92469B4611B1B1FA81F202E0BB
S31508000960B0FA80F220329046FFF738FF04460F4669
S3150800097040EA0A0041EA0B0153465A46084313D097
S31508000980114653EA010019D0C8F140025046FFF754
S3150800099034FF05460E46504659464246FFF71EFFA7
S315080009A0084305D0012004E020463946BDE8F08D0D
S315080009B00020054346EAE0762C4337430A98630548
S315080009C0E40AA0EB08000022FD0A44EA47540A306C
S315080009D002D500200146E9E7010510196941DDE95C
S315080009E0084500196941BDE8F04DA2E7C1F30A526E
S315080009F0C1F3130140F2FF3341F480119A4202DA3F
S31508000A0000200146704740F233439A42A2F233422D
S31508000A1002DC5242FFF7F1BEFFF7E0BE30B5041E16
S31508000A2071F1000404DB4FF00044404264EB01011D
S31508000A30141E73F1000405DB1C464FF000435242B6
S31508000A4063EB0403994208BF904230BD064C074D3C
S31508000A5006E0E06840F0010394E807009847103480
S31508000A60AC42F6D3FFF746FBFC5B00081C5C0008AB
S31508000A70C0B24FF4F05100F097B900002DE9F34FDA
S31508000A808BB04FF0000801F10C000C464FF0010B3B
S31508000A9046460DF1080A01906269012101989047BE
S31508000AA0051E2DD0252D2CD0216A8847C0B1626934
S31508000AB0012101989047216A88470028F7D1411EED
S31508000AC062690198904700E0761CA1690B988847EF
S31508000AD0216A88470028F7D1E1690B988847DBE740
S31508000AE0A1690B9888470746A84201D1761CD3E727
S31508000AF0E1690B9888477F1C02D1B8F1000F6FD0C7
S31508000B0046E1002762693D463946019890472A28FA
S31508000B1004D162690121019890470125DFF8849282
S31508000B206269012101989047A0F130010A290AD289
S31508000B304F45E5DC07EB870100EB4107303FDFD483
S31508000B4045F01005ECE7E90601D46FF000476C287C
S31508000B500AD04C2814D0682815D06A280DD07428D5
S31508000B601CD07A281AD01DE06269012101989047A5
S31508000B706C2802D045F0040514E045F002050DE0A6
S31508000B8045F020050AE06269012101989047682826
S31508000B9002D045F0080505E045F4006562690121C3
S31508000BA001989047C4E9015765283DD019DC5828B3
S31508000BB07AD00CDC452837D004DC252826D04128F5
S31508000BC031D131E046282FD047282CD12CE05B289C
S31508000BD077D0612828D063287CD0642823D15AE0AE
S31508000BE0D0E06F2848D008DC66281DD067281BD0BF
S31508000BF0692821D06E2816D127E0702845D0732899
S31508000C0068D0752847D078280DD14DE0A1690B9892
S31508000C108847054625283FF469AFE1690B98884758
S31508000C206D1C3FF46AAFB3E023466A466FF00100D5
S31508000C300B99AFF300809EE045F040006060A8077E
S31508000C4023464FF0000236D43EE0E8077FF447AF6C
S31508000C502068011D21600068290501D506701BE77B
S31508000C60290701D5068017E7A90703D5F117C0E9B3
S31508000C70006111E706600FE745F040006060A807CD
S31508000C8023464FF0080216D41EE040F60E0125EA68
S31508000C900100606016E045F040006060A807234642
S31508000CA04FF00A0207D40FE045F040006060A8073D
S31508000CB008D5234610226FF001000B99AFF3008088
S31508000CC059E007E0234610226FF001000B99FFF761
S31508000CD083FA50E04FF000094F464B46632802D08E
S31508000CE05B2806D040E0E80601D40120A060012771
S31508000CF03AE062690121019890475E2805D14FF0D4
S31508000D0001096269494601989047216939B9002164
S31508000D100A46534643F82120491C0829FADBB0B392
S31508000D20216969B9C11700EBD16253110AEB830136
S31508000D3022F01F02821A01200B68904003430B60C1
S31508000D4062690121019890475D28E8D1B9F1000F41
S31508000D5009D00020514651F82020D24341F82020DE
S31508000D60401C0828F7DB02AB224600976FF001000B
S31508000D700B99AFF3008000280CDA401C08D1BBF1B0
S31508000D80000F05D04FF0FF300DB0BDE8F08FFFE73C
S31508000D904046F9E7E90701D108F1010806444FF092
S31508000DA0000B79E6CCCCCC0C7F2801D9002208E0D0
S31508000DB0064A02EB5002C007127800D1120902F067
S31508000DC00F02012090400840704700006058000854
S31508000DD000BFFEE7704700000549096821F01001C9
S31508000DE0034A116011460968014311607047000003
S31508000DF00020024001460020034A106800F038002F
S31508000E000843106070470000002002402DE9F041B9
S31508000E10024600250026002000230024002791F81A
S31508000E2003C00CF00F0591F803C00CF0100CBCF1D0
S31508000E30000F03D091F802C04CEA050591F800C0EE
S31508000E40BCF1000F31D0146800202BE04FF0010CE4
S31508000E500CFA00F3B1F800C00CEA03069E4220D152
S31508000E6083004FF00F0C0CFA03F7BC4305FA03FC9A
S31508000E704CEA040491F803C0BCF1280F06D14FF0E0
S31508000E80010C0CFA00FCC2F814C00AE091F803C081
S31508000E90BCF1480F05D14FF0010C0CFA00FCC2F862
S31508000EA010C0401C0828D1D31460B1F800C0BCF1AA
S31508000EB0FF0F34DD546800202EE000F1080C4FF0D7
S31508000EC0010808FA0CF3B1F800C00CEA03069E42C2
S31508000ED021D183004FF00F0C0CFA03F7BC4305FA37
S31508000EE003FC4CEA040491F803C0BCF1280F05D1B1
S31508000EF000F1080C08FA0CF8C2F8148091F803C03F
S31508000F00BCF1480F07D100F1080C4FF0010808FAA8
S31508000F100CF8C2F81080401C0828CED35460BDE8EF
S31508000F20F0810246002093680B400BB1012000E0D7
S31508000F30002070470AB1016100E04161704700BFB7
S31508000F40FEE700BFFEE7704770B5002100230F22B9
S31508000F50C47804B3154C246804F4E064C4F5E0646A
S31508000F60210AC1F10403CA40447804FA03F18478DB
S31508000F701440214309010E4C0678A155047804F063
S31508000F801F050124AC4005786D11AD0005F1E0257B
S31508000F90C5F8004109E0047804F01F050124AC40B7
S31508000FA0044D0678761145F8264070BD0CED00E034
S31508000FB000E400E080E100E002490143024A1160D2
S31508000FC0704700000000FA050CED00E070470000CD
S31508000FD029B1064AD2690243044BDA6104E0034A9E
S31508000FE0D2698243014BDA61704700000010024063
S31508000FF029B1064A12690243044B1A6104E0034AFE
S3150800100012698243014B1A617047000000100240C2
S3150800101029B1064A92690243044B9A6104E0034ADD
S3150800102092698243014B9A617047000000100240A2
S3150800103029B1064AD2680243044BDA6004E0034A3F
S31508001040D2688243014BDA60704700000010024004
S3150800105030B500210022002400232D4D6D6805F0CF
S315080010600C0121B1042905D0082923D105E0294D11
S31508001070056022E0274D05601FE0254D6D6805F4E3
S315080010807012234D6D6805F48034022505EB9242F3
S315080010901CB9214D554305600BE01D4D6D6805F4DF
S315080010A000351DB11C4D5543056002E0194D5543E9
S315080010B0056002E0174D056000BF00BF144D6D685E
S315080010C005F0F0010909154D6B5C0568DD404560C2
S315080010D00F4D6D6805F4E061090A104D6B5C4568B3
S315080010E0DD4085600A4D6D6805F46051C90A0B4DEF
S315080010F06B5C4568DD40C560054D6D6805F440418B
S31508001100890B074D6B5CC568B5FBF3F5056130BD0A
S315080011100010024000127A0000093D001400002069
S315080011202400002010B501460022002300204A11A1
S31508001130012A02D1094C236806E0022A02D1074C8B
S31508001140236A01E0054C636A01F01F0201249440FA
S315080011501C400CB1012000E0002010BD0010024028
S315080011600248406800F00C0070470000001002407A
S3150800117001460020034A506820F0F00008435060FA
S3150800118070470000001002401149096821F48031B7
S315080011900F4A11601146096821F480211160B0F5E3
S315080011A0803F03D0B0F5802F0ED106E008490968C4
S315080011B041F48031064A116007E00549096841F49F
S315080011C0A021034A116000E000BF00BF704700007D
S315080011D00010024001460020034A506820F4E060EF
S315080011E00843506070470000001002400146002086
S315080011F0034A506820F4605040EAC10050607047C6
S31508001200001002400149086670470000000042428B
S3150800121002460020044B586820F47C1042EA010379
S315080012201843014B586070470010024001460020E1
S31508001230034A506820F003000843506070470000D6
S3150800124000100240704710B500F002F810BD00000B
S315080012500CB50020019000903348006840F48030B7
S315080012603149086000BF3048006800F4003000903B
S315080012700198401C0190009818B90198B0F5A06F24
S31508001280F1D12948006800F4003010B1012000901F
S3150800129001E0002000900098012843D12348006807
S315080012A040F01000214908600846006820F0070051
S315080012B008600846006840F0020008601A4840685E
S315080012C0194948600846406848600846406840F43E
S315080012D0806048600846406820F47C1048600846EC
S315080012E0406840F4E81048600846006840F080709E
S315080012F0086000BF0C48006800F000700028F9D0AC
S315080013000948406820F003000749486008464068D5
S3150800131040F00200486000BF0348406800F00C0037
S315080013200828F9D10CBD0000001002400020024038
S315080013300448036840685A1C40F1000001490A60E5
S31508001340486070470800002010B51348006840F050
S3150800135001001149086008464068104908400E49CE
S315080013604860084600680E4908400B490860084668
S31508001370006820F4802008600846406820F4FE00D3
S3150800138048604FF41F008860FFF75DFF4FF000606C
S315080013900449086010BD0000001002400000FFF874
S315080013A0FFFFF6FE08ED00E010B501210C480068C5
S315080013B000F069F898B101210948006800F054F86E
S315080013C00848B0F8800020F4004000F500400549C0
S315080013D0A1F8800000210248006800F048F810BD16
S315080013E028000020F000002010B501210C480068F4
S315080013F000F049F898B101210948006800F034F86E
S315080014000848B0F8800020F4004000F5004005497F
S31508001410A1F8800000210248006800F028F810BDF5
S31508001420000000204400002010B501210C48006887
S3150800143000F029F898B101210948006800F014F86D
S315080014400848B0F8000220F4004000F500400549BD
S31508001450A1F8000200210248006800F008F810BD53
S3150800146034000020F2010020CA430282704721B1ED
S31508001470028842F00102028004E002884FF6FE73F9
S315080014801A400280704730B5024600200023002427
S31508001490158A05EA0103958905EA010413B10CB119
S315080014A0012000E0002030BD1AB183890B438381F7
S315080014B002E083898B4383817047818470470000EB
S315080014C0002202881D4B98420ED01D4B98420BD025
S315080014D0B0F1804F08D01B4B984205D01A4B984262
S315080014E002D01A4B984204D14FF68F731A404B8894
S315080014F01A43174B984207D0164B984204D04FF61A
S31508001500FF431A40CB881A4302808B8883850B8851
S3150800151003850A4B98420BD0094B984208D00E4BCC
S31508001520984205D00D4B984202D00D4B984201D1F6
S315080015300B7A03860123838270470000002C014042
S31508001540003401400004004000080040000C004040
S3150800155000100040001400400040014000440140D3
S31508001560004801404FF6FF71818000210180C1804B
S31508001570418001727047000010B5082132480068A2
S3150800158000F010FA40B108212F48006800F098F9D9
S315080015902D48006800F0CEFA40F225512A48006826
S315080015A000F00DFA00284DD02748006800F0C2FA6E
S315080015B0C4B22648B0F88000C0F30E007F2822DAAD
S315080015C0002123480068FFF778FF2048B0F880001C
S315080015D0C0F30E0020B901211D480068FFF747FF38
S315080015E01A48B0F88000C0F30E0018490C54084693
S315080015F0B0F88000401CB1F8801060F30E01134863
S31508001600A0F8801018E01148B0F880006FF30E00BB
S315080016100E49A1F880000846B0F88000C0F30E0015
S315080016200C540846B0F88000401CB1F8801060F3EE
S315080016300E010648A0F8801040F2255102480068BD
S3150800164000F047F910BD00002C000020F000002033
S315080016502800002010B508213248006800F0A2F9D9
S3150800166040B108212F48006800F02AF92D48006883
S3150800167000F060FA40F225512A48006800F09FF908
S3150800168000284DD02748006800F054FAC4B226480E
S31508001690B0F88000C0F30E007F2822DA0021234824
S315080016A00068FFF70AFF2048B0F88000C0F30E0074
S315080016B020B901211D480068FFF7D9FE1A48B0F87D
S315080016C08000C0F30E0018490C540846B0F8800094
S315080016D0401CB1F8801060F30E011348A0F8801082
S315080016E018E01148B0F880006FF30E000E49A1F813
S315080016F080000846B0F88000C0F30E000C54084677
S31508001700B0F88000401CB1F8801060F30E0106485E
S31508001710A0F8801040F225510248006800F0D9F878
S3150800172010BD000004000020440000200000002036
S3150800173010B586B0044601210420FFF769FC012193
S315080017404804FFF745FC0420ADF8140018208DF86E
S31508001750170003208DF8160005A92048FFF756FB49
S315080017600820ADF8140004208DF8170005A91B48B9
S31508001770FFF74CFB01940020ADF80800ADF80A000D
S31508001780ADF80C00ADF810000C20ADF80E0001A95C
S31508001790134800F063F9012240F22551104800F081
S315080017A038F927208DF8000001208DF80100002067
S315080017B08DF8020001208DF803006846FFF7C4FB88
S315080017C00121074800F094F84021054800F078F810
S315080017D0034800F0AFF906B010BD0000000801404C
S315080017E00044004010B508213248006800F0DAF8D5
S315080017F040B108212F48006800F062F82D480068BB
S3150800180000F098F940F225512A48006800F0D7F808
S3150800181000284ED02748006800F08CF9C4B2264844
S31508001820B0F80002C0F30E00B0F5FF7F22DC0021FD
S3150800183022480068FFF741FE1F48B0F80002C0F3CF
S315080018400E0020B901211D480068FFF710FE1A484E
S31508001850B0F80002C0F30E0017490C540846B0F859
S315080018600002401CB1F8001260F30E011248A0F8FD
S31508001870001218E01048B0F800026FF30E000E4987
S31508001880A1F800020846B0F80002C0F30E000C5496
S315080018900846B0F80002401CB1F8001260F30E01C9
S315080018A00548A0F8001240F225510248006800F0E9
S315080018B010F810BD38000020F20100203400002086
S315080018C001F40072B2F5007F00D100BFCA4302805E
S315080018D0704710B50022002340F66A14A14200D1D1
S315080018E000BF0A1201249440A3B2DC43048010BD51
S315080018F021B1828942F40052828104E082894DF640
S31508001900FF731A408281704710B504462048844206
S3150800191009D101218803FFF78BFB00214FF4804092
S31508001920FFF786FB32E01B48844209D101214804AF
S31508001930FFF75EFB00214FF40030FFF759FB25E067
S315080019401548844209D101218804FFF751FB00217B
S315080019504FF48020FFF74CFB18E01048844209D169
S315080019600121C804FFF744FB00214FF40020FFF7CC
S315080019703FFB0BE00A48844208D101210805FFF71E
S3150800198037FB00214FF48010FFF732FB10BD000033
S31508001990003801400044004000480040004C004028
S315080019A00050004002460020B1F5007F00D100BF7C
S315080019B013880B400BB1012000E00020704770B57A
S315080019C00246002400230025002040F66A16B1428C
S315080019D000D100BFC1F3421501F01F03012606FA24
S315080019E003F3012D02D19689334006E0022D02D178
S315080019F0168A334001E0968A33400C12012606FA0D
S31508001A0004F41688344013B10CB1012000E000201C
S31508001A1070BDF0B50346002400260025002040F6D8
S31508001A206A17B94200D100BF1846C1F3421401F043
S31508001A301F06012707FA06F5012C01D10C3004E030
S31508001A40022C01D1103000E014301AB107682F4378
S31508001A50076002E00768AF430760F0BD2DE9F0476D
S31508001A6086B005460E460024A24600BFA1460027BA
S31508001A70B08900B100BF2F462C8A4CF6FF7004408F
S31508001A80F08804432C82AC894EF6F3100440B088E3
S31508001A9031890843718908430443AC81AC8A4FF6FF
S31508001AA0FF400440B0890443AC8201A8FFF7D0FA8E
S31508001AB01F48874202D1DDF810A001E0DDF80CA02E
S31508001AC0A88900F4004040B10AEBCA0000EB0A10EE
S31508001AD031684900B0FBF1F807E00AEBCA0000EBF1
S31508001AE00A1031688900B0FBF1F86420B8FBF0F001
S31508001AF004012009642101FB1089A88900F400402B
S31508001B0040B1322000EBC900B0FBF1F000F007004D
S31508001B10044308E0322000EB09106421B0FBF1F021
S31508001B2000F00F0004432C8106B0BDE8F0870000E2
S31508001B300038014001468888C0F308007047C1F3A1
S31508001B400802828070474FF4165101600021818097
S31508001B50C18001810C21418100218181704700BF2C
S31508001B60FEE700000FB41CB50246002007AC0029AA
S31508001B700BD0491ECDE90021054B6A462146069839
S31508001B8000F016F9009A002111701CBC5DF814FBD0
S31508001B90DF2400080FB4084B10B504A902AA03985D
S31508001BA000F006F9044602A9002000F0A3FC20462E
S31508001BB010BC5DF814FB0000F52400087CB504464B
S31508001BC000201D46164600290BD0491ECDE90041C6
S31508001BD0044B6A462946304600F0EAF8009A002186
S31508001BE011707CBDDF24000837B514460846064B3D
S31508001BF06A46214600F0DCF804466946002000F0F3
S31508001C0079FC20463EBD0000F524000802E008C81D
S31508001C10121F08C1002AFAD170477047002001E058
S31508001C2001C1121F002AFBD1704700002DE9FF5F92
S31508001C3082B00021DDE90430020DDDF840B003432F
S31508001C4018D044F61050A2F2FF32424315141198E8
S31508001C5001281FD0A5EB0B00401C5FEA000A4FF0D5
S31508001C6000064E4FDFF83891B046504615D5CAF1F2
S31508001C70000413E0119801244AA3012801D16FEA50
S31508001C800B010298119AC0E90031C0E9024206B078
S31508001C90BDE8F09FCBF10000DFE704460021404A8B
S31508001CA0491842EB0450CDE9001012E0E00707D0CE
S31508001CB032463B4640464946FEF70DFC8046894675
S31508001CC032463B4610461946FEF705FC06460F46C1
S31508001CD06410002CEAD1DDE90401DDE90023BAF13C
S31508001CE0000F06DAFEF7F7FB42464B46FEF7F3FB14
S31508001CF005E0FEF762FC42464B46FEF75EFC0446EC
S31508001D000E460022284BFEF789FE03D84FF0FF3017
S31508001D10014607E00022254B20463146FEF734FBF4
S31508001D20FEF764FE102409E0002C0ADB0A220023D1
S31508001D30FEF723FD039B30321A55641E50EA010252
S31508001D40F2D1641C039AC4F111031444119A012AAE
S31508001D5003D0012208430DD10AE0084304D000202D
S31508001D604FF0110B119072E7A3EB0B056D1E0DE0FA
S31508001D705B4504DD4FF0000205F1010504E003DAD6
S31508001D804FF00002A5F10105002AECD0029811993E
S31508001D90C0E90231C0E9004579E7000000001440B7
S31508001DA00000F03F300000000000F0430000E03F74
S31508001DB02DE9FF4F95B09B468946064600250FE25A
S31508001DC0252877D100242746F84A0121059400E002
S31508001DD0044316F8013F203B01FA03F01042F7D1FD
S31508001DE030782A2811D06FF02F033078A0F130020E
S31508001DF0092A16D8059A44F0020402EB820203EB7C
S31508001E0042021044761C0590EFE759F8042B059218
S31508001E10002A03DA504244F40054059044F00204C0
S31508001E20761C30782E2816D116F8010F44F00404D3
S31508001E302A280DD06FF02F023078A0F13003092B35
S31508001E4009D807EB870302EB4303C718761CF3E7A9
S31508001E5059F8047B761C30786C280FD006DC4C28A1
S31508001E6017D068280DD06A2814D104E0742810D039
S31508001E707A280FD10DE044F400140AE044F48014E3
S31508001E8001E044F440147278824202D104F58014C9
S31508001E90761C761C307866280BD013DC582877D049
S31508001EA009DC002875D04528F6D04628F4D04728FE
S31508001EB01AD19DE118E0632835D0642879D06528C1
S31508001EC012D195E1702873D008DC6728F1D069280B
S31508001ED06FD06E280DD06F2806D1B5E073282CD0A8
S31508001EE0752875D0782874D05A46179990476D1C6E
S31508001EF075E1C4F30250022809D003280DD0D9F899
S31508001F00001004280DD00D6009F1040967E1D9F81D
S31508001F100010EA17C1E90052F6E7D9F800100D805B
S31508001F20F2E70D70F0E719F8041B8DF80010002091
S31508001F308DF80100EA46012003E059F804AB4FF09A
S31508001F40FF3061074FF0000102D40DE008F10101EE
S31508001F508846B9420FDA8045F8DB1AF808100029D6
S31508001F60F4D108E008F1010188468142FADB1AF843
S31508001F7008100029F6D105985B46A0EB080721460C
S31508001F803846179A00F094FA284400EB080507E04B
S31508001F904DE029E10DE01AF8010B5A4617999047CA
S31508001FA0B8F10108F7D25B4621463846179A13E17D
S31508001FB042E00A220092C4F302524FF0000A022AB3
S31508001FC008D059F804CB032A4FEAEC710AD00DE081
S31508001FD029E02AE009F1070121F00702F2E802C127
S31508001FE0914609E00FFA8CFC4FEAEC71042A03D1FA
S31508001FF04FFA8CFC4FEAEC71002907DA0A460021F1
S31508002000DCF1000C61EB02012D2202E0220504D569
S315080020102B228DF80420012203E0E20701D02022BA
S31508002020F7E7904659E00A2102E010220DE0102158
S315080020304FF0000A00910BE010224FF0000A44F01E
S3150800204004040827009203E008224FF0000A0092D1
S31508002050C4F30252022A05D059F804CB0021032AF8
S3150800206008D009E009F1070121F00702F2E802C1E8
S31508002070914605E01FFA8CFC042A01D10CF0FF0CEE
S315080020804FF00008220728D5702806D0009B83F059
S31508002090100353EA0A0305D00EE040228DF8042007
S315080020A0012208E05CEA010206D030228DF80420FD
S315080020B08DF8050002229046009B83F0080353EA38
S315080020C00A030AD15CEA010201D1620705D530226A
S315080020D08DF804204FF001087F1E582804D034A03C
S315080020E003900EA802900DE036A0F9E75346604625
S315080020F0009AFEF742FB84460398825C0298401ECB
S31508002100029002705CEA0100F0D1029806A9081A4A
S3150800211000F1200A600702D524F4803400E0012784
S31508002120574502DDA7EB0A0000E0002000EB0A0194
S31508002130009005984144401A0590E00306D45B4692
S315080021402146179A059800F0B3F90544002706E0DA
S3150800215001A85A46C05D179990476D1C7F1C4745D4
S31508002160F6DBE0030CD55B462146179A059800F086
S315080021709FF9054404E030205A46179990476D1C8C
S315080021800099481E00900029F5DC08E0029802999B
S315080021905A460078491C0291179990476D1CBAF166
S315080021A00001AAF1010AF1DC65E100000928010035
S315080021B030313233343536373839616263646566AF
S315080021C00000000030313233343536373839414271
S315080021D0434445460000000000F058F90544761CC3
S315080021E0307800287FF4ECAD19B02846BDE8F08FAA
S315080021F0620700D4062709F1070222F0070CFCE85B
S315080022000223E14603F000485FEA080C02D00FF209
S31508002210702C0DE05FEA045C02D50FF2682C07E02B
S315080022205FEAC47C02D00FF2602C01E0AFF2700CBA
S315080022304FF0FF3823F00043CDF850C065280CD086
S3150800224006DC452809D046281DD047283DD13DE063
S31508002250662818D067287ED138E00021112F01DBC7
S31508002260112000E0781CCDE9000106A90EA8FFF7A9
S31508002270DDFCDDE90F010E9A03910021009207F1BA
S31508002280010A04914DE04FF000400097CDE9011096
S3150800229006A90EA8FFF7CAFCDDE90F0203920E9BFA
S315080022A011990022DDF80CA00093049211B9791C4B
S315080022B000EB010AB7EB0A0004D4C0F1FF3007F1BE
S315080022C0010A0490AAEB0700019044E0012F00DA06
S315080022D001270021112F01DD112000E03846CDE944
S315080022E0000106A90EA8FFF7A1FCDDE90F010E9A69
S315080022F00391002104910092BA4621070CD4039950
S31508002300514500DA8A46BAF1010F05DD009AAAF1AD
S315080023100101515C302908D0B84202DA10F1040FE5
S3150800232006DA0121CDE9011015E0AAF10101E9E774
S31508002330002805DC049901440491AAEB000102E097
S31508002340411C514500DD8A460499401A401C0190FB
S315080023504FF000400290200704D40198504501DB55
S31508002360CDF8048000208DF84F0002980DF14F0734
S31508002370B0F1004F25D02B200E9002984FF002089E
S3150800238000280CDA404202902D200E9007E00A2120
S315080023900298FEF7DCF93031029007F8011DB8F112
S315080023A00001A8F10108F2DC02980028EFD1791E95
S315080023B00E980870307800F0200040F0450007F8C5
S315080023C0020D12A8C01B00F107081498007800B186
S315080023D0012000EB0A01019801EBE07105984144E0
S315080023E0401A401E0590E00306D45B462146179A1C
S315080023F0059800F05DF805441498007818B15A4617
S31508002400179990476D1CE00324D55B462146179A19
S31508002410059800F04DF805441CE00498002807DBF1
S31508002420DDE90301884203DD0098405C179901E065
S31508002430179930205A469047049805F10105401C23
S3150800244004900198401E019004D12E205A461799EF
S3150800245090476D1CBAF10001AAF1010ADDDC05E01E
S3150800246017F8010B5A46179990476D1CB8F10001E9
S31508002470A8F10108F4DC5B462146179A0598ABE6F5
S315080024802D0000002B000000200000002DE9F0417F
S31508002490044600251E461746880404D405E0394636
S315080024A02020B0476D1C641EF9D52846BDE8F0818A
S315080024B02DE9F041044600251E469046C80301D57D
S315080024C0302700E02027880404D505E04146384631
S315080024D0B0476D1C641EF9D52846BDE8F0814A68E8
S315080024E0002A06D00A68531C0B6010704868401E04
S315080024F0486070470A68531C0B6010707047F0B547
S31508002500837B03B9F0BD002901DB802900DBF9E7ED
S31508002510002A01DB402A00DBF4E7438BBBB1838B3F
S31508002520ABB1B0F916308B4205DCB0F91630448BE6
S3150800253023448B4200DCE5E7B0F91830934205DC0A
S31508002540B0F91830848B2344934200DCDAE7837BA6
S31508002550012B1CD1D51702EB5575ED1001EBC515EE
S315080025604668755D1446D61702EB5676F610A2EB4A
S31508002570C6070126BE403543EEB21346D51702EB11
S315080025805575ED1001EBC51547687E551AE0D51748
S3150800259002EB5575ED1001EBC5154668755D1446D9
S315080025A0D61702EB5676F610A2EBC6070126BE40F2
S315080025B0B5431346D61702EB5676F61001EBC61648
S315080025C04768BD5500BF9DE708B500BF0121082033
S315080025D0FEF71EFD00BF0220ADF8000010208DF8A2
S315080025E0030002208DF8020069460348FEF70EFC38
S315080025F000F010F808BD0000000C014010B5FFF708
S31508002600E3FF00F017F8322000F09AF800F002F81D
S31508002610002010BD10B500BF012202210448FEF7B4
S3150800262089FC00BF0A2000F09DF8002010BD0000BC
S31508002630000C014010B500BF002202210448FEF735
S3150800264079FC00BF0A2000F08DF8002010BD0000BC
S31508002650000C01402DE9F041C1F30A52A2F2FF36FF
S315080026602F4A304B0D460446142E2FDA002E12DA66
S31508002670FDF78AFE00221346FEF7D0F94CD2002D4C
S31508002680BCBF4FF00045002446DB55EA040018BFDE
S31508002690254D19D140E0DFF894C02CFA06F705EA73
S315080026A0070C5CEA040C08BFBDE8F081FDF76CFE78
S315080026B000221346FEF7B2F92ED2002D03DD4FF4A1
S315080026C08010F0400544BD43002425E0332EC8BFE2
S315080026D0BDE8F081A6F1140C4FF0FF3727FA0CF786
S315080026E03C4208BFBDE8F081FDF7F2FE0022134622
S315080026F0FEF794F910D2002D0DDD142E08BF6D1CBF
S3150800270009D0C6F13400012101FA00F02044A042A4
S3150800271038BF6D1C0446BC4329462046BDE8F081F7
S315080027209C7500883CE4377E0000F03FFFFF0F00F1
S31508002730002100E0491CC2008A42FBD8704700000D
S3150800274070B5044601F08CFD054800680519002699
S3150800275000BF034800680021401BB141F9D370BD92
S315080027600800002070B5044601F07AFD00F0FEF975
S31508002770021941F10000551C40F1000600BF00F0A7
S31508002780F5F9401BB141FAD370BD00002DE9F04FB1
S3150800279087B005460F4690469946A87B20B9287B00
S315080027A010B907B0BDE8F08F95F80DA00120687341
S315080027B04846FDF776FF0022214BCDE90001FDF7DB
S315080027C0FCFECDE90201FFF745FFCDE90401FDF75F
S315080027D089FF1FFA80FB00242CE0002625E0E2177B
S315080027E004EB5272D21006FB0B23119AD25CE31744
S315080027F004EB5373DB10A4EBC30C802343FA0CF3EE
S315080028001A4042B108EB060002B2381901B228464E
S3150800281001F06FFB07E008EB060002B2381901B2B7
S315080028202846FFF76CFE701C06B210988642D6DB67
S31508002830601C04B24C45D0DB85F80DA000BFB0E79C
S31508002840000020402DE9F04F87B004460F46A068E7
S3150800285010B907B0BDE8F08F3946204601F06AFD89
S3150800286006460025002E07DBA068006A06EB46012F
S3150800287001EBC60100EB8105608C00287CD0A08C9A
S31508002880002879D0B4F91680B4F91890608B0FFA3D
S3150800289080FAA08B0FFA80FB608B70B3A08B60B3B5
S315080028A0E08BADF81400208CADF81600608CADF8FE
S315080028B01800A08CADF81A00E08AADF80C00208B41
S315080028C0ADF80E00608BADF81000A08BADF81200C5
S315080028D004980090039BDDE9051201A800F0E0F8D2
S315080028E0BDF80400E082BDF806002083BDF80800A4
S315080028F06083BDF80A00A08308E0FFE7E08BE0826A
S31508002900208C2083608C6083A08CA083B4F910008F
S31508002910B4F91E10884207DBB4F91E00618C08441E
S31508002920B4F91010884201DCE08B2082A5B1B4F915
S315080029301000A9890844B4F91E10628C1144884213
S315080029400ADBE08B2082608AA168898A0844A1682C
S31508002950098B084400B260820D2F02D1E08B2082D9
S315080029600AE00A2F08D1608AA168898A0844A16802
S31508002970098B084400B260826DB3A068808A009013
S31508002980608AD4F808C0BCF818C0A0EB0C00D4F8CC
S3150800299008C0BCF814C0A0EB0C0002B2AB89B4F9AD
S315080029A01010204600F058F8E98BA86ACDE9001007
S315080029B0608AB5F822C0A0EB0C00B5F81EC0A0EBE3
S315080029C00C0002B2208AB5F820C0604401B2AB8B75
S315080029D02046FFF7DBFE608C48B1A08C38B1A4F81E
S315080029E01680A4F81890A4F81AA0A4F81CB025B16B
S315080029F0208AA989084400B2208200BF29E770B559
S31508002A0003460C46002121E0881CA04202D34FF061
S31508002A10FF3070BD10785C2807D15C260846491C33
S31508002A201E540846491C1E540FE01078222808D167
S31508002A305C260846491C1E5422260846491C1E5474
S31508002A4003E016780846491C1E54521C10780028C4
S31508002A50DAD158540846DCE72DE9F04780460D469A
S31508002A6016469946DDF820A098F80E0008B9BDE884
S31508002A70F0872C460EE0374606E03A4621464046A1
S31508002A80FFF73DFD781C07B206EB0A00B842F4DCF6
S31508002A90601C04B205EB0900A042ECDC00BFE6E7C7
S31508002AA00FB4FCB50446002500950195BDF92050E4
S31508002AB0BDF92860B54202DDBDF9205001E0BDF937
S31508002AC028502846BDF92050BDF824603544BDF984
S31508002AD02860BDF82C703E44B54205DDBDF9285086
S31508002AE0BDF82C60354404E0BDF92050BDF82460DB
S31508002AF0354429B2BDF92250BDF92A60B54202DD36
S31508002B00BDF9225001E0BDF92A502A46BDF92250E6
S31508002B10BDF826603544BDF92A60BDF82E703E44DE
S31508002B20B54205DDBDF92A50BDF82E60354404E0EE
S31508002B30BDF92250BDF8266035442BB288420DDA1D
S31508002B409A420BDAADF80000ADF802200D1AADB2C4
S31508002B50ADF804509D1AADB2ADF80650009D25603B
S31508002B60019D6560FCBC5DF814FB00002DE9F04191
S31508002B7001F076FB4FF0E020006920F480304FF03A
S31508002B80E02108611948046800250846866905E0B9
S31508002B904FF0E02086691548046800254FF0E020CC
S31508002BA0006900F480300028F2D14FF47A72214689
S31508002BB0A1FB027C05FB02C204FB00253C464FF044
S31508002BC0E0214969881BFDF767FD804608480168CA
S31508002BD04046FDF7A7FB0746FDF770FD041945F1CA
S31508002BE0000520462946BDE8F081000008000020BF
S31508002BF01000002008B500BF01210820FEF708FADA
S31508002C0000BF00BF01210820FEF702FA00BF4FF4FB
S31508002C100050ADF8000048208DF8030003208DF819
S31508002C20020069460848FEF7F1F84FF48040ADF80F
S31508002C30000028208DF8030003208DF8020069465D
S31508002C400148FEF7E3F808BD000C014010B5FFF790
S31508002C50D1FF10BD08B501211020FEF7D9F94FF4B0
S31508002C600050ADF8000002208DF8020014208DF8FF
S31508002C70030069460448FEF7C9F8012251030248D1
S31508002C80FEF758F908BD00000010014010B501F024
S31508002C90D3FA4FF4E130FEF74BFD04A1074801F0E3
S31508002CA064FB00F05BF8002010BD000075617274CB
S31508002CB0322068656C6C6F0D0A0000000044004005
S31508002CC0F0B50B30154D20F007010024144A0FE02B
S31508002CD003688B420BD38B4205D95E1A43184768A3
S31508002CE0C3E9006700E04368136002C004E0021D00
S31508002CF010680028ECD12046002802D1286808B1BF
S31508002D000020F0BD064A07481060074A121A22F04A
S31508002D100702C0E9002401202860D7E74000002008
S31508002D203C0000207C0400207814002070B50025A3
S31508002D300BE041F2883207A107A000F089FD04469E
S31508002D400CB9002070BD681CC5B20A2DF1DB012044
S31508002D50F8E700004F4B00004154000086B0A14838
S31508002D6000F09CFEA0A04FF4FA730A2200210090FE
S31508002D709C4801F09EF84FF4E13000F0EFFA044663
S31508002D8074B1984800F08AFE9BA04FF4FA631422A7
S31508002D900021CDE90004934801F08BF800BFFEE757
S31508002DA099A04FF4FA731422002100908D4801F07F
S31508002DB080F84FF47A70FFF7C3FC04A800F042FAD3
S31508002DC068B993A2DDE904104FF4FA73CDE900213E
S31508002DD0029020220021834801F06BF808E08FA0BA
S31508002DE04FF4FA732022002100907E4801F061F822
S31508002DF003A800F0D5F9002846D19DF80C0007284D
S31508002E0037D2DFE800F036041822360E2C0086A0EA
S31508002E104FF4FA73302200210090724801F049F805
S31508002E2031E084A04FF4FA733022002100906D48F7
S31508002E3001F03FF827E082A04FF4FA733022002110
S31508002E400090684801F035F81DE07FA04FF4FA734A
S31508002E50302200210090634801F02BF813E07CA093
S31508002E604FF4FA733022002100905E4801F021F8F1
S31508002E7009E07AA04FF4FA733022002100905948ED
S31508002E8001F017F800BF08E076A04FF4FA73302275
S31508002E9000210090534801F00CF8524800F0FEFD5E
S31508002EA073A04FF4FA730A22002100904D4801F0EE
S31508002EB000F840F25B7272A1002000F007FB04469E
S31508002EC05CB173A04FF4FA6314220021CDE9000423
S31508002ED0444800F0EEFF00BFFEE771A04FF4FA7316
S31508002EE01422002100903F4800F0E3FF6EA04FF443
S31508002EF0FA732022002100903A4800F0DAFF6DA309
S31508002F006EA270A1002000F055FA04465CB170A0CC
S31508002F104FF4FA6330220021CDE90004314800F06D
S31508002F20C8FF00BFFEE76EA04FF4FA7330220021F7
S31508002F3000902C4800F0BDFF2A4800F0AFFD6BA0BA
S31508002F404FF4FA730A2200210090264800F0B1FFD8
S31508002F5001236AA21946002000F0F0FB04465CB182
S31508002F606BA04FF4FA6314220021CDE900041D4832
S31508002F7000F09FFF00BFFEE768A04FF4FA73142223
S31508002F8000210090174800F094FF66A04FF4FA73EA
S31508002F90202200210090134800F08BFF644857A1B7
S31508002FA000230122CDE900100221184600F012FB89
S31508002FB004465CB15FA04FF4FA6330220021CDE9E4
S31508002FC00004084800F075FF00BFFEE75CA04FF458
S31508002FD0FA73302200210090024800F06AFF00BF11
S31508002FE0FEE70000C80000204E422D496F542049D4
S31508002FF06E69742E2E2E0000496E6974206661690A
S315080030006C20256400000000496E6974204F4B004F
S315080030104353513A25642C25640000004353513A22
S315080030206661696C000000005265673A486F6D6515
S31508003030000000005265673A526F616D000000009B
S31508003040536561726368000044656E6965640000D3
S315080030505265673A4E42496F54000000556E6B6ED2
S315080030606F770000435245473A6661696C00000075
S315080030704F70656E204D5154542E2E2E00000000C0
S3150800308038322E3135372E3132392E323339000067
S315080030904F70656E206661696C202564000000002B
S315080030A04F70656E204F4B00436F6E6E6563742ECE
S315080030B02E2E00007061737331323300757365729A
S315080030C0310000006D79436C69656E7431323300E6
S315080030D0436F6E6E206661696C20256400000000EF
S315080030E0436F6E6E656374204F4B000053756273B1
S315080030F063726962652E2E2E000000006661726D8D
S315080031002F73656E736F722F636F6C6C65637400D3
S31508003110537562206661696C2025640053756220C8
S315080031204F4B00005075626C6973682E2E2E000096
S31508003130A0580008507562206661696C20256400F5
S31508003140507562204F4B00007CB505460020009064
S31508003150019035B1012D09D10CA16846FEF71AFD7B
S3150800316006E00CA16846FEF715FD01E003207CBDCC
S3150800317000BF41F2883209A1684600F069FB04469F
S315080031800CB10120F3E70020F1E700004154453176
S315080031900000000041544530000000004F4B00007D
S315080031A02DE9FC41044614B90320BDE8FC8100F072
S315080031B063FC1AA000F030FC41F28836002726E0AE
S315080031C000F044FC0546FDB117A12846FCF7CEFFE2
S315080031D08046B8F1000F0AD06B4601AA14A14046F2
S315080031E0FCF7DEFF022802D100982070012714A1FF
S315080031F02846FCF7BBFF20B10FB90120D5E7002010
S31508003200D3E700F039FC00BF0120FFF799FA301E1A
S31508003210A6F10106D4D10220C7E7000041542B438A
S315080032205245473F0D0A00002B435245473A0000D6
S315080032302B435245473A2025642C2564000000009C
S315080032404F4B00002DE9FC41044614B90320BDE8A4
S31508003250FC8100F011FC1BA000F0DEFB41F2883671
S31508003260002728E000F0F2FB05460DB318A1284612
S31508003270FCF77CFF8046B8F1000F0CD06B4601AA1C
S3150800328015A14046FCF78CFF022804D1019820605E
S3150800329000986060012713A12846FCF767FF20B154
S315080032A00FB90120D3E70020D1E700F0E5FB00BF06
S315080032B00120FFF745FA301EA6F10106D2D10220F9
S315080032C0C5E7000041542B4353510D0A0000000086
S315080032D02B4353513A0000002B4353513A2025649F
S315080032E02C2564004F4B000008B500BF01211020B3
S315080032F0FDF78EFE00BF00BF01211020FDF788FEF6
S3150800330000BF4FF40050ADF8000010208DF8030000
S3150800331003208DF8020069460F48FDF777FD4FF444
S315080033208040ADF8000010208DF8030003208DF8CA
S31508003330020069460848FDF769FD00BF01225103EE
S315080033400548FDF7F7FD00BF00BF012291030248BB
S31508003350FDF7F0FD00BF08BD0010014070B5054639
S31508003360FFF7C2FF00BF00224FF480411048FDF767
S31508003370E1FD00BF4FF49670FFF7E2F900BF0122A6
S3150800338091030B48FDF7D6FD00BF4FF4FA60FFF72F
S31508003390D7F9284600F0CCFAFFF7C8FC04460CB16A
S315080033A0012070BD0020FFF7CFFE0020F9E70000DE
S315080033B0001001402DE9F047AAB006460F46904690
S315080033C09946982104A8FCF7C6FE3B46324629A131
S315080033D004A8CDE90089FEF7DDFB00F04DFB04A942
S315080033E02CA000F019FB4CF2503A3AE000F02EFB04
S315080033F00446002C32D029A12046FCF7B7FE30B18E
S3150800340000202849087001202AB0BDE8F08726A1C7
S315080034102046FCF7ABFE05469DB102AB03AA25A1E3
S315080034202846FCF7BDFE02280BDB029820B90120CE
S315080034301C4908700020E7E700201A490870012097
S31508003440E2E721A12046FCF791FE20B101201549AB
S3150800345008700020D8E700F00FFB00BF0120FFF737
S315080034606FF9BAF10000AAF1010ABFD10D49087037
S315080034700220C9E741542B45434D54434F4E4E3D18
S3150800348025642C222573222C222573222C222573AF
S315080034902200000025730D0A000000004552524F15
S315080034A052000000300000202B45434D54434F4E38
S315080034B04E3A00002B45434D54434F4E4E3A202575
S315080034C0642C2564000000004F4B00002DE9F04FE6
S315080034D097B006460F469046502103A8FCF73BFED8
S315080034E03B46324628A103A8CDF80080FEF752FBDA
S315080034F000F0C2FA03A92AA000F08EFA4CF250395D
S315080035004FF0000A4FF0FF3B37E000F09FFA044601
S31508003510002C2FD024A12046FCF728FE18B1012044
S3150800352017B0BDE8F08F22A12046FCF71FFE05461E
S3150800353065B101AB02AA21A12846FCF731FE022893
S3150800354003DB4FF0010ADDF804B000BF20A12046D6
S31508003550FCF70CFE58B1BAF1000F06D0BBF1000F0C
S3150800356001D00120DCE70020DAE70020D8E700F0E8
S3150800357083FA00BF0120FFF7E3F8B9F10000A9F1CB
S315080035800109C2D10220CBE741542B45434D544F84
S3150800359050454E3D25642C222573222C25640000B7
S315080035A025730D0A000000004552524F52000000D4
S315080035B02B45434D544F50454E3A00002B45434D3D
S315080035C0544F50454E3A2025642C256400000000CF
S315080035D04F4B00002DE9F04FADF5777D074688463D
S315080035E091469A464FF42F7108A8FCF7B4FD4FF49C
S315080035F08071B7A8DDF80424FFF701FA002804DA79
S3150800360001200DF5777DBDE8F08FB7A9DDF8000438
S315080036103B4630A28DE80007CDE903014FF42F7130
S3150800362008A8FEF79FFA0546002D02DBB5F52F7FA1
S3150800363001D30120E5E700F01FFA08A92EA000F043
S31508003640EBF941F2883B00200790401E06903AE0CD
S3150800365000F0FCF90446002C32D0224628A12B485B
S3150800366000F083FE2AA12046FCF780FD08B1012060
S31508003670C7E729A12046FCF779FD064676B103A8D7
S3150800368004AB05AA27A100903046FCF789FD03285C
S3150800369003DB012007900398069000BF26A1204669
S315080036A0FCF764FD48B1079828B1069808B10120CF
S315080036B0A7E70020A5E70020A3E700F0DDF900BF93
S315080036C00120FFF73DF8BBF10000ABF1010BBFD1BC
S315080036D0022096E741542B45434D545055423D250B
S315080036E0642C25642C25642C25642C222573222C15
S315080036F0222573220000000025730D0A0000000031
S315080037006672616D653A25730D0A00000044004033
S315080037104552524F520000002B45434D54505542D6
S315080037203A0000002B45434D545055423A20256433
S315080037302C25642C256400004F4B00002DE9F04F22
S31508003740A5B006460F4690469946802105A8FCF77F
S3150800375002FD3B4632462AA105A8CDE90089FEF7B7
S3150800376019FA00F089F905A92CA000F055F941F2DB
S31508003770883A4FF0000B4FF0FF30049038E000F025
S3150800378065F90446002C30D026A12046FCF7EEFC4D
S3150800379018B1012025B0BDE8F08F24A12046FCF71A
S315080037A0E5FC054675B101A802AB03AA22A1009063
S315080037B02846FCF7F5FC032803DB4FF0010B0198BC
S315080037C0049000BF21A12046FCF7D0FC50B1BBF104
S315080037D0000F05D0049808B10120DBE70020D9E7DF
S315080037E00020D7E700F048F900BF0120FEF7A8FF40
S315080037F0BAF10000AAF1010AC1D10220CAE7000005
S3150800380041542B45434D545355423D25642C25645C
S315080038102C222573222C25640000000025730D0A2E
S31508003820000000004552524F520000002B45434D00
S31508003830545355423A0000002B45434D54535542C4
S315080038403A2025642C25642C256400004F4B000083
S315080038502DE9F04105460E461446002700F00CF9FE
S31508003860294612A000F0D8F806B114B90020BDE820
S31508003870F08117E000F0EAF807467FB10DA1384657
S31508003880FCF774FC08B10120F1E731463846FCF72D
S315080038906DFC08B10020EAE700F0EEF8641E01208E
S315080038A0FEF74EFF002CE5D10220E0E725730D0A4E
S315080038B0000000004552524F5200000008B500BFF4
S315080038C001210220FDF784FB00BF1D208DF80000B2
S315080038D001208DF8010000208DF8020001208DF8E6
S315080038E003006846FDF730FB08BD00000EB5FFF77C
S315080038F0E5FF6846FDF736FE41F61F40ADF80000C5
S315080039000020ADF802006320ADF804000020ADF8F1
S315080039100600694605480068FDF7D2FD01221146F2
S3150800392002480068FDF7C0FD0EBD00003400002007
S3150800393010B586B0044600BF01218804FDF748FB90
S3150800394000BF00BF01210820FDF762FB00BF00BFD2
S3150800395001210820FDF75CFB00BF00BF2B48FDF7DF
S31508003960D3FF00BF4FF48060ADF8140018208DF81F
S31508003970170003208DF8160005A92548FDF746FA15
S315080039804FF40060ADF8140004208DF8170005A95F
S315080039901F48FDF73BFA01A8FEF7D5F80194002069
S315080039A0ADF80800ADF80A00ADF80C000C20ADF82B
S315080039B00E000020ADF8100001A916480068FEF7B1
S315080039C04DF8012240F2255112480068FEF721F809
S315080039D027208DF8000001208DF8010000208DF8C1
S315080039E0020001208DF803006846FDF7ADFAFFF7DF
S315080039F07DFF012107480068FDF77AFF4021054849
S31508003A000068FDF75DFF06B010BD000000480040E5
S31508003A10000C0140380000200FB438B505A8009006
S31508003A2080210848009B049AFEF7C8F884B2002053
S31508003A300090224603490448006800F0ABFC38BCF5
S31508003A405DF814FBF4030020380000200948B0F89C
S31508003A5000020121B1EBD03F09D100200549B1F898
S31508003A600012C1F30E01034A505410467047002055
S31508003A70FCE70000F20100200748B0F800026FF3E7
S31508003A800E000549A1F800020846B0F8000220F425
S31508003A900040A1F800027047F201002010B5044664
S31508003AA04FF480616068FCF756FB10BD2DE9F05FA6
S31508003AB082460E46002700BF3846791C8FB2355C11
S31508003AC005B988E005F0800028B9AB465946504646
S31508003AD0FEF7B8FEF0E705F0E000C02814D105F0BF
S31508003AE01F053846791C8FB2345C1CB104F0C0003F
S31508003AF0802800D06FE004F03F0444EA851B59464D
S31508003B005046FEF79FFED7E705F0F000E02826D1DD
S31508003B1005F00F053846791C8FB2345C1CB104F0E9
S31508003B20C000802800D056E004F03F043846791CCF
S31508003B308FB216F80080B8F1000F03D008F0C00065
S31508003B40802800D047E008F03F08280340EA8410A0
S31508003B5040EA080B59465046FEF774FEACE705F0F6
S31508003B60F800F028A8D105F007053846791C8FB269
S31508003B70345C1CB104F0C000802800D02BE004F0AF
S31508003B803F043846791C8FB216F80080B8F1000F4A
S31508003B9003D008F0C000802800D01CE008F03F08D9
S31508003BA03846791C8FB216F80090B9F1000F03D089
S31508003BB009F0C000802800D00DE009F03F09A804EC
S31508003BC040EA043040EA841040EA090B5946504658
S31508003BD0FEF738FE70E700BFBDE8F09F38B504462B
S31508003BE00D462868206040F20140FFF769F86060DA
S31508003BF0606810B96FF0010038BD6068401C6060ED
S31508003C004FF480616068FCF7A6FA00231A46AE21D5
S31508003C10204600F012F910B14FF0FF30ECE7802093
S31508003C20009001236A46D521204600F006F910B116
S31508003C304FF0FF30E0E73F20009001236A46A821B5
S31508003C40204600F0FAF810B14FF0FF30D4E7002014
S31508003C50009001236A46D321204600F0EEF810B101
S31508003C604FF0FF30C8E700231A464021204600F0EF
S31508003C70E4F810B14FF0FF30BEE71420009001239E
S31508003C806A468D21204600F0D8F810B14FF0FF3073
S31508003C90B2E70020009001236A462021204600F062
S31508003CA0CCF810B14FF0FF30A6E700231A46A12141
S31508003CB0204600F0C2F810B14FF0FF309CE7002311
S31508003CC01A46C821204600F0B8F810B14FF0FF3068
S31508003CD092E71220009001236A46DA21204600F076
S31508003CE0ACF810B14FF0FF3086E7CF2000900123E3
S31508003CF06A468121204600F0A0F810B14FF0FF3047
S31508003D007AE7F120009001236A46D921204600F07F
S31508003D1094F810B14FF0FF306EE720200090012391
S31508003D206A46DB21204600F088F810B14FF0FF30D4
S31508003D3062E700231A462E21204600F07EF810B1CD
S31508003D404FF0FF3058E700231A46A421204600F01A
S31508003D5074F810B14FF0FF304EE700231A46A6213B
S31508003D60204600F06AF810B14FF0FF3044E7002310
S31508003D701A46AF21204600F060F810B14FF0FF3028
S31508003D803AE70120607320730020A07320826082C6
S31508003D90A082E08320846084A0840248A06000207A
S31508003DA02AE700000058000808B500F02DF9034876
S31508003DB0009069460248FFF711FF08BD99410008BF
S31508003DC0C800002038B5044600208DF800000123FD
S31508003DD06A462021204600F030F810B14FF0FF3037
S31508003DE038BD00208DF800007F208DF801000223E1
S31508003DF06A462121204600F020F810B14FF0FF3026
S31508003E00EEE700208DF8000007208DF80100022358
S31508003E106A462221204600F010F810B14FF0FF3014
S31508003E20DEE74FF480622046616800F027F810B19B
S31508003E304FF0FF30D4E70020D2E72DE9FC410546D4
S31508003E400E461746984600208DF800008DF801604A
S31508003E50002405E0395DA01C0DF80010601CC4B2F2
S31508003E604445F7DBA21C694678202B68984718B1A9
S31508003E704FF0FF30BDE8FC810020FBE72DE9F0415B
S31508003E8005460C461646002714F8018C402004F80F
S31508003E90010C701C82B2611E78202B68984700B10D
S31508003EA07F1E04F8018C3846BDE8F0810182428203
S31508003EB07047F0B591B005460E4617461C463A4679
S31508003EC031462846FFF7F2FF17A8009001A8009A86
S31508003ED01699FDF789FE0020009001A92846FFF7EC
S31508003EE0E5FD2846FFF76EFF2046FEF729FC11B0D0
S31508003EF0F0BD2DE9FC5F04468A469346207B08B947
S31508003F00BDE8FC9F607B00B9FAE7607B00EBD071E7
S31508003F104910A0EB410139B1607B00EBD0714D101F
S31508003F202E462F46A8460CE0607B00EBD0714D105C
S31508003F302E462F46A846A8F101001FFA80F8781EDB
S31508003F4087B2A07B0190207BA073AAEB08000FFA2A
S31508003F5080F916E0ABEB070000B2009008E049468E
S31508003F602046009AFEF7CBFA0098401C00B2009053
S31508003F700BEB060100988142F1DA09F101000FFA0C
S31508003F8080F90AEB05004845E4DA0198A07300BFFA
S31508003F90B6E7000008B500BF01210820FDF738F88C
S31508003FA000BF00BF012211021648FCF7C3FF00BF7D
S31508003FB000BF012251021348FCF7BCFF00BF00BF37
S31508003FC001210820FDF724F800BF4FF48070ADF8F2
S31508003FD0000014208DF8030002208DF802006946BF
S31508003FE00848FCF713FF4FF40070ADF800001420E2
S31508003FF08DF8030002208DF8020069460148FCF797
S3150800400005FF08BD000C014010B5FFF7C3FF10BD42
S3150800401070B5054607242CE000BF00224FF48071D6
S315080040202648FCF787FF00BF00BF0120A0402840B4
S3150800403008B1012000E0002028B1012251021F48E2
S31508004040FCF778FF05E000224FF400711B48FCF7E7
S3150800405071FF00BF0220FEF76BFB00BF01221102B1
S315080040601648FCF767FF00BF0220FEF761FB601EDB
S3150800407044B2002CD0DA00BF00224FF480710F48FA
S31508004080FCF758FF00BF00BF012251020B48FCF79E
S3150800409051FF00BF0220FEF74BFB00BF01221102B1
S315080040A00648FCF747FF00BF0220FEF741FB4FF426
S315080040B000710248FCF735FF70BD0000000C014096
S315080040C02DE9F04105460E46174600BF012251026A
S315080040D01948FCF72FFF00BF00BF0122110216483E
S315080040E0FCF728FF00BF00BF00224FF400711248FA
S315080040F0FCF720FF00BF0120FEF71AFB05F0FE00C3
S31508004100FFF786FF28B100F019F84FF0FF30BDE839
S31508004110F08100240AE0305DFFF77AFF20B100F055
S315080041200DF86FF00100F2E7601C84B2BC42F2DBC6
S3150800413000F004F80020EAE7000C014010B500BFC3
S3150800414000224FF480711348FCF7F4FE00BF0120EB
S31508004150FEF7EEFA00BF00224FF400710D48FCF797
S31508004160E9FE00BF0120FEF7E3FA00BF01221102B3
S315080041700848FCF7DFFE00BF0120FEF7D9FA00BFAA
S31508004180012251020348FCF7D5FE00BF0120FEF7C5
S31508004190CFFA10BD000C014070B504460D46164610
S315080041A0324629462046FFF78BFF70BD10B590B002
S315080041B004463C221F4901A8FBF7B4FF022C01D391
S315080041C0102C01D900BFFEE74FF48030FCF7DCFF66
S315080041D000BF3120FCF7A6FF0028FAD01020FCF714
S315080041E0FBFD0220FCF706FE0020FCF7C1FF4FF49A
S315080041F08060FCF7EFFF0020FCF7F8FFA01E01AA7D
S3150800420052F820104FF48030FDF702F80120FCF731
S31508004210F9FF00BF3920FCF785FF0028FAD00220F5
S31508004220FDF704F800BFFCF79BFF0828FBD110B088
S3150800423010BD00002458000810B54FF4A060FCF724
S31508004240BBFE0920FFF7B2FF00F00AF8FFF7ACFD46
S31508004250FEF700FDFEF7D2F9FEF7F8FC10BD0000E8
S315080042602DE9F04186B02E480078002855D1012066
S315080042702B490870142101A8FBF76DFF4FF0E020C9
S31508004280006920F001004FF0E0210861002025496F
S31508004290086001A8FCF7DCFE4FF0E020006940F05A
S315080042A002004FF0E021086100211F48C1774FF452
S315080042B07A710298B0FBF1F4B4F1807F09D3E4086F
S315080042C04FF0E020006920F004004FF0E02108617B
S315080042D007E04FF0E020006940F004004FF0E021CD
S315080042E00861601E4FF0E02148610846006940F009
S315080042F001000861496921F07F41481CFCF7D1F9A2
S3150800430007463A460B4600200849FCF756F9054683
S31508004310FCF701FA0649086000BF06B0BDE8F0815F
S315080043200C0000200800002000ED00E000408F404F
S315080043301000002010B502460B464FF0FF34906877
S3150800434008B9204610BD002108E09068C06950F8F9
S315080043502100984201D10CB204E0491C9068408BB8
S315080043608842F2D800BF2046ECE70FB410B5A2B0D9
S31508004370044626A8019002A8019A2599FDF734FC5F
S315080043800020019002A9204600F026F822B010BCB1
S315080043905DF814FB2DE9F04107460E4614460CB9A4
S315080043A0BDE8F08100250CE000BF80213846FDF706
S315080043B0F9FA0028F9D0715D3846FDF7C0FB681C8C
S315080043C085B2A542F0DB00BF40213846FDF7EAFA80
S315080043D00028F9D000BFE3E770B505460C4620462D
S315080043E0FBF7D6FE86B2324621462846FFF7D2FFAD
S315080043F070BD00000080808080800080A0A0A05052
S3150800440050F850F850502078A05008D0C0C8102056
S31508004410409818E090A040A89068C040802040804E
S3150800442080804020804020202040805020F8205066
S315080044302020F82020C04080F8C0C0081020408006
S31508004440708898A8C8887040C040404040E070888E
S3150800445008102040F8F81020100888701030509086
S31508004460F81010F880F008088870304080F08888C6
S3150800447070F80810204040407088887088887070EE
S31508004480888878081060C0C000C0C0C0C000C0409E
S315080044908010204080402010F800F880402010202E
S315080044A040807088081020002070880868A8A870C6
S315080044B070888888F88888F08888F08888F07088F6
S315080044C08080808870E09088888890E0F88080F006
S315080044D08080F8F88080E080808070888080988866
S315080044E070888888F8888888C04040404040C03036
S315080044F01010101090608890A0C0A09088808080CE
S31508004500808080F888D8A8888888888888C8A898E5
S31508004510888870888888888870F08888F080808085
S3150800452070888888A89068F08888F0A09088788035
S3150800453080700808F0F820202020202088888888A5
S3150800454088887088888888885020888888A8A8D805
S31508004550888888502050888888885020202020F80D
S315080045600810204080F8E08080808080E08040202D
S315080045701008E02020202020E0205088F8804020E5
S3150800458070087888788080B0C88888F070808088BD
S3150800459070080868988888787088F880703048406D
S315080045A0E040404078887808308080B0C88888889D
S315080045B04000C0404040E0100030101090608080FD
S315080045C090A0C0A090C04040404040E0D0A8A88835
S315080045D088B0C88888887088888870F088F0808055
S315080045E0689878080808B0C880808070807008705D
S315080045F04040E0404048308888888898688888889D
S3150800460050208888A8A8508850205088888878081C
S3150800461070F8102040F8204040804040208080807C
S31508004620808080808040402040408040A810000064
S3150800463020000000210000002200000023000000E6
S3150800464024000000250000002600000027000000C6
S3150800465028000000290000002A0000002B000000A6
S315080046602C0000002D0000002E0000002F00000086
S315080046703000000031000000320000003300000066
S315080046803400000035000000360000003700000046
S3150800469038000000390000003A0000003B00000026
S315080046A03C0000003D0000003E0000003F00000006
S315080046B040000000410000004200000043000000E6
S315080046C044000000450000004600000047000000C6
S315080046D048000000490000004A0000004B000000A6
S315080046E04C0000004D0000004E0000004F00000086
S315080046F05000000051000000520000005300000066
S315080047005400000055000000560000005700000045
S3150800471058000000590000005A0000005B00000025
S315080047205C0000005D0000005E0000005F00000005
S3150800473060000000610000006200000063000000E5
S3150800474064000000650000006600000067000000C5
S3150800475068000000690000006A0000006B000000A5
S315080047606C0000006D0000006E0000006F00000085
S315080047707000000071000000720000007300000065
S315080047807400000075000000760000007700000045
S3150800479078000000790000007A0000007B00000025
S315080047A07C0000007D0000007E000000F458000830
S315080047B020000000E80300000700000000000000D9
S315080047C000000000000000000000000000000000DB
S315080047D000000000F44300082859000821000000E2
S315080047E0E8030000070000000000000000000000C9
S315080047F00000000001000700030001000700000098
S31508004800F54300085859000822000000E803000094
S315080048100700000000000000000000000000000083
S31508004820030003000200040003000000FC43000824
S315080048308859000823000000E8030000070000006C
S31508004840000000000000000000000000050007004E
S315080048500100010007000000FF430008B8590008DE
S3150800486024000000E8030000070000000000000024
S31508004870000000000000000005000600010002001C
S315080048800600000006440008E85900082500000054
S31508004890E803000007000000000000000000000018
S315080048A000000000050007000100010007000000E5
S315080048B00C440008185A000826000000E803000007
S315080048C007000000000000000000000000000000D3
S315080048D00500070001000100070000001344000856
S315080048E0485A000827000000E803000007000000F7
S315080048F000000000000000000000000002000300A5
S3150800490002000500030000001A440008785A00084F
S3150800491028000000E803000007000000000000006F
S31508004920000000000000000003000700020001006C
S31508004930070000001D440008B45A000829000000BA
S31508004940E803000007000000000000000000000067
S315080049500000000003000700020001000700000035
S3150800496024440008E45A00082A000000E80300006E
S315080049700700000000000000000000000000000022
S315080049800500050001000200050000002B44000890
S31508004990145B00082B000000E80300000700000075
S315080049A000000000000000000000000005000500EF
S315080049B0010002000500000030440008445B0008BE
S315080049C02C000000E80300000700000000000000BB
S315080049D000000000000000000200030002000100C1
S315080049E00300000035440008745B00082D00000031
S315080049F0E8030000070000000000000000000000B7
S31508004A00000000000500010001000400010000008C
S31508004A1038440008A45B00082E000000E8030000E4
S31508004A200700000000000000000000000000000071
S31508004A3002000200020001000200000039440008DA
S31508004A40D45B00082F000000E80300000700000000
S31508004A50000000000000000000000000050005003E
S31508004A6001000200050000003B440008FC5800084D
S31508004A7030000000E8030000070000000000000006
S31508004A80000000000000000005000700010001000A
S31508004A9007000000404400083059000831000000B3
S31508004AA0E803000007000000000000000000000006
S31508004AB000000000030007000200010007000000D4
S31508004AC0474400086059000832000000E803000067
S31508004AD007000000000000000000000000000000C1
S31508004AE00500070001000100070000004E44000809
S31508004AF09059000833000000E80300000700000092
S31508004B00000000000000000000000000050007008B
S31508004B10010001000700000055440008C0590008BC
S31508004B2034000000E8030000070000000000000051
S31508004B300000000000000000050007000100010059
S31508004B40070000005C440008F05900083500000022
S31508004B50E803000007000000000000000000000055
S31508004B600000000005000700010001000700000022
S31508004B7063440008205A000836000000E8030000D5
S31508004B800700000000000000000000000000000010
S31508004B900500070001000100070000006A4400083C
S31508004BA0505A000837000000E8030000070000001C
S31508004BB000000000000000000000000005000700DB
S31508004BC0010001000700000071440008805A00082F
S31508004BD038000000E803000007000000000000009D
S31508004BE000000000000000000500070001000100A9
S31508004BF00700000078440008BC5A00083900000085
S31508004C00E8030000070000000000000000000000A4
S31508004C100000000005000700010001000700000071
S31508004C207F440008EC5A00083A000000E803000038
S31508004C30070000000000000000000000000000005F
S31508004C400200050002000200050000008644000874
S31508004C501C5B00083B000000E8030000070000009A
S31508004C60000000000000000000000000020006002E
S31508004C7002000100060000008B4400084C5B000897
S31508004C803C000000E80300000700000000000000E8
S31508004C9000000000000000000400070002000100F8
S31508004CA007000000914400087C5B00083D000000F6
S31508004CB0E8030000070000000000000000000000F4
S31508004CC000000000050003000100030003000000C7
S31508004CD098440008AC5B00083E000000E8030000AA
S31508004CE007000000000000000000000000000000AF
S31508004CF00400070001000100070000009B440008AB
S31508004D00DC5B00083F000000E80300000700000025
S31508004D100000000000000000000000000500070079
S31508004D200100010007000000A24400080459000819
S31508004D3040000000E8030000070000000000000033
S31508004D400000000000000000050007000100010047
S31508004D5007000000A944000838590008410000006F
S31508004D60E803000007000000000000000000000043
S31508004D700000000005000700010001000700000010
S31508004D80B04400086859000842000000E803000023
S31508004D9007000000000000000000000000000000FE
S31508004DA0050007000100010007000000B7440008DD
S31508004DB09859000843000000E803000007000000B7
S31508004DC000000000000000000000000005000700C9
S31508004DD00100010007000000BE440008C859000889
S31508004DE044000000E803000007000000000000007F
S31508004DF00000000000000000050007000100010097
S31508004E0007000000C5440008F859000845000000DE
S31508004E10E803000007000000000000000000000092
S31508004E20000000000500070001000100070000005F
S31508004E30CC440008285A000846000000E803000091
S31508004E40070000000000000000000000000000004D
S31508004E50050007000100010007000000D344000810
S31508004E60585A000847000000E80300000700000041
S31508004E700000000000000000000000000500070018
S31508004E800100010007000000DA440008885A0008FB
S31508004E9048000000E80300000700000000000000CA
S31508004EA000000000000000000500070001000100E6
S31508004EB007000000E1440008C45A00084900000041
S31508004EC0E8030000070000000000000000000000E2
S31508004ED000000000030007000200010007000000B0
S31508004EE0E8440008F45A00084A000000E8030000F5
S31508004EF0070000000000000000000000000000009D
S31508004F00050007000100010007000000EF44000843
S31508004F10245B00084B000000E803000007000000BF
S31508004F200000000000000000000000000500070067
S31508004F300100010007000000F6440008545B000861
S31508004F404C000000E8030000070000000000000015
S31508004F500000000000000000050007000100010035
S31508004F6007000000FD440008845B00084D000000AF
S31508004F70E803000007000000000000000000000031
S31508004F8000000000050007000100010007000000FE
S31508004F9004450008B45B00084E000000E803000062
S31508004FA007000000000000000000000000000000EC
S31508004FB00500070001000100070000000B45000876
S31508004FC0E45B00084F000000E8030000070000004B
S31508004FD000000000000000000000000005000700B7
S31508004FE00100010007000000124500080C590008DE
S31508004FF050000000E8030000070000000000000061
S315080050000000000000000000050007000100010084
S315080050100700000019450008405900085100000023
S31508005020E803000007000000000000000000000080
S31508005030000000000500070001000100070000004D
S31508005040204500087059000852000000E8030000D7
S31508005050070000000000000000000000000000003B
S3150800506005000700010001000700000027450008A9
S31508005070A059000853000000E803000007000000DC
S315080050800000000000000000000000000500070006
S3150800509001000100070000002E450008D05900084D
S315080050A054000000E80300000700000000000000AC
S315080050B000000000000000000500070001000100D4
S315080050C00700000035450008005A00085500000092
S315080050D0E8030000070000000000000000000000D0
S315080050E0000000000500070001000100070000009D
S315080050F03C450008305A000856000000E803000046
S31508005100070000000000000000000000000000008A
S3150800511005000700010001000700000043450008DC
S31508005120605A000857000000E80300000700000066
S315080051300000000000000000000000000500070055
S3150800514001000100070000004A450008905A0008BF
S3150800515058000000E80300000700000000000000F7
S315080051600000000000000000050007000100010023
S315080051700700000051450008CC5A000859000000F5
S31508005180E80300000700000000000000000000001F
S3150800519000000000050007000100010007000000EC
S315080051A058450008FC5A00085A000000E8030000A9
S315080051B007000000000000000000000000000000DA
S315080051C00500070001000100070000005F45000810
S315080051D02C5B00085B000000E803000007000000E5
S315080051E000000000000000000000000003000700A7
S315080051F00200010007000000664500085C5B000825
S315080052005C000000E8030000070000000000000042
S315080052100000000000000000050005000100020073
S31508005220050000006D4500088C5B00085D00000065
S31508005230E80300000700000000000000000000006E
S31508005240000000000300070002000100070000003C
S3150800525072450008BC5B00085E000000E803000019
S315080052600700000000000000000000000000000029
S315080052700500030001000500030000007945000849
S31508005280EC5B00085F000000E80300000700000070
S3150800529000000000000000000000000005000100FA
S315080052A001000100010000007C45000814590008AF
S315080052B060000000E803000007000000000000008E
S315080052C000000000000000000300030002000500C3
S315080052D0030000007D4500084859000861000000E9
S315080052E0E8030000070000000000000000000000BE
S315080052F0000000000500050001000100050000008F
S31508005300804500087859000862000000E80300009C
S315080053100700000000000000000000000000000078
S315080053200500070001000100070000008545000888
S31508005330A859000863000000E80300000700000001
S315080053400000000000000000000000000500050045
S3150800535001000100050000008C450008D859000826
S3150800536064000000E80300000700000000000000D9
S315080053700000000000000000050007000100010011
S315080053800700000091450008085A0008650000005B
S31508005390E80300000700000000000000000000000D
S315080053A000000000050005000100010005000000DE
S315080053B098450008385A000866000000E80300000F
S315080053C007000000000000000000000000000000C8
S315080053D00500070001000100070000009D450008C0
S315080053E0685A000867000000E8030000070000008C
S315080053F00000000000000000000000000500050095
S315080054000100010005000000A4450008985A00089C
S3150800541068000000E8030000070000000000000024
S315080054200000000000000000050007000100010060
S3150800543007000000A9450008D45A000869000000C2
S31508005440E80300000700000000000000000000005C
S31508005450000000000300070002000100070000002A
S31508005460B0450008045B00086A000000E803000075
S315080054700700000000000000000000000000000017
S31508005480040007000100010007000000B7450008F6
S31508005490345B00086B000000E8030000070000000A
S315080054A000000000000000000000000004000700E3
S315080054B00200010007000000BE450008645B000802
S315080054C06C000000E8030000070000000000000070
S315080054D000000000000000000300070002000100B1
S315080054E007000000C5450008945B00086D00000031
S315080054F0E8030000070000000000000000000000AC
S31508005500000000000500050001000100050000007C
