S31508000000C826002001010008D3120008CB120008F8
S31508000010CF1200085D1100083F1C00080000000010
S315080000200000000000000000000000009115000814
S315080000306111000800000000591300087D16000829
S315080000401B0100081B0100081B0100081B01000812
S315080000501B0100081B0100081B0100081B01000802
S315080000601B0100081B0100081B0100081B010008F2
S315080000701B0100081B0100081B0100081B010008E2
S315080000801B0100081B0100081B0100081B010008D2
S315080000901B0100081B0100081B0100081B010008C2
S315080000A01B0100081B0100081B0100081B010008B2
S315080000B0F5160008351700081B0100081B01000883
S315080000C01B0100081B0100081B0100081B01000892
S315080000D01B01000885180008611900081B010008A3
S315080000E01B0100081B0100081B010008DFF80CD0E3
S315080000F000F072FE0048004711370008C8260020A5
S315080001000648804706480047FEE7FEE7FEE7FEE7A3
S31508000110FEE7FEE7FEE7FEE7FEE7FEE795160008C0
S31508000120ED00000840EA01039B0703D009E008C96F
S31508000130121F08C0042AFAD203E011F8013B00F89E
S31508000140013B521EF9D27047D2B201E000F8012BEA
S31508000150491EFBD270470022F6E710B513460A4639
S3150800016004461946FFF7F0FF204610BD30B5054690
S315080001702A460B4612F8010B13F8014B08B1A042A8
S31508000180F8D01CB1002802D06D1CF1E7284630BD16
S315080001900FB400B58DB010A909900B9000914FF0DF
S315080001A0FF300A9000200C900548069005480790F5
S315080001B06A4609A80F9900F011FD0DB05DF814FB09
S315080001C0F90B0008170C00082DE9FF5F1D464FF0D4
S315080001D0FF3BD5E9014691465F464FF00008A969FD
S315080001E07F1C01988847296A824688470028F6D1E5
S315080001F0BAF1FF3F0CD024F4C064002E19DD600666
S3150800020014D5BAF12B0F09D0BAF12D0F0ED103E090
S31508000210584604B0BDE8F09F44F48064A9697F1C81
S3150800022001988847761E8246002E02DDBAF1300F05
S3150800023003D0B9F1000F26D032E0A969761E44F43E
S3150800024000747F1C019888478246002E05DDBAF1A6
S31508000250780F06D0BAF1580F03D0B9F1000F10D0B5
S315080002601EE0B9F1000F02D0B9F1100F18D1A96933
S31508000270761E24F400747F1C019888478246102055
S3150800028002E0082000E00A20814609E008FB090888
S31508000290A969761E44F400747F1C01988847824633
S315080002A0002E05DD4946504600F084FC0028EDDAAC
S315080002B0E96901988847A00502D46FF00100A8E70C
S315080002C0E00725D1600613D5600502D5C8F1000000
S315080002D000E0404629680A1D2A600968220501D5FA
S315080002E0087015E0220701D5088011E008600FE0C4
S315080002F02868011D29600068210502D580F800805C
S3150800030006E0210702D5A0F8008001E0C0F80080C9
S3150800031038467EE72DE9FF4F087883B09946FF28CF
S3150800032005D0491C2D2804D00024002008E0002010
S315080003300BE00124F9E700EB800003EB4000491CC1
S315080003400B78FF2BF7D104B14042002302931478AF
S3150800035019461D462D2C01D02B2C04D1521C2D2CB0
S3150800036013D000240294AA461478FF2C0FD00A252D
S31508000370A3FB057801FB05814FF0000C03FB0C116C
S31508000380521CE3194AEB0101EEE70124EAE781442E
S3150800039053EA010002D019F5C87F06DA039800214E
S315080003A0C0E9001107B0BDE8F08F0025AE4E2F4614
S315080003B0DFF8B882184600F0D3FCCDE90001B9F1A0
S315080003C0000002DAC9F1000400E004460023A74A47
S315080003D01AEB030B42EB045A12E0E00707D02A4651
S315080003E033463846414600F01EFA074688462A46EE
S315080003F033461046194600F016FA05460E466410AE
S31508000400002CEAD1DDE90001B9F1000F5A4653463E
S3150800041006DA00F07AFA3A46434600F076FA05E03C
S3150800042000F001FA3A46434600F0FDF9029A0AB18D
S3150800043081F00041039AC2E90001B3E72DE9FF4FB5
S315080004401F468DB0D7E901464FF0FF382E204546A6
S315080004504FF000090B90B9696D1C0E988847396AE8
S31508000460824688470028F6D1BAF1FF3F0AD024F41D
S31508000470D064002E11DDBAF12B0F08D0BAF12D0F7A
S315080004800BD102E0404611B08DE744F48064B969A7
S315080004906D1C0E9888478246761E6946600501D50A
S315080004A02D2000E02B208DF8000001F1010B0DF145
S315080004B0200809E0B9696D1C0E98884782460F988E
S315080004C044F40074761E0560002E02DDBAF1300F82
S315080004D0F0D00B998A453ED144F0800406E00F9986
S315080004E0681CA9F1010944F400740860B9696D1C17
S315080004F0761E0E98884782463028F0D02BE00B9956
S315080005008A4505D1200603D444F08004761E18E0F7
S31508000510504601F0A5FC08B30DF11301761E44F40C
S3150800052000748B4508D2AAF130000BF8010B20069F
S3150800053007D5A9F1010003E0200602D409F101005C
S315080005408146A00502D50F99681C0860B9696D1C1B
S315080005500E9888478246002ED1DC53E0002E51DDE6
S31508000560BAF1650F02D0BAF1450F4BD1A00549D5AE
S31508000570B9696D1C24F44074761E0E988847824625
S31508000580002E0CDD2B2804D0BAF12D0F07D144F428
S315080005908074B9696D1C0E9888478246761EE005F8
S315080005A001D52D2100E02B2108F8011BCDF82C8060
S315080005B021E00DF12901761E44F4007488450CD219
S315080005C0AAF1300010F0FF0088F8000002D10B995C
S315080005D0884509D908F1010806E0E00501D524484F
S315080005E001E042F20F708146B9696D1C0E98884782
S315080005F082460F980560002E04DD504601F030FC57
S315080006000028D6D1F9690E988847FF208BF8000094
S3150800061088F800000020069007904B466A4608A90D
S3150800062006A8FFF777FEA00502D46FF001002AE7B7
S3150800063014F0240F0AD0E00714D1DDE90612386851
S31508000640031D3B600068C0E900120BE0DDE9060106
S3150800065000F01CFA0146E00704D13868021D3A602A
S315080006600068016028460EE7000014400000F03FCD
S31508000670F1D8FFFF80EA010210B502F000434000FE
S3150800068022D04A001FD0010E01EB1261C0F35600BA
S31508000690C2F3560240F4000042F40002A0FB022016
S315080006A000047F39140400D0401C50EA124001D4DB
S315080006B04000491EC2B20C0604EBD010401C40088C
S315080006C0802A02D003E0002010BD20F00100002996
S315080006D000DA0020184310BD2DE9FE4F804681EA56
S315080006E00300C00F0C46009021F0004123F000459E
S315080006F0B8EB0200A94105D24046214690461C4661
S315080007000B46024623F00040104347D0270DC7F397
S315080007100A00C3F30A510290401A019040286BDA86
S31508000720C3F3130040F4801B0098924620B10023BF
S31508000730D2EB030A63EB0B0B01985946C0F1400252
S31508000740504600F006FA06460D4650465946019AA6
S3150800075000F01EFA10EB08006141002487EA1152E6
S3150800076084EAE7731A4340D0009A62B3019A012AD1
S315080007704FEA075215DC001B61EB02014FF00042FD
S3150800078002EA0752CDE90042001C41F580113246C3
S315080007902B4600F097FA03B0BDE8F08F4046214695
S315080007A0F9E7001B61EB0201001C41F580130018F4
S315080007B05B412018A2F5001747EB030140EAD57004
S315080007C0B6196D4111E06D084FEA360645EAC0755F
S315080007D04FEA0752001B61EB0201001C41F580112C
S315080007E049084FEA30000019514132462B4603B0FA
S315080007F0BDE8F04F00F057BA0098012240000023E8
S31508000800D0EB020263EBE073009821464FEAE074EE
S31508000810B8EB000061EB0401E9E783F000435BE70E
S3150800082081F0004158E72DE9FE4F81EA030404F000
S31508000830004421F0004100944FF0000B23F00043E0
S3150800084050EA01045ED052EA03045BD0C3F30A54AB
S31508000850C1F30A552C44A4F2F3340194A0FB0254C4
S31508000860C1F3130141F48011C3F3130343F4801356
S3150800087001FB024400FB034E840A970A44EA8154AA
S3150800088047EA8357A4FB076802958D0A05FB078587
S315080008904FEA932C04FB0C542705029D4FEA065891
S315080008A047EA1637B5EB08056EEB070C870E920E6E
S315080008B047EA811742EA8312A7FB0201B6EB0B014E
S315080008C064EB00042B0D43EA0C335E1844EB1C5012
S315080008D0DA465146E7FB0201C5F313044FEA0B3328
S315080008E043EA14534FEA0432019C43EA0603A4F18F
S315080008F00C040294009CCDE900B400F0E3F903B0BF
S31508000900BDE8F08F00200146F9E72DE9F04D81EAB0
S31508000910030404F0004B21F0004514464FF0000A8A
S3150800092023F0004150EA050220D054EA01021DD006
S31508000930C5F30A570246C5F31303C1F31300C1F3FF
S315080009400A5640F4801543F48013A7EB0608101BDB
S31508000950D64608F2FD3873EB050002D308F1010804
S3150800096001E092185B41B8F1000F03DA0020014656
S31508000970BDE8F08D00204FF48011064684460EE04F
S31508000980171B73EB050705D3121B63EB0503064319
S315080009904CEA010C49084FEA300092185B4150EACC
S315080009A00107EDD152EA030012D082EA040083EA75
S315080009B00501084305D0101BAB4106D201220023CE
S315080009C006E000224FF0004302E06FF001025310E8
S315080009D01AEB06004CEB085110EB0A0041EB0B0131
S315080009E0BDE8F04D00F05FB996230022114600F0ED
S315080009F02CB90EB540F2334102910021CDE9001120
S31508000A000A460B4600F05EF903B000BD20F0004030
S31508000A10C10DC0F3160040F400007F2901DA00205A
S31508000A207047962903DCC1F19601C840704796398C
S31508000A3088407047C1F30A5210B5C1F3130140F25A
S31508000A40FF3341F480119A4201DA002010BD40F2CA
S31508000A5033439A42A2F2334203DC524200F088F84A
S31508000A6010BD904010BD00F0004230F000400AD0A2
S31508000A70C10D01F56071C0F3160042EA0151C208C2
S31508000A8040071143704700200146704701F00043B4
S31508000A9030B421F0004150EA010206D00A0DA2F551
S31508000AA06072C1F31301002A02DC30BC00207047D3
S31508000AB0440F44EAC104C100E01830BC00EBC25040
S31508000AC000F0BAB830B50B460146002020220124B2
S31508000AD009E021FA02F59D4205D303FA02F5491BFE
S31508000AE004FA02F52844151EA2F10102F1DC30BD14
S31508000AF02DE9F05F0546002092469B468846064645
S31508000B00814640241BE0284641464746224600F0D7
S31508000B102FF853465A46C01A914110D31146184623
S31508000B20224600F016F82D1A67EB01084F462246B2
S31508000B300120002100F00DF817EB00094E41201E98
S31508000B40A4F10104DFDC484631462A464346BDE89F
S31508000B50F09F202A04DB203A00FA02F100207047B1
S31508000B609140C2F1200320FA03F3194390407047DD
S31508000B70202A04DB203A21FA02F00021704721FAE4
S31508000B8002F3D040C2F1200291400843194670474B
S31508000B90202A06DBCB17203A41FA02F043EAE07333
S31508000BA006E041FA02F3D040C2F120029140084320
S31508000BB0194670473A2800D2303820F02002412AD8
S31508000BC001D3A2F13700884201D34FF0FF307047B6
S31508000BD0026811441378016018467047D1600449C9
S31508000BE051610449116200211161114600F00CB9E6
S31508000BF0D10B0008FD0D0008426842B1016811F8E2
S31508000C00013B23B1521EC0E9001218467047012164
S31508000C10C160881E704742685AB1C368016843B903
S31508000C2083688B4205D0491E521CC0E90012002079
S31508000C3070474FF0FF3070470029A8BF7047401C27
S31508000C40490008BF20F00100704710B4B0FA80FCD4
S31508000C5000FA0CF050EA010404BF10BC704749B111
S31508000C60CCF1200421FA04F411FA0CF118BF012181
S31508000C7021430843A3EB0C01CB1D4FEA00614FEA61
S31508000C80102042BF002010BC704700EBC350104430
S31508000C900029A4BF10BC7047401C490008BF20F0BB
S31508000CA0010010BC704710B5141E73F1000408DA71
S31508000CB0401C41F1000192185B411A4301D120F012
S31508000CC0010010BD2DE9F04D92469B4611B1B1FACF
S31508000CD081F202E0B0FA80F220329046FFF739FF3F
S31508000CE004460F4640EA0A0041EA0B0153465A46B3
S31508000CF0084313D0114653EA010019D0C8F140023F
S31508000D005046FFF735FF05460E46504659464246B9
S31508000D10FFF71FFF084305D0012004E020463946A7
S31508000D20BDE8F08D0020054346EAE0762C433743BC
S31508000D300A986305E40AA0EB08000022FD0A44EAC3
S31508000D4047540A3002D500200146E9E70105101983
S31508000D506941DDE9084500196941BDE8F04DA2E79A
S31508000D600EB540F2334202920022CDE90022134624
S31508000D70FFF7A8FF03B000BDC1F30A52C1F3130180
S31508000D8040F2FF3341F480119A4202DA002001460C
S31508000D90704740F233439A42A2F2334202DC52428F
S31508000DA0FFF7E6BEFFF7D5BE30B5041E71F10004A5
S31508000DB004DB4FF00044404264EB0101141E73F15A
S31508000DC0000405DB1C464FF00043524263EB040364
S31508000DD0994208BF904230BD064C074D06E0E068D0
S31508000DE040F0010394E8070098471034AC42F6D364
S31508000DF0FFF780F93059000850590008C0B24FF47F
S31508000E00F05100F097B900002DE9F34F8BB04FF081
S31508000E10000801F10C000C464FF0010B46460DF197
S31508000E20080A01906269012101989047051E2DD094
S31508000E30252D2CD0216A8847C0B162690121019805
S31508000E409047216A88470028F7D1411E62690198B0
S31508000E50904700E0761CA1690B988847216A884765
S31508000E600028F7D1E1690B988847DBE7A1690B9859
S31508000E7088470746A84201D1761CD3E7E1690B9853
S31508000E8088477F1C02D1B8F1000F6FD046E10027D2
S31508000E9062693D463946019890472A2804D1626915
S31508000EA00121019890470125DFF8849262690121A2
S31508000EB001989047A0F130010A290AD24F45E5DC8E
S31508000EC007EB870100EB4107303FDFD445F01005FB
S31508000ED0ECE7E90601D46FF000476C280AD04C28E5
S31508000EE014D0682815D06A280DD074281CD07A2802
S31508000EF01AD01DE062690121019890476C2802D03A
S31508000F0045F0040514E045F002050DE045F020051E
S31508000F100AE06269012101989047682802D045F0E5
S31508000F20080505E045F400656269012101989047C6
S31508000F30C4E9015765283DD019DC58287AD00CDC5D
S31508000F40452837D004DC252826D0412831D131E080
S31508000F5046282FD047282CD12CE05B2877D061284B
S31508000F6028D063287CD0642823D15AE0D0E06F28A3
S31508000F7048D008DC66281DD067281BD0692821D0F0
S31508000F806E2816D127E0702845D0732868D07528B2
S31508000F9047D078280DD14DE0A1690B9888470546BA
S31508000FA025283FF469AFE1690B9888476D1C3FF423
S31508000FB06AAFB3E023466A466FF001000B99FFF764
S31508000FC03DFA9EE045F040006060A80723464FF0D2
S31508000FD0000236D43EE0E8077FF447AF2068011DDB
S31508000FE021600068290501D506701BE7290701D588
S31508000FF0068017E7A90703D5F117C0E9006111E7CD
S3150800100006600FE745F040006060A80723464FF0EA
S31508001010080216D41EE040F60E0125EA01006060BB
S3150800102016E045F040006060A80723464FF00A0224
S3150800103007D40FE045F040006060A80708D52346AE
S3150800104010226FF001000B99AFF3008059E007E01A
S31508001050234610226FF001000B99FFF7B5F850E010
S315080010604FF000094F464B46632802D05B2806D04E
S3150800107040E0E80601D40120A06001273AE0626951
S315080010800121019890475E2805D14FF00109626950
S31508001090494601989047216939B900210A465346BD
S315080010A043F82120491C0829FADBB0B3216969B93C
S315080010B0C11700EBD16253110AEB830122F01F021C
S315080010C0821A01200B68904003430B606269012174
S315080010D0019890475D28E8D1B9F1000F09D00020A2
S315080010E0514651F82020D24341F82020401C0828B8
S315080010F0F7DB02AB224600976FF001000B99AFF3BE
S31508001100008000280CDA401C08D1BBF1000F05D07E
S315080011104FF0FF300DB0BDE8F08FFFE74046F9E726
S31508001120E90701D108F1010806444FF0000B79E6FA
S31508001130CCCCCC0C7F2801D9002208E0064A02EB69
S315080011405002C007127800D1120902F00F020120DE
S315080011509040084070470000E855000800BFFEE7C9
S31508001160704700000549096821F01001034A11601B
S3150800117011460968014311607047000000200240CB
S3150800118001460020034A106800F038000843106042
S3150800119070470000002002402DE9F0410246002574
S315080011A00026002000230024002791F803C00CF035
S315080011B00F0591F803C00CF0100CBCF1000F03D01A
S315080011C091F802C04CEA050591F800C0BCF1000F81
S315080011D031D0146800202BE04FF0010C0CFA00F314
S315080011E0B1F800C00CEA03069E4220D183004FF0F6
S315080011F00F0C0CFA03F7BC4305FA03FC4CEA04048B
S3150800120091F803C0BCF1280F06D14FF0010C0CFA77
S3150800121000FCC2F814C00AE091F803C0BCF1480FFC
S3150800122005D14FF0010C0CFA00FCC2F810C0401CA6
S315080012300828D1D31460B1F800C0BCF1FF0F34DD23
S31508001240546800202EE000F1080C4FF0010808FA57
S315080012500CF3B1F800C00CEA03069E4221D18300C4
S315080012604FF00F0C0CFA03F7BC4305FA03FC4CEAE3
S31508001270040491F803C0BCF1280F05D100F1080C4D
S3150800128008FA0CF8C2F8148091F803C0BCF1480FAC
S3150800129007D100F1080C4FF0010808FA0CF8C2F85B
S315080012A01080401C0828CED35460BDE8F081024661
S315080012B0002093680B400BB1012000E00020704726
S315080012C00AB1016100E04161704700BFFEE700BF57
S315080012D0FEE7704770B5002100230F22C47804B3D7
S315080012E0154C246804F4E064C4F5E064210AC1F1ED
S315080012F00403CA40447804FA03F18478144021436D
S3150800130009010E4C0678A155047804F01F0501243E
S31508001310AC4005786D11AD0005F1E025C5F8004132
S3150800132009E0047804F01F050124AC40044D067852
S31508001330761145F8264070BD0CED00E000E400E0AB
S3150800134080E100E002490143024A1160704700004B
S315080013500000FA050CED00E07047000029B1064AC6
S31508001360D2690243044BDA6104E0034AD269824334
S31508001370014BDA61704700000010024029B1064AA5
S3150800138092690243044B9A6104E0034A92698243D4
S31508001390014B9A61704700000010024030B50021E9
S315080013A00022002400232D4D6D6805F00C0121B1A3
S315080013B0042905D0082923D105E0294D056022E036
S315080013C0274D05601FE0254D6D6805F47012234D05
S315080013D06D6805F48034022505EB92421CB9214D4F
S315080013E0554305600BE01D4D6D6805F400351DB1CC
S315080013F01C4D5543056002E0194D5543056002E052
S31508001400174D056000BF00BF144D6D6805F0F0016B
S315080014100909154D6B5C0568DD4045600F4D6D6823
S3150800142005F4E061090A104D6B5C4568DD4085608E
S315080014300A4D6D6805F46051C90A0B4D6B5C456829
S31508001440DD40C560054D6D6805F44041890B074DC3
S315080014506B5CC568B5FBF3F5056130BD001002404D
S3150800146000127A0000093D00140000202400002024
S3150800147010B501460022002300204A11012A02D194
S31508001480094C236806E0022A02D1074C236A01E0C8
S31508001490054C636A01F01F02012494401C400CB1FC
S315080014A0012000E0002010BD0010024002484068FC
S315080014B000F00C00704700000010024001460020B2
S315080014C0034A506820F0F000084350607047000057
S315080014D0001002401149096821F480310F4A116051
S315080014E01146096821F480211160B0F5803F03D0C8
S315080014F0B0F5802F0ED106E00849096841F480311D
S31508001500064A116007E00549096841F4A021034A23
S31508001510116000E000BF00BF7047000000100240E5
S3150800152001460020034A506820F4E06008435060F2
S31508001530704700000010024001460020034A506828
S3150800154020F4605040EAC100506070470010024025
S315080015500149086670470000000042420246002022
S31508001560044B586820F47C1042EA01031843014BE7
S31508001570586070470010024001460020034A506830
S3150800158020F0030008435060704700000010024036
S31508001590704710B500F002F810BD00000CB5002029
S315080015A0019000903348006840F480303149086063
S315080015B000BF3048006800F4003000900198401CD5
S315080015C00190009818B90198B0F5A06FF1D1294893
S315080015D0006800F4003010B10120009001E00020FE
S315080015E000900098012843D12348006840F0100075
S315080015F0214908600846006820F007000860084688
S31508001600006840F0020008601A48406819494860B6
S315080016100846406848600846406840F4806048606C
S315080016200846406820F47C1048600846406840F444
S31508001630E81048600846006840F08070086000BFFF
S315080016400C48006800F000700028F9D00948406886
S3150800165020F00300074948600846406840F0020049
S31508001660486000BF0348406800F00C000828F9D11C
S315080016700CBD000000100240002002400448036828
S3150800168040685A1C40F1000001490A6048607047EA
S315080016900800002010B51348006840F00100114901
S315080016A0086008464068104908400E4948600846E0
S315080016B000680E4908400B4908600846006820F48F
S315080016C0802008600846406820F4FE0048604FF411
S315080016D01F008860FFF75DFF4FF00060044908604F
S315080016E010BD0000001002400000FFF8FFFFF6FEE4
S315080016F008ED00E010B501210C48006800F049F833
S3150800170098B101210948006800F034F80848B0F893
S31508001710800020F4004000F500400549A1F880004B
S3150800172000210248006800F028F810BD28000020B3
S315080017307000002010B501210C48006800F029F857
S3150800174098B101210948006800F014F80848B0F873
S31508001750000220F4004000F500400549A1F8000207
S3150800176000210248006800F008F810BD300000208B
S3150800177074010020CA430282704721B1028842F0F0
S315080017800102028004E002884FF6FE731A400280C6
S31508001790704730B50246002000230024158A05EA62
S315080017A00103958905EA010413B10CB1012000E093
S315080017B0002030BD1AB183890B43838102E08389F7
S315080017C08B4383817047818470470000002202881A
S315080017D01D4B98420ED01D4B98420BD0B0F1804F4E
S315080017E008D01B4B984205D01A4B984202D01A4B88
S315080017F0984204D14FF68F731A404B881A43174BF9
S31508001800984207D0164B984204D04FF6FF431A4029
S31508001810CB881A4302808B8883850B8803850A4BFD
S3150800182098420BD0094B984208D00E4B984205D0E7
S315080018300D4B984202D00D4B984201D10B7A038684
S315080018400123838270470000002C014000340140C8
S315080018500004004000080040000C00400010004052
S315080018600014004000400140004401400048014087
S315080018704FF6FF71818000210180C180418001728D
S315080018807047000010B508213248006800F0FAF8E1
S3150800189040B108212F48006800F0D0F82D480068AC
S315080018A000F0B8F940F225512A48006800F0F7F828
S315080018B000284DD02748006800F0ACF9C4B2264885
S315080018C0B0F88000C0F30E007F2822DA00212348F2
S315080018D00068FFF778FF2048B0F88000C0F30E00D4
S315080018E020B901211D480068FFF747FF1A48B0F8DC
S315080018F08000C0F30E0018490C540846B0F8800062
S31508001900401CB1F8801060F30E011348A0F880104F
S3150800191018E01148B0F880006FF30E000E49A1F8E0
S3150800192080000846B0F88000C0F30E000C54084644
S31508001930B0F88000401CB1F8801060F30E0106482C
S31508001940A0F8801040F225510248006800F07FF8A0
S3150800195010BD00002C000020700000202800002088
S3150800196010B508213248006800F08CF840B108210B
S315080019702F48006800F062F82D48006800F04AF920
S3150800198040F225512A48006800F089F800284ED010
S315080019902748006800F03EF9C4B22648B0F80002AD
S315080019A0C0F30E00B0F5FF7F22DC00212248006854
S315080019B0FFF709FF1F48B0F80002C0F30E0020B970
S315080019C001211D480068FFF7D8FE1A48B0F8000242
S315080019D0C0F30E0017490C540846B0F80002401C24
S315080019E0B1F8001260F30E011248A0F8001218E0D0
S315080019F01048B0F800026FF30E000E49A1F8000275
S31508001A000846B0F80002C0F30E000C540846B0F8B9
S31508001A100002401CB1F8001260F30E010548A0F858
S31508001A20001240F225510248006800F010F810BD77
S31508001A3034000020740100203000002001F40072F8
S31508001A40B2F5007F00D100BFCA430280704710B5C7
S31508001A500022002340F66A14A14200D100BF0A12F0
S31508001A6001249440A3B2DC43048010BD21B18289CD
S31508001A7042F40052828104E082894DF6FF731A40CF
S31508001A808281704702460020B1F5007F00D100BF71
S31508001A9013880B400BB1012000E00020704770B599
S31508001AA00246002400230025002040F66A16B142AB
S31508001AB000D100BFC1F3421501F01F03012606FA43
S31508001AC003F3012D02D19689334006E0022D02D197
S31508001AD0168A334001E0968A33400C12012606FA2C
S31508001AE004F41688344013B10CB1012000E000203C
S31508001AF070BDF0B50346002400260025002040F6F8
S31508001B006A17B94200D100BF1846C1F3421401F062
S31508001B101F06012707FA06F5012C01D10C3004E04F
S31508001B20022C01D1103000E014301AB107682F4397
S31508001B30076002E00768AF430760F0BD2DE9F0478C
S31508001B4086B005460E460024A24600BFA1460027D9
S31508001B50B08900B100BF2F462C8A4CF6FF700440AE
S31508001B60F08804432C82AC894EF6F3100440B08802
S31508001B7031890843718908430443AC81AC8A4FF61E
S31508001B80FF400440B0890443AC8201A8FFF706FC75
S31508001B901F48874202D1DDF810A001E0DDF80CA04D
S31508001BA0A88900F4004040B10AEBCA0000EB0A100D
S31508001BB031684900B0FBF1F807E00AEBCA0000EB10
S31508001BC00A1031688900B0FBF1F86420B8FBF0F020
S31508001BD004012009642101FB1089A88900F400404A
S31508001BE040B1322000EBC900B0FBF1F000F007006D
S31508001BF0044308E0322000EB09106421B0FBF1F041
S31508001C0000F00F0004432C8106B0BDE8F087000001
S31508001C100038014001468888C0F308007047C1F3C0
S31508001C200802828070474FF41651016000218180B6
S31508001C30C18001810C21418100218181704700BF4B
S31508001C40FEE700000FB4084B10B504A902AA0398D2
S31508001C5000F00EF9044602A9002000F0ABFC20466D
S31508001C6010BC5DF814FB0000B52500087CB50446D9
S31508001C7000201D46164600290BD0491ECDE9004115
S31508001C80044B6A462946304600F0F2F8009A0021CD
S31508001C9011707CBD9F25000837B514460846064BCB
S31508001CA06A46214600F0E4F804466946002000F03A
S31508001CB081FC20463EBD0000B525000802E008C8A4
S31508001CC0121F08C1002AFAD170477047002001E0A8
S31508001CD001C1121F002AFBD1704700002DE9FF5FE2
S31508001CE082B00021DDE90430020DDDF840B003437F
S31508001CF018D044F61050A2F2FF3242431514119838
S31508001D0001281FD0A5EB0B00401C5FEA000A4FF024
S31508001D1000064E4FDFF83891B046504615D5CAF141
S31508001D20000413E0119801244AA3012801D16FEA9F
S31508001D300B010298119AC0E90031C0E9024206B0C7
S31508001D40BDE8F09FCBF10000DFE704460021404ADA
S31508001D50491842EB0450CDE9001012E0E00707D01D
S31508001D6032463B4640464946FEF75DFD8046894673
S31508001D7032463B4610461946FEF755FD06460F46BF
S31508001D806410002CEAD1DDE90401DDE90023BAF18B
S31508001D90000F06DAFEF747FD42464B46FEF743FDBF
S31508001DA005E0FEF7B2FD42464B46FEF7AEFD044699
S31508001DB00E460022284BFEF7F7FF03D84FF0FF30F8
S31508001DC0014607E00022254B20463146FEF784FCF3
S31508001DD0FEF7D2FF102409E0002C0ADB0A220023B2
S31508001DE0FEF786FE039B30321A55641E50EA01023E
S31508001DF0F2D1641C039AC4F111031444119A012AFE
S31508001E0003D0012208430DD10AE0084304D000207C
S31508001E104FF0110B119072E7A3EB0B056D1E0DE049
S31508001E205B4504DD4FF0000205F1010504E003DA25
S31508001E304FF00002A5F10105002AECD0029811998D
S31508001E40C0E90231C0E9004579E700000000144006
S31508001E500000F03F300000000000F0430000E03FC3
S31508001E6030380A2801D20120704700207047000048
S31508001E702DE9FF4F95B09B468946064600250FE299
S31508001E80252877D100242746F84A0121059400E041
S31508001E90044316F8013F203B01FA03F01042F7D13C
S31508001EA030782A2811D06FF02F033078A0F130024D
S31508001EB0092A16D8059A44F0020402EB820203EBBB
S31508001EC042021044761C0590EFE759F8042B059258
S31508001ED0002A03DA504244F40054059044F0020400
S31508001EE0761C30782E2816D116F8010F44F0040413
S31508001EF02A280DD06FF02F023078A0F13003092B75
S31508001F0009D807EB870302EB4303C718761CF3E7E8
S31508001F1059F8047B761C30786C280FD006DC4C28E0
S31508001F2017D068280DD06A2814D104E0742810D078
S31508001F307A280FD10DE044F400140AE044F4801422
S31508001F4001E044F440147278824202D104F5801408
S31508001F50761C761C307866280BD013DC582877D088
S31508001F6009DC002875D04528F6D04628F4D047283D
S31508001F701AD19DE118E0632835D0642879D0652800
S31508001F8012D195E1702873D008DC6728F1D069284A
S31508001F906FD06E280DD06F2806D1B5E073282CD0E7
S31508001FA0752875D0782874D05A46179990476D1CAD
S31508001FB075E1C4F30250022809D003280DD0D9F8D8
S31508001FC0001004280DD00D6009F1040967E1D9F85D
S31508001FD00010EA17C1E90052F6E7D9F800100D809B
S31508001FE0F2E70D70F0E719F8041B8DF800100020D1
S31508001FF08DF80100EA46012003E059F804AB4FF0DA
S31508002000FF3061074FF0000102D40DE008F101012D
S315080020108846B9420FDA8045F8DB1AF80810002915
S31508002020F4D108E008F1010188468142FADB1AF882
S3150800203008100029F6D105985B46A0EB080721464B
S315080020403846179A00F094FA284400EB080507E08A
S315080020504DE029E10DE01AF8010B5A461799904709
S31508002060B8F10108F7D25B4621463846179A13E1BC
S3150800207042E00A220092C4F302524FF0000A022AF2
S3150800208008D059F804CB032A4FEAEC710AD00DE0C0
S3150800209029E02AE009F1070121F00702F2E802C166
S315080020A0914609E00FFA8CFC4FEAEC71042A03D139
S315080020B04FFA8CFC4FEAEC71002907DA0A46002130
S315080020C0DCF1000C61EB02012D2202E0220504D5A9
S315080020D02B228DF80420012203E0E20701D02022FA
S315080020E0F7E7904659E00A2102E010220DE0102198
S315080020F04FF0000A00910BE010224FF0000A44F05E
S3150800210004040827009203E008224FF0000A009210
S31508002110C4F30252022A05D059F804CB0021032A37
S3150800212008D009E009F1070121F00702F2E802C127
S31508002130914605E01FFA8CFC042A01D10CF0FF0C2D
S315080021404FF00008220728D5702806D0009B83F098
S31508002150100353EA0A0305D00EE040228DF8042046
S31508002160012208E05CEA010206D030228DF804203C
S315080021708DF8050002229046009B83F0080353EA77
S315080021800A030AD15CEA010201D1620705D53022A9
S315080021908DF804204FF001087F1E582804D034A07B
S315080021A003900EA802900DE036A0F9E75346604664
S315080021B0009AFEF79DFC84460398825C0298401EAE
S315080021C0029002705CEA0100F0D1029806A9081A8A
S315080021D000F1200A600702D524F4803400E00127C4
S315080021E0574502DDA7EB0A0000E0002000EB0A01D4
S315080021F0009005984144401A0590E00306D45B46D2
S315080022002146179A059800F0B3F90544002706E019
S3150800221001A85A46C05D179990476D1C7F1C474513
S31508002220F6DBE0030CD55B462146179A059800F0C5
S315080022309FF9054404E030205A46179990476D1CCB
S315080022400099481E00900029F5DC08E002980299DA
S315080022505A460078491C0291179990476D1CBAF1A5
S315080022600001AAF1010AF1DC65E100000928010074
S3150800227030313233343536373839616263646566EE
S3150800228000000000303132333435363738394142B0
S31508002290434445460000000000F058F90544761C02
S315080022A0307800287FF4ECAD19B02846BDE8F08FE9
S315080022B0620700D4062709F1070222F0070CFCE89A
S315080022C00223E14603F000485FEA080C02D00FF249
S315080022D0702C0DE05FEA045C02D50FF2682C07E06B
S315080022E05FEAC47C02D00FF2602C01E0AFF2700CFA
S315080022F04FF0FF3823F00043CDF850C065280CD0C6
S3150800230006DC452809D046281DD047283DD13DE0A2
S31508002310662818D067287ED138E00021112F01DB06
S31508002320112000E0781CCDE9000106A90EA8FFF7E8
S31508002330D5FCDDE90F010E9A03910021009207F101
S31508002340010A04914DE04FF000400097CDE90110D5
S3150800235006A90EA8FFF7C2FCDDE90F0203920E9B41
S3150800236011990022DDF80CA00093049211B9791C8A
S3150800237000EB010AB7EB0A0004D4C0F1FF3007F1FD
S31508002380010A0490AAEB0700019044E0012F00DA45
S3150800239001270021112F01DD112000E03846CDE983
S315080023A0000106A90EA8FFF799FCDDE90F010E9AB0
S315080023B00391002104910092BA4621070CD403998F
S315080023C0514500DA8A46BAF1010F05DD009AAAF1ED
S315080023D00101515C302908D0B84202DA10F1040F25
S315080023E006DA0121CDE9011015E0AAF10101E9E7B4
S315080023F0002805DC049901440491AAEB000102E0D7
S31508002400411C514500DD8A460499401A401C01903A
S315080024104FF000400290200704D40198504501DB94
S31508002420CDF8048000208DF84F0002980DF14F0773
S31508002430B0F1004F25D02B200E9002984FF00208DD
S3150800244000280CDA404202902D200E9007E00A215F
S315080024500298FEF737FB3031029007F8011DB8F1F4
S315080024600001A8F10108F2DC02980028EFD1791ED4
S315080024700E980870307800F0200040F0450007F804
S31508002480020D12A8C01B00F107081498007800B1C5
S31508002490012000EB0A01019801EBE071059841441F
S315080024A0401A401E0590E00306D45B462146179A5B
S315080024B0059800F05DF805441498007818B15A4656
S315080024C0179990476D1CE00324D55B462146179A59
S315080024D0059800F04DF805441CE00498002807DB31
S315080024E0DDE90301884203DD0098405C179901E0A5
S315080024F0179930205A469047049805F10105401C63
S3150800250004900198401E019004D12E205A4617992E
S3150800251090476D1CBAF10001AAF1010ADDDC05E05D
S3150800252017F8010B5A46179990476D1CB8F1000128
S31508002530A8F10108F4DC5B462146179A0598ABE634
S315080025402D0000002B000000200000002DE9F041BE
S31508002550044600251E461746880404D405E0394675
S315080025602020B0476D1C641EF9D52846BDE8F081C9
S315080025702DE9F041044600251E469046C80301D5BC
S31508002580302700E02027880404D505E04146384670
S31508002590B0476D1C641EF9D52846BDE8F0814A6827
S315080025A0002A06D00A68531C0B6010704868401E43
S315080025B0486070470A68531C0B6010707047F0B586
S315080025C0837B03B9F0BD002901DB802900DBF9E72D
S315080025D0002A01DB402A00DBF4E7438BBBB1838B7F
S315080025E0ABB1B0F916308B4205DCB0F91630448B26
S315080025F023448B4200DCE5E7B0F91830934205DC4A
S31508002600B0F91830848B2344934200DCDAE7837BE5
S31508002610012B1CD1D51702EB5575ED1001EBC5152D
S315080026204668755D1446D61702EB5676F610A2EB89
S31508002630C6070126BE403543EEB21346D51702EB50
S315080026405575ED1001EBC51547687E551AE0D51787
S3150800265002EB5575ED1001EBC5154668755D144618
S31508002660D61702EB5676F610A2EBC6070126BE4031
S31508002670B5431346D61702EB5676F61001EBC61687
S315080026804768BD5500BF9DE770B505460C4600F086
S315080026908DFB064613E000BF002202210C48FEF718
S315080026A00FFE00BF284600F05DF900BF0122022197
S315080026B00748FEF705FE00BF284600F053F900F06C
S315080026C075FB801BA042E6D300F0A4F870BD00009D
S315080026D0000C01402DE9F04107460D461646012E2D
S315080026E006D0022E0BD0032E10D0042E1DD115E0D5
S315080026F050201E49088032201D49088017E0962080
S315080027001A49088064201A49088010E04FF4967028
S3150800271016490880C8201649088008E0C8201349C9
S31508002720088064201249088001E0BDE8F08100BFF6
S3150800273000F03CFB04460EE00C4801883846FFF7DB
S31508002740A3FF00F033FB001BA84200D308E00848AB
S31508002750008800F0F5F800F029FB001BA842EBD32F
S3150800276000BF00F057F800BFDFE7000002000020B6
S31508002770040000202DE9F04106460D4690461F4606
S3150800278036B1012E06D0022E07D0032E09D106E057
S31508002790FA2408E04FF4FA7405E0C82403E0A624F6
S315080027A001E0BDE8F08100BF25B939462046FFF7AC
S315080027B06BFF06E0012D04D1424639462046FFF755
S315080027C089FF00BFEDE7000008B500BF012108201A
S315080027D0FEF7D4FD00BF0220ADF8000010208DF8EA
S315080027E0030002208DF8020069460348FEF7D4FC70
S315080027F000F010F808BD0000000C014010B5FFF706
S31508002800E3FF00F017F8322000F09AF800F002F81B
S31508002810002010BD10B500BF012202210448FEF7B2
S315080028204FFD00BF0A2000F09DF8002010BD0000F3
S31508002830000C014010B500BF002202210448FEF733
S315080028403FFD00BF0A2000F08DF8002010BD0000F3
S31508002850000C01402DE9F041C1F30A52A2F2FF36FD
S315080028602F4A304B0D460446142E2FDA002E12DA64
S31508002870FDF732FF00221346FEF796FA4CD2002DDA
S31508002880BCBF4FF00045002446DB55EA040018BFDC
S31508002890254D19D140E0DFF894C02CFA06F705EA71
S315080028A0070C5CEA040C08BFBDE8F081FDF714FFCD
S315080028B000221346FEF778FA2ED2002D03DD4FF4D8
S315080028C08010F0400544BD43002425E0332EC8BFE0
S315080028D0BDE8F081A6F1140C4FF0FF3727FA0CF784
S315080028E03C4208BFBDE8F081FDF79AFF0022134677
S315080028F0FEF75AFA10D2002D0DDD142E08BF6D1CF6
S3150800290009D0C6F13400012101FA00F02044A042A2
S3150800291038BF6D1C0446BC4329462046BDE8F081F5
S315080029209C7500883CE4377E0000F03FFFFF0F00EF
S31508002930002100E0491CC2008A42FBD8704700000B
S3150800294070B5044601F00EFB054800680519002617
S3150800295000BF034800680021401BB141F9D370BD90
S315080029600800002070B5044601F0FCFA00F08CFA65
S31508002970021941F10000551C40F1000600BF00F0A5
S3150800298083FA401BB141FAD370BD000010B5024866
S3150800299000F015FF10BD00004800002038B50446B9
S315080029A0FFF7F4FF0023282219460248009401F095
S315080029B017F938BD4800002010B5064800F0FFFE9C
S315080029C001221146034801F008F90021014801F0E7
S315080029D0FFF810BD480000202DE9FF4104460D46CA
S315080029E0FFF7EAFF25A000230A2219460090274888
S315080029F001F0F6F826A00023142219460090234871
S31508002A0001F0EEF82068FEF72EF8CDE9020125A0C0
S31508002A1000231E22194600901C4801F0E1F8606860
S31508002A20FEF721F8CDE9020122A000232D2219463E
S31508002A300090164801F0D4F8A068FEF714F8CDE91E
S31508002A40020120A000233C22194600900F4801F0FD
S31508002A50C7F845B91FA000235522194600900B4810
S31508002A6001F0BEF807E01EA0002355221946009083
S31508002A70064801F0B5F8BDE8FF8100002020204196
S31508002A80677269204D6F6E69746F72004800002086
S31508002A903D3D3D3D3D3D3D3D3D3D3D3D3D3D3D3D58
S31508002AA03D3D000054656D703A20252E3166204361
S31508002AB00000000048756D693A20252E31662025EC
S31508002AC0255248004C696768743A20252E316620DD
S31508002AD06C7578004D6F64653A204C6F5261000042
S31508002AE04D6F64653A204E422D496F540000000030
S31508002AF02DE9F04F87B005460F4690469946A87BC4
S31508002B0020B9287B10B907B0BDE8F08F95F80DA05D
S31508002B10012068734846FDF76CFF0022214BCDE97A
S31508002B200001FDF7F2FECDE90201FFF793FECDE9BC
S31508002B300401FDF77FFF1FFA80FB00242CE0002626
S31508002B4025E0E21704EB5272D21006FB0B23119A0A
S31508002B50D25CE31704EB5373DB10A4EBC30C80239E
S31508002B6043FA0CF31A4042B108EB060002B23819D0
S31508002B7001B2284601F054F807E008EB060002B255
S31508002B80381901B22846FFF71AFD701C06B21098CC
S31508002B908642D6DB601C04B24C45D0DB85F80DA016
S31508002BA000BFB0E7000020402DE9F04F87B004468B
S31508002BB00F46A06810B907B0BDE8F08F3946204621
S31508002BC001F09EFA06460025002E07DBA068006A7B
S31508002BD006EB460101EBC60100EB8105608C002877
S31508002BE07CD0A08C002879D0B4F91680B4F9189056
S31508002BF0608B0FFA80FAA08B0FFA80FB608B70B39C
S31508002C00A08B60B3E08BADF81400208CADF81600ED
S31508002C10608CADF81800A08CADF81A00E08AADF803
S31508002C200C00208BADF80E00608BADF81000A08B61
S31508002C30ADF8120004980090039BDDE9051201A87F
S31508002C4000F0BCF8BDF80400E082BDF80600208359
S31508002C50BDF808006083BDF80A00A08308E0FFE716
S31508002C60E08BE082208C2083608C6083A08CA0831C
S31508002C70B4F91000B4F91E10884207DBB4F91E0037
S31508002C80618C0844B4F91010884201DCE08B20827C
S31508002C90A5B1B4F91000A9890844B4F91E10628CCC
S31508002CA0114488420ADBE08B2082608AA168898AFF
S31508002CB00844A168098B084400B260820D2F02D12E
S31508002CC0E08B20820AE00A2F08D1608AA168898AE7
S31508002CD00844A168098B084400B260826DB3A068F5
S31508002CE0808A0090608AD4F808C0BCF818C0A0EBA7
S31508002CF00C00D4F808C0BCF814C0A0EB0C0002B253
S31508002D00AB89B4F91010204600F02BF8E98BA86AB5
S31508002D10CDE90010608AB5F822C0A0EB0C00B5F822
S31508002D201EC0A0EB0C0002B2208AB5F820C0604491
S31508002D3001B2AB8B2046FFF7DBFE608C48B1A08C56
S31508002D4038B1A4F81680A4F81890A4F81AA0A4F824
S31508002D501CB025B1208AA989084400B2208200BF88
S31508002D6029E72DE9F04780460D4616469946DDF8CF
S31508002D7020A098F80E0008B9BDE8F0872C460EE0AA
S31508002D80374606E03A4621464046FFF718FC781CC7
S31508002D9007B206EB0A00B842F4DC601C04B205EB85
S31508002DA00900A042ECDC00BFE6E7000010B501F020
S31508002DB0D9F80148006810BD080000200FB4FCB51A
S31508002DC00446002500950195BDF92050BDF92860F7
S31508002DD0B54202DDBDF9205001E0BDF9285028466C
S31508002DE0BDF92050BDF824603544BDF92860BDF80A
S31508002DF02C703E44B54205DDBDF92850BDF82C605F
S31508002E00354404E0BDF92050BDF82460354429B2A4
S31508002E10BDF92250BDF92A60B54202DDBDF922503E
S31508002E2001E0BDF92A502A46BDF92250BDF82660B0
S31508002E303544BDF92A60BDF82E703E44B54205DD1D
S31508002E40BDF92A50BDF82E60354404E0BDF922507C
S31508002E50BDF8266035442BB288420DDA9A420BDA61
S31508002E60ADF80000ADF802200D1AADB2ADF8045069
S31508002E709D1AADB2ADF80650009D2560019D6560AE
S31508002E80FCBC5DF814FB00002DE9F04101F06AF87E
S31508002E904FF0E020006920F480304FF0E02108610F
S31508002EA01948046800250846866905E04FF0E020C1
S31508002EB086691548046800254FF0E020006900F48B
S31508002EC080300028F2D14FF47A722146A1FB027CA9
S31508002ED005FB02C204FB00253C464FF0E021496988
S31508002EE0881BFDF781FD8046084801684046FDF7C6
S31508002EF0C1FB0746FDF78AFD041945F10005204682
S31508002F002946BDE8F08100000800002010000020D6
S31508002F1008B500BF01210820FEF730FA00BF00BF40
S31508002F2001210820FEF72AFA00BF00BF0121082068
S31508002F30FEF724FA00BF4FF48050ADF80000482091
S31508002F408DF8030003208DF8020069460E48FEF747
S31508002F5023F94FF40050ADF8000048208DF803001F
S31508002F6003208DF8020069460748FEF715F94FF465
S31508002F708040ADF8000028208DF803006946024815
S31508002F80FEF70AF908BD0000000C014010B5FFF76E
S31508002F90BFFF10BD10E000224FF400510748FEF7AE
S31508002FA08FF9C820FFF7CCFC012251030348FEF72E
S31508002FB087F9C820FFF7C4FCEDE7000000100140C0
S31508002FC008B501211020FEF7D9F94FF40050ADF8E5
S31508002FD0000002208DF8020014208DF803006946CF
S31508002FE00448FEF7D9F8012251030248FEF768F9AA
S31508002FF008BD0000001001407FB50446002000907F
S31508003000019002900390E3B2220A08A16846FEF7EF
S3150800301019FE4FF4FA720AA1684600F08DF80546C3
S3150800302015B1012004B070BD0020FBE741542B41C7
S315080030304444523D253032582C2530325800000081
S315080030404F4B000070B500250BE04FF4FA7207A14C
S3150800305007A000F071F804460CB9002070BD681C82
S31508003060C5B20A2DF1DB0120F8E700004F4B00003E
S315080030704154000010B500BF0122D1030248FEF7F3
S315080030801FF900BF10BD0000000C014010B500BFBD
S3150800309000224FF400410248FEF712F900BF10BDA6
S315080030A0000C014008B500BF01210420FEF766F9AF
S315080030B000BF00BF01210420FEF760F900BF4FF4EE
S315080030C08070ADF8000048208DF8030003208DF8C5
S315080030D0020069460C48FEF75FF84FF40040ADF869
S315080030E0000010208DF8030003208DF802006946C1
S315080030F00648FEF751F800BF00224FF40041034886
S31508003100FEF7DEF800BF08BD00080140000C0140CC
S3150800311070B50446FFF7C6FF204600F0AFF9FFF783
S31508003120A9FFFFF78FFF0546FFF7B0FF0DB1012096
S3150800313070BD0020FCE700002DE9F04105460E466B
S315080031401446002700F040FA29460FA000F0FCF9C3
S3150800315006B114B90020BDE8F08110E000F01EFAAF
S31508003160074647B131463846FDF700F808B1002052
S31508003170F1E700F029FA641E0120FFF7E1FB002CB5
S31508003180ECD10220E7E7000025730D0A00000000D5
S3150800319038B505463E4800F012FB012211463C4868
S315080031A000F01BFD00213A4800F012FD39A000236B
S315080031B0192219460090364800F012FD3AA000235D
S315080031C0282219460090324800F00AFD31A04FF433
S315080031D0FA733722002100902D4800F001FD284699
S315080031E0FFF796FF04466CB1294800F0E8FA33A0C9
S315080031F04FF4FA7319221E210090254800F0F0FCBE
S31508003200FFF7C8FEFFF736FF0220FFF7F5FE044674
S315080032101421052000F0EAF92044C4B2032000F086
S31508003220BBF82044C4B2002000F042FA2044C4B2DD
S31508003230002000F089F82044C4B2002000F00EFAFD
S315080032402044C4B20021072000F0D6F82044C4B2B6
S31508003250FFF71CFF6CB10E4800F0B1FA17A04FF447
S31508003260FA7319221E210090094800F0B9FC20467D
S3150800327038BD074800F0A3FA13A04FF4FA732822C2
S315080032801E210090024800F0ABFC2046F0E7000043
S31508003290480000202A2A2A2A2A2A2A2A2A2A2A2AC0
S315080032A02A2A2A2A2A2A2A003C3C3C3C53544D33D3
S315080032B0322D4C6F52613E3E3E3E00004C6F5261CD
S315080032C020657272210000004C6F5261206F6B21DD
S315080032D0000000000EB500F01FF86846FEF7C8FAB1
S315080032E041F61F40ADF800000020ADF8020063204B
S315080032F0ADF804000020ADF80600694605480068E8
S31508003300FEF764FA0122114602480068FEF752FAEF
S315080033100EBD00002800002008B500BF01210846A0
S31508003320FEF71CF800BF1C208DF8000001208DF860
S31508003330010000208DF8020001208DF80300684680
S31508003340FDF7C8FF08BD00003EB504460020009002
S315080033500190029014B1012C02D100E000BF01E0F7
S3150800336003203EBD00BF224607A16846FEF76AFC59
S315080033704FF4FA7207A16846FFF7DEFE05460DB15F
S315080033800120EEE70020ECE741542B544D4F44450D
S315080033903D2564004F4B00003EB5044600200090D2
S315080033A00190029034B1012C05D0022C04D0032CD4
S315080033B004D102E000BF00BF00BF01E003203EBD0C
S315080033C000BF224607A16846FEF73CFC4FF4FA7296
S315080033D008A16846FFF7B0FE05460DB10120EEE7E5
S315080033E00020ECE741542B54504F5745523D256475
S315080033F0000000004F4B0000FEB504460D460020B5
S31508003400009001900290082C0DD2DFE804F0040524
S31508003410060708090A0B00BF00BF00BF00BF00BFB0
S3150800342000BF00BF01E00320FEBD00BF25B1012D8E
S3150800343003D0022D03D101E000BF00BF01E0032045
S31508003440F2E700BF2B46224607A16846FEF7FAFBBD
S315080034504FF4FA7208A16846FFF76EFE06460EB1EB
S315080034600120E1E70020DFE741542B554152543D46
S3150800347025642C25640000004F4B000010B586B06B
S31508003480044600BF01218803FDF778FF00BF00BF8F
S3150800349001210420FDF772FF00BF00BF01210420AF
S315080034A0FDF76CFF00BF4FF40070ADF8140018204C
S315080034B08DF8170003208DF8160005A92048FDF79A
S315080034C06BFE4FF48060ADF8140004208DF81700E9
S315080034D005A91B48FDF760FE01A8FEF7A4FB0194A9
S315080034E00020ADF80800ADF80A00ADF80C000C2075
S315080034F0ADF80E000020ADF8100001A911480068CB
S31508003500FEF71CFB012240F225510E480068FEF723
S31508003510F0FA25208DF8000000208DF801008DF8BE
S31508003520020001208DF803006846FDF7D3FE01214D
S3150800353004480068FEF79AFAFFF7CCFE06B010BDFD
S31508003540000801402C0000200FB438B505A80090EB
S3150800355080211048009B049AFEF788FB04B20020DD
S315080035600090002C03DA012038BC5DF814FB802C8F
S3150800357008DB7F24224607490748006800F0DBFD80
S315080035800220F1E7A2B203490348006800F0D3FD20
S315080035900020E9E7F20000202C0000200948B0F8D6
S315080035A080000121B1EBD03F09D100200549B1F8CF
S315080035B08010C1F30E01034A50541046704700208C
S315080035C0FCE70000700000200748B0F880006FF3A1
S315080035D00E000549A1F880000846B0F8800020F4DE
S315080035E00040A1F880007047700000207FB50446AF
S315080035F00D4600200090019002900390062C09D2F7
S31508003600DFE804F008030405060700BF00BF00BF93
S3150800361000BF02E0032004B070BD00BF532D01DDDA
S315080036200320F8E723462A4607A16846FEF70AFB61
S315080036304FF4FA7208A16846FFF77EFD06460EB1FA
S315080036400120E8E70020E6E741542B574C52415445
S31508003650453D25642C2564004F4B00003EB50446C5
S31508003660002000900190029014B1012C02D100E0D4
S3150800367000BF01E003203EBD00BF224607A1684601
S31508003680FEF7E0FA4FF4FA7208A16846FFF754FD10
S3150800369005460DB10120EEE70020ECE741542B5713
S315080036A04C54494D453D2564000000004F4B000031
S315080036B03EB50446002000900190029034B1012CDA
S315080036C005D0022C04D0032C04D102E000BF00BFB1
S315080036D000BF01E003203EBD00BF224607A16846A1
S315080036E0FEF7B0FA4FF4FA7208A16846FFF724FD10
S315080036F005460DB10120EEE70020ECE741542B43C7
S31508003700574D4F44453D2564000000004F4B0000CF
S315080037104FF4A060FDF716FE092000F0DDFB00F06F
S3150800372021FC00F0D3F9FFF74BFCFFF767F8FFF72A
S315080037302DFC00F081FC4FF47A7303220121084620
S31508003740FFF718F801E000F087FCFCE7F0B50B304E
S31508003750154D20F007010024144A0FE003688B4238
S315080037600BD38B4205D95E1A43184768C3E900672D
S3150800377000E04368136002C004E0021D10680028D8
S31508003780ECD12046002802D1286808B10020F0BDF7
S31508003790064A07481060074A121A22F00702C0E9CB
S315080037A0002401202860D7E74400002040000020BC
S315080037B0CC060020C816002001460020704710B528
S315080037C004464FF480616068FCF7C5FC10BD2DE91E
S315080037D0F05F82460E46002700BF3846791C8FB236
S315080037E0355C05B988E005F0800028B9AB4659462E
S315080037F05046FFF7D9F9F0E705F0E000C02814D1E4
S3150800380005F01F053846791C8FB2345C1CB104F0EC
S31508003810C000802800D06FE004F03F0444EA851B0E
S3150800382059465046FFF7C0F9D7E705F0F000E028FB
S3150800383026D105F00F053846791C8FB2345C1CB1C9
S3150800384004F0C000802800D056E004F03F04384653
S31508003850791C8FB216F80080B8F1000F03D008F073
S31508003860C000802800D047E008F03F08280340EA57
S31508003870841040EA080B59465046FFF795F9ACE71D
S3150800388005F0F800F028A8D105F007053846791C98
S315080038908FB2345C1CB104F0C000802800D02BE045
S315080038A004F03F043846791C8FB216F80080B8F148
S315080038B0000F03D008F0C000802800D01CE008F0F4
S315080038C03F083846791C8FB216F80090B9F1000FF8
S315080038D003D009F0C000802800D00DE009F03F09A8
S315080038E0A80440EA043040EA841040EA090B594625
S315080038F05046FFF759F970E700BFBDE8F09F000092
S3150800390038B504460D462868206040F20140FFF7A6
S315080039101DFF6060606810B96FF0010038BD60680F
S31508003920401C60604FF480616068FCF714FC00235B
S315080039301A46AE21204600F012F910B14FF0FF30BA
S31508003940ECE78020009001236A46D521204600F046
S3150800395006F910B14FF0FF30E0E73F200090012351
S315080039606A46A821204600F0FAF810B14FF0FF3059
S31508003970D4E70020009001236A46D321204600F0B0
S31508003980EEF810B14FF0FF30C8E700231A46402181
S31508003990204600F0E4F810B14FF0FF30BEE71420DF
S315080039A0009001236A468D21204600F0D8F810B110
S315080039B04FF0FF30B2E70020009001236A4620212D
S315080039C0204600F0CCF810B14FF0FF30A6E70023F0
S315080039D01A46A121204600F0C2F810B14FF0FF3078
S315080039E09CE700231A46C821204600F0B8F810B113
S315080039F04FF0FF3092E71220009001236A46DA2141
S31508003A00204600F0ACF810B14FF0FF3086E7CF2023
S31508003A10009001236A468121204600F0A0F810B1E3
S31508003A204FF0FF307AE7F120009001236A46D9214A
S31508003A30204600F094F810B14FF0FF306EE72020D2
S31508003A40009001236A46DB21204600F088F810B171
S31508003A504FF0FF3062E700231A462E21204600F079
S31508003A607EF810B14FF0FF3058E700231A46A4211C
S31508003A70204600F074F810B14FF0FF304EE70023EF
S31508003A801A46A621204600F06AF810B14FF0FF301A
S31508003A9044E700231A46AF21204600F060F810B12B
S31508003AA04FF0FF303AE70120607320730020A073BF
S31508003AB020826082A082E08320846084A0840248F9
S31508003AC0A06000202AE700008855000808B500F025
S31508003AD031F90348009069460248FFF711FF08BD0F
S31508003AE0C53E00084800002038B5044600208DF879
S31508003AF0000001236A462021204600F030F810B164
S31508003B004FF0FF3038BD00208DF800007F208DF87B
S31508003B10010002236A462121204600F020F810B150
S31508003B204FF0FF30EEE700208DF8000007208DF8F3
S31508003B30010002236A462221204600F010F810B13F
S31508003B404FF0FF30DEE74FF480622046616800F0F0
S31508003B5027F810B14FF0FF30D4E70020D2E72DE95F
S31508003B60FC4105460E461746984600208DF800008B
S31508003B708DF80160002405E0395DA01C0DF80010E1
S31508003B80601CC4B24445F7DBA21C694678202B6842
S31508003B90984718B14FF0FF30BDE8FC810020FBE7DD
S31508003BA02DE9F04105460C461646002714F8018C07
S31508003BB0402004F8010C701C82B2611E78202B6824
S31508003BC0984700B17F1E04F8018C3846BDE8F0819D
S31508003BD0817370470182428270470173427370474E
S31508003BE0F0B591B005460E4617461C463A4631468C
S31508003BF02846FFF7EFFF17A8009001A8009A169924
S31508003C00FEF74AF80020009001A92846FFF7DFFDD5
S31508003C102846FFF769FF2046FEF792FE11B0F0BD71
S31508003C202DE9FC5F04468A469346207B08B9BDE821
S31508003C30FC9F607B00B9FAE7607B00EBD071491006
S31508003C40A0EB410139B1607B00EBD0714D102E46D7
S31508003C502F46A8460CE0607B00EBD0714D102E462F
S31508003C602F46A846A8F101001FFA80F8781E87B2E9
S31508003C70A07B0190207BA073AAEB08000FFA80F9BD
S31508003C8016E0ABEB070000B2009008E04946204674
S31508003C90009AFEF794FC0098401C00B200900BEBCB
S31508003CA0060100988142F1DA09F101000FFA80F95C
S31508003CB00AEB05004845E4DA0198A07300BFB6E7A9
S31508003CC008B500BF01210820FDF758FB00BF00BF5B
S31508003CD0012211021648FDF7F3FA00BF00BF0122C0
S31508003CE051021348FDF7ECFA00BF00BF0121082076
S31508003CF0FDF744FB00BF4FF48070ADF800001420B8
S31508003D008DF8030002208DF8020069460848FDF781
S31508003D1043FA4FF40070ADF8000014208DF8030044
S31508003D2002208DF8020069460148FDF735FA08BDFC
S31508003D30000C014010B5FFF7C3FF10BD70B505466E
S31508003D4007242CE000BF00224FF480712648FDF7B7
S31508003D50B7FA00BF00BF0120A040284008B10120E3
S31508003D6000E0002028B1012251021F48FDF7A8FAF9
S31508003D7005E000224FF400711B48FDF7A1FA00BFC9
S31508003D800220FEF7D5FD00BF012211021648FDF7F5
S31508003D9097FA00BF0220FEF7CBFD601E44B2002C46
S31508003DA0D0DA00BF00224FF480710F48FDF788FA79
S31508003DB000BF00BF012251020B48FDF781FA00BF80
S31508003DC00220FEF7B5FD00BF012211020648FDF7E5
S31508003DD077FA00BF0220FEF7ABFD4FF400710248E8
S31508003DE0FDF765FA70BD0000000C01402DE9F041B1
S31508003DF005460E46174600BF012251021948FDF72F
S31508003E005FFA00BF00BF012211021648FDF758FAF3
S31508003E1000BF00BF00224FF400711248FDF750FAA8
S31508003E2000BF0120FEF784FD05F0FE00FFF786FFC0
S31508003E3028B100F019F84FF0FF30BDE8F0810024F2
S31508003E400AE0305DFFF77AFF20B100F00DF86FF059
S31508003E500100F2E7601C84B2BC42F2DB00F004F811
S31508003E600020EAE7000C014010B500BF00224FF41D
S31508003E7080711348FDF724FA00BF0120FEF758FDAC
S31508003E8000BF00224FF400710D48FDF719FA00BF74
S31508003E900120FEF74DFD00BF012211020848FDF77B
S31508003EA00FFA00BF0120FEF743FD00BF01225102B1
S31508003EB00348FDF705FA00BF0120FEF739FD10BDDE
S31508003EC0000C014070B504460D4616463246294692
S31508003ED02046FFF78BFF70BD10B590B004463C2214
S31508003EE01F4901A8FCF71EF9022C01D3102C01D991
S31508003EF000BFFEE74FF48030FDF7ECFA00BF312033
S31508003F00FDF7B6FA0028FAD01020FDF72BF90220A3
S31508003F10FDF736F90020FDF7D1FA4FF48060FDF77A
S31508003F20FFFA0020FDF708FBA01E01AA52F8201090
S31508003F304FF48030FDF712FB0120FDF709FB00BFA7
S31508003F403920FDF795FA0028FAD00220FDF714FB70
S31508003F5000BFFDF7ABFA0828FBD110B010BD000072
S31508003F60AC5500082DE9F04186B02E4800780028A7
S31508003F7055D101202B490870142101A8FCF7EBF84C
S31508003F804FF0E020006920F001004FF0E0210861C1
S31508003F9000202549086001A8FDF700FA4FF0E02047
S31508003FA0006940F002004FF0E021086100211F4837
S31508003FB0C1774FF47A710298B0FBF1F4B4F1807FBF
S31508003FC009D3E4084FF0E020006920F004004FF020
S31508003FD0E021086107E04FF0E020006940F00400A6
S31508003FE04FF0E0210861601E4FF0E0214861084665
S31508003FF0006940F001000861496921F07F41481CC9
S31508004000FCF7F7FC07463A460B4600200849FCF73A
S315080040107CFC0546FCF73AFD0649086000BF06B079
S31508004020BDE8F0810C0000200800002000ED00E04B
S3150800403000408F401000002010B54FF4E130FFF724
S31508004040A7F84FF4E130FFF7B7FB0248FFF7B7FBD5
S3150800405010BD00004800002010B588B01948007847
S3150800406008B108B010BDFFF799FA0446002C27D00E
S31508004070142103A8FCF76FF806A805A904AB03AA40
S31508004080CDE9001010A12046FCF782F804280DD1CE
S3150800409001208DF81C00002103A8FEF79DFCC8230B
S315080040A0012211461046FEF765FB02E011A0FEF755
S315080040B075FCFFF789FA4FF47A60FEF741FC00BFFA
S315080040C000BFCEE7000000207B2274656D70223A9F
S315080040D025662C2268756D69223A25662C226C693C
S315080040E0676874223A25662C2274696D65223A251A
S315080040F06C757D005061727365204572726F72002F
S3150800410010B502460B464FF0FF34906808B92046B2
S3150800411010BD002108E09068C06950F82100984257
S3150800412001D10CB204E0491C9068408B8842F2D851
S3150800413000BF2046ECE72DE9F04107460E46144637
S315080041400CB9BDE8F08100250CE000BF8021384697
S31508004150FDF798FC0028F9D0715D3846FDF75FFD3C
S31508004160681C85B2A542F0DB00BF40213846FDF742
S3150800417089FC0028F9D000BFE3E7000000808080B2
S3150800418080800080A0A0A05050F850F850502078A9
S31508004190A05008D0C0C81020409818E090A040A8A9
S315080041A09068C04080204080808040208040202049
S315080041B02040805020F820502020F82020C0408041
S315080041C0F8C0C00810204080708898A8C888704039
S315080041D0C040404040E0708808102040F8F81020A1
S315080041E01008887010305090F81010F880F0080801
S315080041F08870304080F0888870F808102040404069
S315080042007088887088887070888878081060C0C040
S3150800421000C0C0C0C000C0408010204080402010B0
S31508004220F800F88040201020408070880810200090
S315080042302070880868A8A87070888888F88888F028
S315080042408888F08888F070888080808870E09088F8
S31508004250888890E0F88080F08080F8F88080E08098
S31508004260808070888080988870888888F888888890
S31508004270C04040404040C0301010101090608890F8
S31508004280A0C0A09088808080808080F888D8A88880
S315080042908888888888C8A898888870888888888838
S315080042A070F08888F080808070888888A89068F088
S315080042B08888F0A09088788080700808F0F8202018
S315080042C02020202088888888888870888888888818
S315080042D05020888888A8A8D8888888502050888838
S315080042E088885020202020F80810204080F8E08098
S315080042F080808080E08040201008E0202020202058
S31508004300E0205088F880402070087888788080B04F
S31508004310C88888F0708080887008086898888878C7
S315080043207088F88070304840E040404078887808C7
S31508004330308080B0C88888884000C0404040E0107F
S31508004340003010109060808090A0C0A090C04040BF
S31508004350404040E0D0A8A88888B0C8888888708877
S31508004360888870F088F08080689878080808B0C84F
S3150800437080808070807008704040E04040483088F7
S31508004380888888986888888850208888A8A8508847
S31508004390502050888888780870F8102040F8204007
S315080043A040804040208080808080808080404020FF
S315080043B040408040A81000002000000021000000B6
S315080043C02200000023000000240000002500000051
S315080043D02600000027000000280000002900000031
S315080043E02A0000002B0000002C0000002D00000011
S315080043F02E0000002F0000003000000031000000F1
S3150800440032000000330000003400000035000000D0
S3150800441036000000370000003800000039000000B0
S315080044203A0000003B0000003C0000003D00000090
S315080044303E0000003F000000400000004100000070
S315080044404200000043000000440000004500000050
S315080044504600000047000000480000004900000030
S315080044604A0000004B0000004C0000004D00000010
S315080044704E0000004F0000005000000051000000F0
S3150800448052000000530000005400000055000000D0
S3150800449056000000570000005800000059000000B0
S315080044A05A0000005B0000005C0000005D00000090
S315080044B05E0000005F000000600000006100000070
S315080044C06200000063000000640000006500000050
S315080044D06600000067000000680000006900000030
S315080044E06A0000006B0000006C0000006D00000010
S315080044F06E0000006F0000007000000071000000F0
S3150800450072000000730000007400000075000000CF
S3150800451076000000770000007800000079000000AF
S315080045207A0000007B0000007C0000007D0000008F
S315080045307E0000002856000820000000E80300005E
S315080045400700000000000000000000000000000056
S315080045500000000000000000000000007C41000888
S315080045605C56000821000000E80300000700000070
S315080045700000000000000000000000000100070025
S3150800458003000100070000007D4100088C56000862
S3150800459022000000E80300000700000000000000F9
S315080045A000000000000000000300030002000400F1
S315080045B00300000084410008BC56000823000000E0
S315080045C0E8030000070000000000000000000000EB
S315080045D000000000050007000100010007000000B8
S315080045E087410008EC56000824000000E803000094
S315080045F007000000000000000000000000000000A6
S315080046000500060001000200060000008E410008B1
S315080046101C57000825000000E803000007000000FA
S315080046200000000000000000000000000500070070
S315080046300100010007000000944100084C570008DB
S3150800464026000000E8030000070000000000000044
S31508004650000000000000000005000700010001003E
S31508004660070000009B4100087C570008270000004F
S31508004670E80300000700000000000000000000003A
S31508004680000000000200030002000500030000000D
S31508004690A2410008AC57000828000000E803000003
S315080046A007000000000000000000000000000000F5
S315080046B0030007000200010007000000A5410008EA
S315080046C0E857000829000000E8030000070000007A
S315080046D000000000000000000000000003000700C2
S315080046E00200010007000000AC4100081858000845
S315080046F02A000000E8030000070000000000000090
S31508004700000000000000000005000500010002008E
S3150800471005000000B3410008485800082B000000B7
S31508004720E803000007000000000000000000000089
S315080047300000000005000500010002000500000059
S31508004740B8410008785800082C000000E80300006B
S315080047500700000000000000000000000000000044
S31508004760020003000200010003000000BD4100082A
S31508004770A85800082D000000E80300000700000004
S315080047800000000000000000000000000500010015
S315080047900100040001000000C0410008D8580008C4
S315080047A02E000000E80300000700000000000000DB
S315080047B000000000000000000200020002000100E4
S315080047C002000000C1410008085900082F00000037
S315080047D0E8030000070000000000000000000000D9
S315080047E000000000050005000100020005000000A9
S315080047F0C34100083056000830000000E8030000F6
S315080048000700000000000000000000000000000093
S31508004810050007000100010007000000C841000864
S315080048206456000831000000E80300000700000095
S315080048300000000000000000000000000300070060
S315080048400200010007000000CF4100089456000846
S3150800485032000000E8030000070000000000000026
S31508004860000000000000000005000700010001002C
S3150800487007000000D6410008C456000833000000AF
S31508004880E803000007000000000000000000000028
S3150800489000000000050007000100010007000000F5
S315080048A0DD410008F456000834000000E803000063
S315080048B007000000000000000000000000000000E3
S315080048C0050007000100010007000000E441000898
S315080048D02457000835000000E80300000700000020
S315080048E000000000000000000000000005000700AE
S315080048F00100010007000000EB41000854570008BA
S3150800490036000000E8030000070000000000000071
S31508004910000000000000000005000700010001007B
S3150800492007000000F241000884570008370000001D
S31508004930E803000007000000000000000000000077
S315080049400000000005000700010001000700000044
S31508004950F9410008B457000838000000E8030000D1
S315080049600700000000000000000000000000000032
S3150800497005000700010001000700000000420008CA
S31508004980F057000839000000E8030000070000009F
S3150800499000000000000000000000000005000700FD
S315080049A0010001000700000007420008205800081F
S315080049B03A000000E80300000700000000000000BD
S315080049C000000000000000000200050002000200CE
S315080049D0050000000E420008505800083B00000081
S315080049E0E8030000070000000000000000000000C7
S315080049F00000000002000600020001000600000098
S31508004A0013420008805800083C000000E803000034
S31508004A100700000000000000000000000000000081
S31508004A200400070002000100070000001942000800
S31508004A30B05800083D000000E80300000700000029
S31508004A400000000000000000000000000500030050
S31508004A50010003000300000020420008E058000897
S31508004A603E000000E8030000070000000000000008
S31508004A70000000000000000004000700010001001B
S31508004A800700000023420008105900083F000000F4
S31508004A90E803000007000000000000000000000016
S31508004AA000000000050007000100010007000000E3
S31508004AB02A4200083856000840000000E8030000B3
S31508004AC007000000000000000000000000000000D1
S31508004AD00500070001000100070000003142000838
S31508004AE06C56000841000000E803000007000000BB
S31508004AF0000000000000000000000000050007009C
S31508004B000100010007000000384200089C56000812
S31508004B1042000000E8030000070000000000000053
S31508004B200000000000000000050007000100010069
S31508004B30070000003F420008CC560008430000006A
S31508004B40E803000007000000000000000000000065
S31508004B500000000005000700010001000700000032
S31508004B6046420008FC56000844000000E80300001E
S31508004B700700000000000000000000000000000020
S31508004B800500070001000100070000004D4200086B
S31508004B902C57000845000000E80300000700000045
S31508004BA000000000000000000000000005000700EB
S31508004BB00100010007000000544200085C57000885
S31508004BC046000000E803000007000000000000009F
S31508004BD000000000000000000500070001000100B9
S31508004BE0070000005B4200088C57000847000000D9
S31508004BF0E8030000070000000000000000000000B5
S31508004C000000000005000700010001000700000081
S31508004C1062420008BC57000848000000E80300008C
S31508004C20070000000000000000000000000000006F
S31508004C30050007000100010007000000694200089E
S31508004C40F857000849000000E803000007000000C4
S31508004C50000000000000000000000000030007003C
S31508004C6002000100070000007042000828580008EA
S31508004C704A000000E80300000700000000000000EA
S31508004C800000000000000000050007000100010008
S31508004C900700000077420008585800084B0000003B
S31508004CA0E803000007000000000000000000000004
S31508004CB000000000050007000100010007000000D1
S31508004CC07E420008885800084C000000E8030000EF
S31508004CD007000000000000000000000000000000BF
S31508004CE005000700010001000700000085420008D2
S31508004CF0B85800084D000000E8030000070000004F
S31508004D000000000000000000000000000500070089
S31508004D1001000100070000008C420008E85800085E
S31508004D204E000000E8030000070000000000000035
S31508004D300000000000000000050007000100010057
S31508004D400700000093420008185900084F000000A9
S31508004D50E803000007000000000000000000000053
S31508004D600000000005000700010001000700000020
S31508004D709A4200084056000850000000E803000068
S31508004D80070000000000000000000000000000000E
S31508004D90050007000100010007000000A142000805
S31508004DA07456000851000000E803000007000000E0
S31508004DB000000000000000000000000005000700D9
S31508004DC00100010007000000A8420008A4560008D8
S31508004DD052000000E8030000070000000000000081
S31508004DE000000000000000000500070001000100A7
S31508004DF007000000AF420008D45600085300000020
S31508004E00E8030000070000000000000000000000A2
S31508004E10000000000500070001000100070000006F
S31508004E20B64200080457000854000000E8030000D2
S31508004E30070000000000000000000000000000005D
S31508004E40050007000100010007000000BD42000838
S31508004E503457000855000000E8030000070000006A
S31508004E600000000000000000000000000500070028
S31508004E700100010007000000C4420008645700084A
S31508004E8056000000E80300000700000000000000CC
S31508004E9000000000000000000500070001000100F6
S31508004EA007000000CB42000894570008570000008E
S31508004EB0E8030000070000000000000000000000F2
S31508004EC000000000050007000100010007000000BF
S31508004ED0D2420008C457000858000000E803000042
S31508004EE007000000000000000000000000000000AD
S31508004EF0050007000100010007000000D94200086C
S31508004F000058000859000000E803000007000000E8
S31508004F100000000000000000000000000500070077
S31508004F200100010007000000E042000830580008B0
S31508004F305A000000E8030000070000000000000017
S31508004F400000000000000000050007000100010045
S31508004F5007000000E7420008605800085B000000F0
S31508004F60E803000007000000000000000000000041
S31508004F70000000000300070002000100070000000F
S31508004F80EE420008905800085C000000E8030000A4
S31508004F9007000000000000000000000000000000FC
S31508004FA0050005000100020005000000F5420008A2
S31508004FB0C05800085D000000E80300000700000074
S31508004FC000000000000000000000000003000700C9
S31508004FD00200010007000000FA420008F058000825
S31508004FE05E000000E8030000070000000000000063
S31508004FF00000000000000000050003000100050095
S315080050000300000001430008205900085F00000063
S31508005010E803000007000000000000000000000090
S315080050200000000005000100010001000100000069
S31508005030044300084856000860000000E803000022
S31508005040070000000000000000000000000000004B
S3150800505003000300020005000300000005430008E2
S315080050607C56000861000000E80300000700000005
S315080050700000000000000000000000000500050018
S31508005080010001000500000008430008AC560008AE
S3150800509062000000E80300000700000000000000AE
S315080050A000000000000000000500070001000100E4
S315080050B0070000000D430008DC56000863000000E6
S315080050C0E8030000070000000000000000000000E0
S315080050D000000000050005000100010005000000B1
S315080050E0144300080C57000864000000E803000099
S315080050F0070000000000000000000000000000009B
S315080051000500070001000100070000001943000818
S315080051103C57000865000000E8030000070000008F
S315080051200000000000000000000000000500050067
S315080051300100010005000000204300086C57000824
S3150800514066000000E80300000700000000000000F9
S315080051500000000000000000050007000100010033
S3150800516007000000254300089C5700086700000058
S31508005170E80300000700000000000000000000002F
S315080051800000000005000500010001000500000000
S315080051902C430008CC57000868000000E80300000C
S315080051A007000000000000000000000000000000EA
S315080051B00500070001000100070000003143000850
S315080051C00858000869000000E8030000070000000E
S315080051D000000000000000000000000003000700B7
S315080051E0020001000700000038430008385800088C
S315080051F06A000000E8030000070000000000000045
S315080052000000000000000000040007000100010083
S31508005210070000003F430008685800086B000000BC
S31508005220E80300000700000000000000000000007E
S31508005230000000000400070002000100070000004B
S3150800524046430008985800086C000000E803000070
S315080052500700000000000000000000000000000039
S315080052600300070002000100070000004D43000884
S31508005270C85800086D000000E80300000700000099
S315080052800000000000000000000000000500050006
S31508005290010001000500000054430008F858000802
S315080052A06E000000E8030000070000000000000090
S315080052B000000000000000000500050001000100D4
S315080052C00500000059430008285900086F0000002F
S315080052D0E8030000070000000000000000000000CE
S315080052E0000000000500050001000100050000009F
S315080052F05E4300085056000870000000E8030000EE
S315080053000700000000000000000000000000000088
S3150800531005000500010001000500000063430008C0
S315080053208456000871000000E8030000070000002A
S315080053300000000000000000000000000500060054
S31508005340010001000600000068430008B456000882
S3150800535072000000E80300000700000000000000DB
S315080053600000000000000000050005000100010023
S31508005370050000006E430008E456000873000000AC
S31508005380E80300000700000000000000000000001D
S3150800539000000000050005000100010005000000EE
S315080053A0734300081457000874000000E80300005F
S315080053B007000000000000000000000000000000D8
S315080053C005000700010001000700000078430008F7
S315080053D04457000875000000E803000007000000B5
S315080053E000000000000000000000000005000600A4
S315080053F001000100060000007F43000874570008FA
S3150800540076000000E8030000070000000000000026
S315080054100000000000000000050005000100010072
S315080054200500000085430008A4570008770000001F
S31508005430E80300000700000000000000000000006C
S31508005440000000000500050001000100050000003D
S315080054508A430008D457000878000000E8030000D3
S315080054600700000000000000000000000000000027
S315080054700500050001000100050000008F43000833
S315080054801058000879000000E80300000700000033
S3150800549000000000000000000000000005000500F4
S315080054A00100010005000000944300084058000868
S315080054B07A000000E8030000070000000000000072
S315080054C000000000000000000500050001000100C2
S315080054D00500000099430008705800087B0000008A
S315080054E0E8030000070000000000000000000000BC
S315080054F0000000000300070002000100070000008A
S315080055009E430008A05800087C000000E80300003D
