S315080000006821002001010008DB090008D30900085F
S31508000010D7090008650800082B1200080000000030
S31508000020000000000000000000000000990C000815
S315080000306908000800000000610A0008850D00082C
S315080000401B0100081B0100081B0100081B01000812
S315080000501B0100081B0100081B0100081B01000802
S315080000601B0100081B0100081B0100081B010008F2
S315080000701B0100081B0100081B0100081B010008E2
S315080000801B0100081B0100081B0100081B010008D2
S315080000901B0100081B0100081B0100081B010008C2
S315080000A01B0100081B0100081B0100081B010008B2
S315080000B0FD0D00081B0100081B0100081B010008B4
S315080000C01B0100081B0100081B0100081B01000892
S315080000D01B0100084D0F00081B0100081B01000842
S315080000E01B0100081B0100081B010008DFF80CD0E3
S315080000F000F0A6FB00480047992C0008682100205C
S315080001000648804706480047FEE7FEE7FEE7FEE7A3
S31508000110FEE7FEE7FEE7FEE7FEE7FEE79D0D0008C1
S31508000120ED00000840EA01039B0703D009E008C96F
S31508000130121F08C0042AFAD203E011F8013B00F89E
S31508000140013B521EF9D27047D2B201E000F8012BEA
S31508000150491EFBD270470022F6E710B513460A4639
S3150800016004461946FFF7F0FF204610BD30B5054690
S315080001702A460B4612F8010B13F8014B08B1A042A8
S31508000180F8D01CB1002802D06D1CF1E7284630BD16
S31508000190421C10F8011B0029FBD1801A704780EA1F
S315080001A0010210B502F00043400022D04A001FD0D9
S315080001B0010E01EB1261C0F35600C2F3560240F479
S315080001C0000042F40002A0FB022000047F39140458
S315080001D000D0401C50EA124001D44000491EC2B269
S315080001E00C0604EBD010401C4008802A02D003E01D
S315080001F0002010BD20F00100002900DA0020184375
S3150800020010BD2DE9FE4F804681EA0300C00F0C465B
S31508000210009021F0004123F00045B8EB0200A94107
S3150800022005D24046214690461C460B46024623F018
S315080002300040104347D0270DC7F30A00C3F30A51FD
S315080002400290401A019040286BDAC3F3130040F479
S31508000250801B0098924620B10023D2EB030A63EB79
S315080002600B0B01985946C0F14002504600F0F3F9CD
S3150800027006460D4650465946019A00F00BFA10EB11
S3150800028008006141002487EA115284EAE7731A4399
S3150800029040D0009A62B3019A012A4FEA075215DC48
S315080002A0001B61EB02014FF0004202EA0752CDE95A
S315080002B00042001C41F5801132462B4600F042FAF6
S315080002C003B0BDE8F08F40462146F9E7001B61EB15
S315080002D00201001C41F5801300185B412018A2F5A5
S315080002E0001747EB030140EAD570B6196D4111E0D6
S315080002F06D084FEA360645EAC0754FEA0752001BF5
S3150800030061EB0201001C41F5801149084FEA3000F3
S315080003100019514132462B4603B0BDE8F04F00F0B4
S3150800032002BA0098012240000023D0EB020263EBD8
S31508000330E073009821464FEAE074B8EB000061EBE1
S315080003400401E9E783F000435BE781F0004158E7E1
S315080003502DE9FE4F81EA030404F0004421F0004130
S3150800036000944FF0000B23F0004350EA01045ED0DE
S3150800037052EA03045BD0C3F30A54C1F30A552C446A
S31508000380A4F2F3340194A0FB0254C1F3130141F41F
S315080003908011C3F3130343F4801301FB024400FBEB
S315080003A0034E840A970A44EA815447EA8357A4FB12
S315080003B0076802958D0A05FB07854FEA932C04FB0F
S315080003C00C542705029D4FEA065847EA1637B5EB3F
S315080003D008056EEB070C870E920E47EA811742EA6C
S315080003E08312A7FB0201B6EB0B0164EB00042B0D8D
S315080003F043EA0C335E1844EB1C50DA465146E7FBD9
S315080004000201C5F313044FEA0B3343EA14534FEAC8
S315080004100432019C43EA0603A4F10C040294009CEE
S31508000420CDE900B400F08EF903B0BDE8F08F0020E6
S315080004300146F9E72DE9F04D81EA030404F0004B83
S3150800044021F0004514464FF0000A23F0004150EA17
S31508000450050220D054EA01021DD0C5F30A57024608
S31508000460C5F31303C1F31300C1F30A5640F480150C
S3150800047043F48013A7EB0608101BD64608F2FD388E
S3150800048073EB050002D308F1010801E092185B41FD
S31508000490B8F1000F03DA00200146BDE8F08D002010
S315080004A04FF48011064684460EE0171B73EB0507CA
S315080004B005D3121B63EB050306434CEA010C4908F6
S315080004C04FEA300092185B4150EA0107EDD152EA33
S315080004D0030012D082EA040083EA0501084305D026
S315080004E0101BAB4106D20122002306E000224FF082
S315080004F0004302E06FF0010253101AEB06004CEBC2
S31508000500085110EB0A0041EB0B01BDE8F04D00F075
S315080005100AB996230022114600F0D7B80EB540F264
S31508000520334102910021CDE900110A460B4600F03D
S3150800053009F903B000BD20F00040C10DC0F3160054
S3150800054040F400007F2901DA00207047962903DC71
S31508000550C1F19601C8407047963988407047C1F383
S315080005600A5210B5C1F3130140F2FF3341F480116A
S315080005709A4201DA002010BD40F233439A42A2F2B1
S31508000580334203DC524200F075F810BD904010BDAE
S3150800059001F0004330B421F0004150EA010206D0D0
S315080005A00A0DA2F56072C1F31301002A02DC30BC01
S315080005B000207047440F44EAC104C100E01830BC6B
S315080005C000EBC25000F078B830B50B460146002063
S315080005D02022012409E021FA02F59D4205D303FAF7
S315080005E002F5491B04FA02F52844151EA2F1010278
S315080005F0F1DC30BD2DE9F05F0546002092469B46AA
S3150800060088460646814640241BE02846414647461A
S31508000610224600F02FF853465A46C01A914110D385
S3150800062011461846224600F016F82D1A67EB0108FF
S315080006304F4622460120002100F00DF817EB00096D
S315080006404E41201EA4F10104DFDC484631462A4605
S315080006504346BDE8F09F202A04DB203A00FA02F15F
S31508000660002070479140C2F1200320FA03F3194392
S3150800067090407047202A04DB203A21FA02F0002134
S31508000680704721FA02F3D040C2F120029140084394
S3150800069019467047202A06DBCB17203A41FA02F0A2
S315080006A043EAE07306E041FA02F3D040C2F12002C1
S315080006B091400843194670470029A8BF7047401C57
S315080006C0490008BF20F00100704710B4B0FA80FC5A
S315080006D000FA0CF050EA010404BF10BC704749B197
S315080006E0CCF1200421FA04F411FA0CF118BF012107
S315080006F021430843A3EB0C01CB1D4FEA00614FEAE7
S31508000700102042BF002010BC704700EBC3501044B5
S315080007100029A4BF10BC7047401C490008BF20F040
S31508000720010010BC704710B5141E73F1000408DAF6
S31508000730401C41F1000192185B411A4301D120F097
S31508000740010010BD2DE9F04D92469B4611B1B1FA54
S3150800075081F202E0B0FA80F220329046FFF77BFF82
S3150800076004460F4640EA0A0041EA0B0153465A4638
S31508000770084313D0114653EA010019D0C8F14002C4
S315080007805046FFF777FF05460E46504659464246FD
S31508000790FFF761FF084305D0012004E020463946EB
S315080007A0BDE8F08D0020054346EAE0762C43374342
S315080007B00A986305E40AA0EB08000022FD0A44EA49
S315080007C047540A3002D500200146E9E70105101909
S315080007D06941DDE9084500196941BDE8F04DA2E720
S315080007E0C1F30A52C1F3130140F2FF3341F48011F9
S315080007F09A4202DA00200146704740F233439A4291
S31508000800A2F2334202DC5242FFF734BFFFF723BF9E
S3150800081030B5041E71F1000404DB4FF00044404279
S3150800082064EB0101141E73F1000405DB1C464FF04E
S315080008300043524263EB0403994208BF904230BD1D
S31508000840064C074D06E0E06840F0010394E807000F
S3150800085098471034AC42F6D3FFF74CFCA84D000875
S31508000860C84D000800BFFEE7704700000549096843
S3150800087021F01001034A116011460968014311600D
S31508000880704700000020024001460020034A106815
S3150800089000F038000843106070470000002002404E
S315080008A02DE9F041024600250026002000230024F9
S315080008B0002791F803C00CF00F0591F803C00CF05F
S315080008C0100CBCF1000F03D091F802C04CEA0505E4
S315080008D091F800C0BCF1000F31D0146800202BE05D
S315080008E04FF0010C0CFA00F3B1F800C00CEA03064D
S315080008F09E4220D183004FF00F0C0CFA03F7BC433D
S3150800090005FA03FC4CEA040491F803C0BCF1280F6D
S3150800091006D14FF0010C0CFA00FCC2F814C00AE02C
S3150800092091F803C0BCF1480F05D14FF0010C0CFA41
S3150800093000FCC2F810C0401C0828D1D31460B1F8D6
S3150800094000C0BCF1FF0F34DD546800202EE000F132
S31508000950080C4FF0010808FA0CF3B1F800C00CEACD
S3150800096003069E4221D183004FF00F0C0CFA03F7C1
S31508000970BC4305FA03FC4CEA040491F803C0BCF135
S31508000980280F05D100F1080C08FA0CF8C2F81480F3
S3150800099091F803C0BCF1480F07D100F1080C4FF0DD
S315080009A0010808FA0CF8C2F81080401C0828CED3B3
S315080009B05460BDE8F0810246002093680B400BB1F5
S315080009C0012000E0002070470AB1016100E04161A2
S315080009D0704700BFFEE700BFFEE7704770B500210D
S315080009E000230F22C47804B3154C246804F4E06489
S315080009F0C4F5E064210AC1F10403CA40447804FA44
S31508000A0003F184781440214309010E4C0678A15558
S31508000A10047804F01F050124AC4005786D11AD007B
S31508000A2005F1E025C5F8004109E0047804F01F0542
S31508000A300124AC40044D0678761145F8264070BD71
S31508000A400CED00E000E400E080E100E0024901432B
S31508000A50024A1160704700000000FA050CED00E03C
S31508000A607047000029B1064AD2690243044BDA618D
S31508000A7004E0034AD2698243014BDA6170470000F9
S31508000A800010024029B1064A92690243044B9A6152
S31508000A9004E0034A92698243014B9A617047000059
S31508000AA00010024030B500210022002400232D4DFD
S31508000AB06D6805F00C0121B1042905D0082923D158
S31508000AC005E0294D056022E0274D05601FE0254D0C
S31508000AD06D6805F47012234D6D6805F4803402259F
S31508000AE005EB92421CB9214D554305600BE01D4D9F
S31508000AF06D6805F400351DB11C4D5543056002E0CF
S31508000B00194D5543056002E0174D056000BF00BF4B
S31508000B10144D6D6805F0F0010909154D6B5C056803
S31508000B20DD4045600F4D6D6805F4E061090A104D1A
S31508000B306B5C4568DD4085600A4D6D6805F460515B
S31508000B40C90A0B4D6B5C4568DD40C560054D6D688F
S31508000B5005F44041890B074D6B5CC568B5FBF3F599
S31508000B60056130BD0010024000127A0000093D0000
S31508000B70140000202400002010B50146002200239E
S31508000B8000204A11012A02D1094C236806E0022AEC
S31508000B9002D1074C236A01E0054C636A01F01F0283
S31508000BA0012494401C400CB1012000E0002010BD37
S31508000BB0001002400248406800F00C007047000030
S31508000BC00010024001460020034A506820F0F00059
S31508000BD00843506070470000001002401149096838
S31508000BE021F480310F4A11601146096821F48021E9
S31508000BF01160B0F5803F03D0B0F5802F0ED106E026
S31508000C000849096841F48031064A116007E0054938
S31508000C10096841F4A021034A116000E000BF00BF43
S31508000C20704700000010024001460020034A506841
S31508000C3020F4E0600843506070470000001002404E
S31508000C4001460020034A506820F4605040EAC1007B
S31508000C50506070470010024001490866704700005E
S31508000C600000424202460020044B586820F47C10DB
S31508000C7042EA01031843014B5860704700100240CE
S31508000C8001460020034A506820F0030008435060DC
S31508000C907047000000100240704710B500F002F8D7
S31508000CA010BD00000CB50020019000903348006884
S31508000CB040F480303149086000BF3048006800F4CD
S31508000CC0003000900198401C0190009818B90198CE
S31508000CD0B0F5A06FF1D12948006800F4003010B1D2
S31508000CE00120009001E0002000900098012843D1DF
S31508000CF02348006840F0100021490860084600684B
S31508000D0020F0070008600846006840F00200086006
S31508000D101A484068194948600846406848600846C5
S31508000D20406840F4806048600846406820F47C10BB
S31508000D3048600846406840F4E8104860084600687D
S31508000D4040F08070086000BF0C48006800F0007032
S31508000D500028F9D00948406820F003000749486090
S31508000D600846406840F00200486000BF03484068F3
S31508000D7000F00C000828F9D10CBD00000010024054
S31508000D80002002400448036840685A1C40F10000ED
S31508000D9001490A60486070470800002010B51348EA
S31508000DA0006840F00100114908600846406810498B
S31508000DB008400E494860084600680E4908400B4935
S31508000DC008600846006820F48020086008464068E5
S31508000DD020F4FE0048604FF41F008860FFF75DFFAF
S31508000DE04FF000600449086010BD00000010024082
S31508000DF00000FFF8FFFFF6FE08ED00E010B5012140
S31508000E000C48006800F029F898B1012109480068E3
S31508000E1000F014F80848B0F8800020F4004000F507
S31508000E2000400549A1F8800000210248006800F04A
S31508000E3008F810BD2800002060000020CA4302827E
S31508000E40704721B1028842F00102028004E002885C
S31508000E504FF6FE731A400280704730B502460020EE
S31508000E6000230024158A05EA0103958905EA010489
S31508000E7013B10CB1012000E0002030BD1AB18389FE
S31508000E800B43838102E083898B4383817047818486
S31508000E9070470000002202881D4B98420ED01D4B59
S31508000EA098420BD0B0F1804F08D01B4B984205D022
S31508000EB01A4B984202D01A4B984204D14FF68F73B8
S31508000EC01A404B881A43174B984207D0164B98423C
S31508000ED004D04FF6FF431A40CB881A4302808B880A
S31508000EE083850B8803850A4B98420BD0094B984299
S31508000EF008D00E4B984205D00D4B984202D00D4BA8
S31508000F00984201D10B7A0386012383827047000039
S31508000F10002C014000340140000400400008004055
S31508000F20000C004000100040001400400040014042
S31508000F3000440140004801404FF6FF7181800021BE
S31508000F400180C180418001727047000010B50821F8
S31508000F503248006800F08CF840B108212F48006834
S31508000F6000F062F82D48006800F04AF940F2255171
S31508000F702A48006800F089F800284DD027480068FC
S31508000F8000F03EF9C4B22648B0F88000C0F30E005F
S31508000F907F2822DA002123480068FFF778FF2048D7
S31508000FA0B0F88000C0F30E0020B901211D48006882
S31508000FB0FFF747FF1A48B0F88000C0F30E0018493B
S31508000FC00C540846B0F88000401CB1F8801060F355
S31508000FD00E011348A0F8801018E01148B0F88000F8
S31508000FE06FF30E000E49A1F880000846B0F880009D
S31508000FF0C0F30E000C540846B0F88000401CB1F847
S31508001000801060F30E010648A0F8801040F22551C2
S315080010100248006800F011F810BD00002C000020FE
S31508001020600000202800002001F40072B2F5007F5D
S3150800103000D100BFCA430280704710B500220023C2
S3150800104040F66A14A14200D100BF0A120124944056
S31508001050A3B2DC43048010BD21B1828942F4005258
S31508001060828104E082894DF6FF731A4082817047B7
S3150800107002460020B1F5007F00D100BF13880B405F
S315080010800BB1012000E00020704770B5024600242D
S3150800109000230025002040F66A16B14200D100BFA1
S315080010A0C1F3421501F01F03012606FA03F3012DC9
S315080010B002D19689334006E0022D02D1168A3340C2
S315080010C001E0968A33400C12012606FA04F41688C3
S315080010D0344013B10CB1012000E0002070BDF0B51A
S315080010E00346002400260025002040F66A17B94268
S315080010F000D100BF1846C1F3421401F01F060127AC
S3150800110007FA06F5012C01D10C3004E0022C01D1B6
S31508001110103000E014301AB107682F43076002E068
S315080011200768AF430760F0BD2DE9F04786B005466E
S315080011300E460024A24600BFA1460027B08900B18A
S3150800114000BF2F462C8A4CF6FF700440F0880443F3
S315080011502C82AC894EF6F3100440B08831890843D6
S31508001160718908430443AC81AC8A4FF6FF400440BA
S31508001170B0890443AC8201A8FFF794FC1F48874254
S3150800118002D1DDF810A001E0DDF80CA0A88900F472
S31508001190004040B10AEBCA0000EB0A10316849006A
S315080011A0B0FBF1F807E00AEBCA0000EB0A10316859
S315080011B08900B0FBF1F86420B8FBF0F004012009BF
S315080011C0642101FB1089A88900F4004040B132204F
S315080011D000EBC900B0FBF1F000F00700044308E09B
S315080011E0322000EB09106421B0FBF1F000F00F008B
S315080011F004432C8106B0BDE8F087000000380140A2
S3150800120001468888C0F308007047C1F30802828047
S3150800121070474FF41651016000218180C180018119
S315080012200C21418100218181704700BFFEE7000043
S315080012300FB4084B10B504A902AA039800F0F0F8F9
S31508001240044602A9002000F082FC204610BC5DF886
S3150800125014FB00004F1B000837B514460846064B1A
S315080012606A46214600F0DCF804466946002000F08C
S315080012706EFC20463EBD00004F1B000802E008C871
S31508001280121F08C1002AFAD170477047002001E0F2
S3150800129001C1121F002AFBD1704700002DE9FF5F2C
S315080012A082B00021DDE90430020DDDF840B00343C9
S315080012B018D044F61050A2F2FF3242431514119882
S315080012C001281FD0A5EB0B00401C5FEA000A4FF06F
S315080012D000064E4FDFF83891B046504615D5CAF18C
S315080012E0000413E0119801244AA3012801D16FEAEA
S315080012F00B010298119AC0E90031C0E9024206B012
S31508001300BDE8F09FCBF10000DFE704460021404A24
S31508001310491842EB0450CDE9001012E0E00707D067
S3150800132032463B4640464946FFF712F8804689460C
S3150800133032463B4610461946FFF70AF806460F4658
S315080013406410002CEAD1DDE90401DDE90023BAF1D5
S31508001350000F06DAFEF7FCFF42464B46FEF7F8FF9B
S3150800136005E0FFF767F842464B46FFF763F8044681
S315080013700E460022284BFFF74BFA03D84FF0FF30F2
S31508001380014607E00022254B20463146FEF739FF85
S31508001390FFF726FA102409E0002C0ADB0A220023AC
S315080013A0FFF728F9039B30321A55641E50EA0102EA
S315080013B0F2D1641C039AC4F111031444119A012A48
S315080013C003D0012208430DD10AE0084304D00020C7
S315080013D04FF0110B119072E7A3EB0B056D1E0DE094
S315080013E05B4504DD4FF0000205F1010504E003DA70
S315080013F04FF00002A5F10105002AECD002981199D8
S31508001400C0E90231C0E9004579E700000000144050
S315080014100000F03F300000000000F0430000E03F0D
S315080014202DE9FF4F95B09B468946064600250FE2F3
S31508001430252877D100242746F84A0121059400E09B
S31508001440044316F8013F203B01FA03F01042F7D196
S3150800145030782A2811D06FF02F033078A0F13002A7
S31508001460092A16D8059A44F0020402EB820203EB15
S3150800147042021044761C0590EFE759F8042B0592B2
S31508001480002A03DA504244F40054059044F002045A
S31508001490761C30782E2816D116F8010F44F004046D
S315080014A02A280DD06FF02F023078A0F13003092BCF
S315080014B009D807EB870302EB4303C718761CF3E743
S315080014C059F8047B761C30786C280FD006DC4C283B
S315080014D017D068280DD06A2814D104E0742810D0D3
S315080014E07A280FD10DE044F400140AE044F480147D
S315080014F001E044F440147278824202D104F5801463
S31508001500761C761C307866280BD013DC582877D0E2
S3150800151009DC002875D04528F6D04628F4D0472897
S315080015201AD19DE118E0632835D0642879D065285A
S3150800153012D195E1702873D008DC6728F1D06928A4
S315080015406FD06E280DD06F2806D1B5E073282CD041
S31508001550752875D0782874D05A46179990476D1C07
S3150800156075E1C4F30250022809D003280DD0D9F832
S31508001570001004280DD00D6009F1040967E1D9F8B7
S315080015800010EA17C1E90052F6E7D9F800100D80F5
S31508001590F2E70D70F0E719F8041B8DF8001000202B
S315080015A08DF80100EA46012003E059F804AB4FF034
S315080015B0FF3061074FF0000102D40DE008F1010188
S315080015C08846B9420FDA8045F8DB1AF80810002970
S315080015D0F4D108E008F1010188468142FADB1AF8DD
S315080015E008100029F6D105985B46A0EB08072146A6
S315080015F03846179A00F094FA284400EB080507E0E5
S315080016004DE029E10DE01AF8010B5A461799904763
S31508001610B8F10108F7D25B4621463846179A13E116
S3150800162042E00A220092C4F302524FF0000A022A4C
S3150800163008D059F804CB032A4FEAEC710AD00DE01A
S3150800164029E02AE009F1070121F00702F2E802C1C0
S31508001650914609E00FFA8CFC4FEAEC71042A03D193
S315080016604FFA8CFC4FEAEC71002907DA0A4600218A
S31508001670DCF1000C61EB02012D2202E0220504D503
S315080016802B228DF80420012203E0E20701D0202254
S31508001690F7E7904659E00A2102E010220DE01021F2
S315080016A04FF0000A00910BE010224FF0000A44F0B8
S315080016B004040827009203E008224FF0000A00926B
S315080016C0C4F30252022A05D059F804CB0021032A92
S315080016D008D009E009F1070121F00702F2E802C182
S315080016E0914605E01FFA8CFC042A01D10CF0FF0C88
S315080016F04FF00008220728D5702806D0009B83F0F3
S31508001700100353EA0A0305D00EE040228DF80420A0
S31508001710012208E05CEA010206D030228DF8042096
S315080017208DF8050002229046009B83F0080353EAD1
S315080017300A030AD15CEA010201D1620705D5302203
S315080017408DF804204FF001087F1E582804D034A0D5
S3150800175003900EA802900DE036A0F9E753466046BE
S31508001760009AFEF747FF84460398825C0298401E5B
S31508001770029002705CEA0100F0D1029806A9081AE4
S3150800178000F1200A600702D524F4803400E001271E
S31508001790574502DDA7EB0A0000E0002000EB0A012E
S315080017A0009005984144401A0590E00306D45B462C
S315080017B02146179A059800F0B3F90544002706E074
S315080017C001A85A46C05D179990476D1C7F1C47456E
S315080017D0F6DBE0030CD55B462146179A059800F020
S315080017E09FF9054404E030205A46179990476D1C26
S315080017F00099481E00900029F5DC08E00298029935
S315080018005A460078491C0291179990476D1CBAF1FF
S315080018100001AAF1010AF1DC65E1000009280100CE
S315080018203031323334353637383961626364656648
S31508001830000000003031323334353637383941420A
S31508001840434445460000000000F058F90544761C5C
S31508001850307800287FF4ECAD19B02846BDE8F08F43
S31508001860620700D4062709F1070222F0070CFCE8F4
S315080018700223E14603F000485FEA080C02D00FF2A3
S31508001880702C0DE05FEA045C02D50FF2682C07E0C5
S315080018905FEAC47C02D00FF2602C01E0AFF2700C54
S315080018A04FF0FF3823F00043CDF850C065280CD020
S315080018B006DC452809D046281DD047283DD13DE0FD
S315080018C0662818D067287ED138E00021112F01DB61
S315080018D0112000E0781CCDE9000106A90EA8FFF743
S315080018E0DDFCDDE90F010E9A03910021009207F154
S315080018F0010A04914DE04FF000400097CDE9011030
S3150800190006A90EA8FFF7CAFCDDE90F0203920E9B93
S3150800191011990022DDF80CA00093049211B9791CE4
S3150800192000EB010AB7EB0A0004D4C0F1FF3007F157
S31508001930010A0490AAEB0700019044E0012F00DA9F
S3150800194001270021112F01DD112000E03846CDE9DD
S31508001950000106A90EA8FFF7A1FCDDE90F010E9A02
S315080019600391002104910092BA4621070CD40399E9
S31508001970514500DA8A46BAF1010F05DD009AAAF147
S315080019800101515C302908D0B84202DA10F1040F7F
S3150800199006DA0121CDE9011015E0AAF10101E9E70E
S315080019A0002805DC049901440491AAEB000102E031
S315080019B0411C514500DD8A460499401A401C019095
S315080019C04FF000400290200704D40198504501DBEF
S315080019D0CDF8048000208DF84F0002980DF14F07CE
S315080019E0B0F1004F25D02B200E9002984FF0020838
S315080019F000280CDA404202902D200E9007E00A21BA
S31508001A000298FEF7E1FD3031029007F8011DB8F1A2
S31508001A100001A8F10108F2DC02980028EFD1791E2E
S31508001A200E980870307800F0200040F0450007F85E
S31508001A30020D12A8C01B00F107081498007800B11F
S31508001A40012000EB0A01019801EBE0710598414479
S31508001A50401A401E0590E00306D45B462146179AB5
S31508001A60059800F05DF805441498007818B15A46B0
S31508001A70179990476D1CE00324D55B462146179AB3
S31508001A80059800F04DF805441CE00498002807DB8B
S31508001A90DDE90301884203DD0098405C179901E0FF
S31508001AA0179930205A469047049805F10105401CBD
S31508001AB004900198401E019004D12E205A46179989
S31508001AC090476D1CBAF10001AAF1010ADDDC05E0B8
S31508001AD017F8010B5A46179990476D1CB8F1000183
S31508001AE0A8F10108F4DC5B462146179A0598ABE68F
S31508001AF02D0000002B000000200000002DE9F04119
S31508001B00044600251E461746880404D405E03946CF
S31508001B102020B0476D1C641EF9D52846BDE8F08123
S31508001B202DE9F041044600251E469046C80301D516
S31508001B30302700E02027880404D505E041463846CA
S31508001B40B0476D1C641EF9D52846BDE8F0810A68C1
S31508001B50531C0B6010707047F0B5837B03B9F0BD5A
S31508001B60002901DB802900DBF9E7002A01DB402A8E
S31508001B7000DBF4E7438BBBB1838BABB1B0F916300E
S31508001B808B4205DCB0F91630448B23448B4200DCCB
S31508001B90E5E7B0F91830934205DCB0F91830848BC4
S31508001BA02344934200DCDAE7837B012B1CD1D5174B
S31508001BB002EB5575ED1001EBC5154668755D1446C3
S31508001BC0D61702EB5676F610A2EBC6070126BE40DC
S31508001BD03543EEB21346D51702EB5575ED1001EBFA
S31508001BE0C51547687E551AE0D51702EB5575ED10F1
S31508001BF001EBC5154668755D1446D61702EB567691
S31508001C00F610A2EBC6070126BE40B5431346D61703
S31508001C1002EB5676F61001EBC6164768BD5500BFAF
S31508001C209DE7000070B505460C4600F0DBFA06464F
S31508001C3013E000BF002202210C48FEF7C5FE00BFD4
S31508001C40284600F05DF900BF012202210748FEF789
S31508001C50BBFE00BF284600F053F900F0C3FA801B0C
S31508001C60A042E6D300F0A4F870BD0000000C0140C5
S31508001C702DE9F04107460D461646012E06D0022EDE
S31508001C800BD0032E10D0042E1DD115E050201E496E
S31508001C90088032201D49088017E096201A490880D6
S31508001CA064201A49088010E04FF496701649088097
S31508001CB0C8201649088008E0C8201349088064200F
S31508001CC01249088001E0BDE8F08100BF00F08AFAF9
S31508001CD004460EE00C4801883846FFF7A3FF00F0DB
S31508001CE081FA001BA84200D308E00848008800F0E3
S31508001CF0F5F800F077FA001BA842EBD300BF00F016
S31508001D0057F800BFDFE700000000002002000020AF
S31508001D102DE9F04106460D4690461F4636B1012E7E
S31508001D2006D0022E07D0032E09D106E0FA2408E0D1
S31508001D304FF4FA7405E0C82403E0A62401E0BDE8E0
S31508001D40F08100BF25B939462046FFF76BFF06E04C
S31508001D50012D04D1424639462046FFF789FF00BFC8
S31508001D60EDE7000008B500BF01210820FEF78AFE4E
S31508001D7000BF0220ADF8000010208DF803000220F5
S31508001D808DF8020069460348FEF78AFD00F010F850
S31508001D9008BD0000000C014010B5FFF7E3FF00F096
S31508001DA017F8322000F09AF800F002F8002010BD6B
S31508001DB010B500BF012202210448FEF705FE00BF48
S31508001DC00A2000F09DF8002010BD0000000C01401C
S31508001DD010B500BF002202210448FEF7F5FD00BF3A
S31508001DE00A2000F08DF8002010BD0000000C01400C
S31508001DF02DE9F041C1F30A52A2F2FF362F4A304BC1
S31508001E000D460446142E2FDA002E12DAFEF7F9F9DB
S31508001E1000221346FEF7FCFC4CD2002DBCBF4FF047
S31508001E200045002446DB55EA040018BF254D19D1A4
S31508001E3040E0DFF894C02CFA06F705EA070C5CEADE
S31508001E40040C08BFBDE8F081FEF7DBF90022134653
S31508001E50FEF7DEFC2ED2002D03DD4FF48010F04095
S31508001E600544BD43002425E0332EC8BFBDE8F081F4
S31508001E70A6F1140C4FF0FF3727FA0CF73C4208BFBF
S31508001E80BDE8F081FEF761FA00221346FEF7C0FCB2
S31508001E9010D2002D0DDD142E08BF6D1C09D0C6F119
S31508001EA03400012101FA00F02044A04238BF6D1C1D
S31508001EB00446BC4329462046BDE8F0819C75008847
S31508001EC03CE4377E0000F03FFFFF0F00002100E0F2
S31508001ED0491CC2008A42FBD87047000070B5044608
S31508001EE001F000FB054800680519002600BF0348F5
S31508001EF000680021401BB141F9D370BD08000020DD
S31508001F0070B5044601F0EEFA00F0DAF9021941F16B
S31508001F100000551C40F1000600BF00F0D1F9401B37
S31508001F20B141FAD370BD00002DE9F04F87B00546E0
S31508001F300F4690469946A87B20B9287B10B907B06A
S31508001F40BDE8F08F95F80DA0012068734846FEF7A6
S31508001F50E5FA0022214BCDE90001FEF76BFACDE93F
S31508001F600201FFF745FFCDE90401FEF7F8FA1FFA6B
S31508001F7080FB00242CE0002625E0E21704EB5272D1
S31508001F80D21006FB0B23119AD25CE31704EB5373AA
S31508001F90DB10A4EBC30C802343FA0CF31A4042B1BE
S31508001FA008EB060002B2381901B2284601F0F8F823
S31508001FB007E008EB060002B2381901B22846FFF717
S31508001FC0CBFD701C06B210988642D6DB601C04B2A4
S31508001FD04C45D0DB85F80DA000BFB0E700002040D7
S31508001FE02DE9F04F87B004460F46A06810B907B030
S31508001FF0BDE8F08F3946204601F0DEFA0646002590
S31508002000002E07DBA068006A06EB460101EBC60155
S3150800201000EB8105608C00287CD0A08C002879D044
S31508002020B4F91680B4F91890608B0FFA80FAA08B71
S315080020300FFA80FB608B70B3A08B60B3E08BADF8B2
S315080020401400208CADF81600608CADF81800A08C32
S31508002050ADF81A00E08AADF80C00208BADF80E003A
S31508002060608BADF81000A08BADF8120004980090B4
S31508002070039BDDE9051201A800F0BCF8BDF80400D1
S31508002080E082BDF806002083BDF808006083BDF82D
S315080020900A00A08308E0FFE7E08BE082208C20831B
S315080020A0608C6083A08CA083B4F91000B4F91E106C
S315080020B0884207DBB4F91E00618C0844B4F9101095
S315080020C0884201DCE08B2082A5B1B4F91000A98909
S315080020D00844B4F91E10628C114488420ADBE08B6E
S315080020E02082608AA168898A0844A168098B084405
S315080020F000B260820D2F02D1E08B20820AE00A2FFF
S3150800210008D1608AA168898A0844A168098B0844AD
S3150800211000B260826DB3A068808A0090608AD4F8A5
S3150800212008C0BCF818C0A0EB0C00D4F808C0BCF86E
S3150800213014C0A0EB0C0002B2AB89B4F9101020460B
S3150800214000F02BF8E98BA86ACDE90010608AB5F88B
S3150800215022C0A0EB0C00B5F81EC0A0EB0C0002B222
S31508002160208AB5F820C0604401B2AB8B2046FFF741
S31508002170DBFE608C48B1A08C38B1A4F81680A4F8B0
S315080021801890A4F81AA0A4F81CB025B1208AA98929
S31508002190084400B2208200BF29E72DE9F0478046AF
S315080021A00D4616469946DDF820A098F80E0008B99F
S315080021B0BDE8F0872C460EE0374606E03A4621464B
S315080021C04046FFF7C9FC781C07B206EB0A00B8427E
S315080021D0F4DC601C04B205EB0900A042ECDC00BF8D
S315080021E0E6E7000010B501F07DF90148006810BD6A
S315080021F0080000200FB4FCB504460025009501959B
S31508002200BDF92050BDF92860B54202DDBDF9205060
S3150800221001E0BDF928502846BDF92050BDF82460D4
S315080022203544BDF92860BDF82C703E44B54205DD3D
S31508002230BDF92850BDF82C60354404E0BDF920509E
S31508002240BDF82460354429B2BDF92250BDF92A608B
S31508002250B54202DDBDF9225001E0BDF92A502A46F1
S31508002260BDF92250BDF826603544BDF92A60BDF88F
S315080022702E703E44B54205DDBDF92A50BDF82E60E4
S31508002280354404E0BDF92250BDF8266035442BB22A
S3150800229088420DDA9A420BDAADF80000ADF8022052
S315080022A00D1AADB2ADF804509D1AADB2ADF8065090
S315080022B0009D2560019D6560FCBC5DF814FB00006F
S315080022C02DE9F04101F00EF94FF0E020006920F405
S315080022D080304FF0E0210861194804680025084657
S315080022E0866905E04FF0E0208669154804680025F0
S315080022F04FF0E020006900F480300028F2D14FF456
S315080023007A722146A1FB027C05FB02C204FB00256A
S315080023103C464FF0E0214969881BFEF7FAF88046EB
S31508002320084801684046FDF73AFF0746FEF703F9F5
S31508002330041945F1000520462946BDE8F08100004C
S31508002340080000201000002008B500BF0121082061
S31508002350FEF798FB00BF00BF01210820FEF792FB9D
S3150800236000BF00BF01210820FEF78CFB00BF4FF419
S315080023708050ADF8000048208DF8030003208DF842
S31508002380020069460E48FEF78BFA4FF40050ADF886
S31508002390000048208DF8030003208DF802006946E6
S315080023A00748FEF77DFA4FF48040ADF80000282074
S315080023B08DF8030069460248FEF772FA08BD000068
S315080023C0000C014010B5FFF7BFFF10BD70B50446FD
S315080023D0002514B10120264908702548007878B3ED
S315080023E04FF480512348FEF7E6FA60B14FF40051E6
S315080023F02048FEF7E0FA30B14FF480411D48FEF759
S31508002400DAFA01281DD10A20FFF768FD00201849CD
S3150800241008704FF480511748FEF7CDFA00B9012528
S315080024204FF400511348FEF7C6FA00B902254FF4D7
S3150800243080411048FEF7BFFA012817D1032515E099
S31508002440FFE74FF480510B48FEF7B5FA01280DD186
S3150800245041030848FEF7AFFA012807D1810305486A
S31508002460FEF7A9FA10B9012001490870284670BD7F
S3150800247004000020000C014010E000224FF4005137
S315080024800748FEF7A1FAC820FFF728FD01225103E5
S315080024900348FEF799FAC820FFF720FDEDE700008C
S315080024A00010014008B501211020FEF7EBFA4FF4A1
S315080024B00050ADF8000002208DF8020014208DF8B7
S315080024C0030069460448FEF7EBF901225103024866
S315080024D0FEF77AFA08BD0000001001407FB50446F1
S315080024E000200090019002900390E3B2220A08A10E
S315080024F06846FEF79DFE4FF4FA720AA1684600F098
S315080025008FF9054615B1012004B070BD0020FBE720
S3150800251041542B414444523D253032582C25303203
S31508002520580000004F4B000070B500250BE04FF433
S31508002530FA7207A107A000F073F904460CB9002047
S3150800254070BD681CC5B20A2DF1DB0120F8E7000052
S315080025504F4B0000415400001CB5012211465C484F
S3150800256000F0FBFD00215A4800F0F2FD59A00023B7
S31508002570192219460090564800F0F2FD5AA0002389
S31508002580282219460090524800F0EAFD51A04FF45F
S31508002590FA733722002100904D4800F0E1FD4FF410
S315080025A0E13000F029F904466CB1494800F0C8FB4F
S315080025B052A04FF4FA7319221E210090444800F0E5
S315080025C0CFFDFFF759FF00F0BBF80220FFF786FFA3
S315080025D004461421052000F0CDFA2044C4B2032095
S315080025E000F0ACF92044C4B2002000F025FB2044DA
S315080025F0C4B2002000F07AF92044C4B2002000F0EA
S31508002600F1FA2044C4B20021072000F0C7F920449B
S31508002610C4B200F0A1F86CB12D4800F091FB37A0C8
S315080026204FF4FA7319221E210090294800F098FDEC
S31508002630FFF722FF264800F083FB33A04FF4FA7316
S3150800264028221E210090224800F08AFD3EE02048FC
S3150800265000F076FB2FA000233222192100901C4897
S3150800266000F07EFD0020FFF7B1FE0646012E14D1CC
S3150800267000F07EF8042810D029A000F037FA144894
S3150800268000F05EFB2AA032231A4619210090104852
S3150800269000F066FD6420FFF721FC00F043FA0546CA
S315080026A08DB10B4800F04CFB24A04FF4FA731922A5
S315080026B00021CDE90005064800F052FD00F048FA71
S315080026C06420FFF70BFC0A20FFF708FCBFE70000B1
S315080026D0380000202A2A2A2A2A2A2A2A2A2A2A2A9C
S315080026E02A2A2A2A2A2A2A003C3C3C3C53544D339F
S315080026F0322D4C6F52613E3E3E3E00006C6F526179
S3150800270020657272210000006C6F5261206F6B2188
S31508002710000000004B4559303A2053656E640000AE
S3150800272048656C6C6F204C6F5261210D0A000000E1
S3150800273053656E6420646F6E652100002573000082
S3150800274010B500BF0122D1030248FEF73DF900BFCC
S3150800275010BD0000000C014010B500BF00224FF468
S3150800276000410248FEF730F900BF10BD000C0140D9
S3150800277010B54FF480710448FEF71DF908B104201E
S3150800278010BD0020FCE700000008014008B500BFA6
S3150800279001210420FEF776F900BF00BF01210420BD
S315080027A0FEF770F900BF4FF48070ADF800004820BE
S315080027B08DF8030003208DF8020069460C48FEF7E1
S315080027C06FF84FF40040ADF8000010208DF80300B4
S315080027D003208DF8020069460648FEF761F800BF37
S315080027E000224FF400410348FEF7EEF800BF08BD8B
S315080027F000080140000C014070B50446FFF7C6FF0B
S31508002800204600F00DF9FFF79BFFFFF78DFE054602
S31508002810FFF7A2FF0DB1012070BD0020FCE7000004
S315080028202DE9F04105460E461446002700F090F9BA
S3150800283029460FA000F05AF906B114B90020BDE8E0
S31508002840F08110E000F06EF9074647B13146384688
S31508002850FDF78CFC08B10020F1E700F079F9641E59
S315080028600120FFF73BFB002CECD10220E7E7000034
S3150800287025730D0A000000000EB500F01FF8684623
S31508002880FEF75AFB41F61F40ADF800000020ADF8F0
S3150800289002006320ADF804000020ADF80600694682
S315080028A005480068FEF7F6FA012211460248006854
S315080028B0FEF7E4FA0EBD00002800002008B500BFA8
S315080028C001210846FEF7CEF800BF1C208DF800004F
S315080028D001208DF8010000208DF8020001208DF8F6
S315080028E003006846FEF77AF808BD00003EB50446C0
S315080028F0002000900190029014B1012C02D100E052
S3150800290000BF01E003203EBD00BF224607A168467E
S31508002910FEF78EFC4FF4FA7207A16846FFF780FFB0
S3150800292005460DB10120EEE70020ECE741542B5493
S315080029304D4F44453D2564004F4B00003EB50446C7
S31508002940002000900190029034B1012C05D0022C91
S3150800295004D0032C04D102E000BF00BF00BF01E091
S3150800296003203EBD00BF224607A16846FEF760FC6D
S315080029704FF4FA7208A16846FFF752FF05460DB1F3
S315080029800120EEE70020ECE741542B54504F574501
S31508002990523D2564000000004F4B0000FEB504467A
S315080029A00D460020009001900290082C0DD2DFE819
S315080029B004F00405060708090A0B00BF00BF00BF9C
S315080029C000BF00BF00BF00BF01E00320FEBD00BF7F
S315080029D025B1012D03D0022D03D101E000BF00BFB0
S315080029E001E00320F2E700BF2B46224607A168460E
S315080029F0FEF71EFC4FF4FA7208A16846FFF710FFAF
S31508002A0006460EB10120E1E70020DFE741542B55C9
S31508002A104152543D25642C25640000004F4B0000AC
S31508002A2010B586B0044600BF01218803FEF72AF8D0
S31508002A3000BF00BF01210420FEF724F800BF00BF35
S31508002A4001210420FEF71EF800BF4FF40070ADF810
S31508002A50140018208DF8170003208DF8160005A914
S31508002A602048FDF71DFF4FF48060ADF814000420E0
S31508002A708DF8170005A91B48FDF712FF01A8FEF7F8
S31508002A80C8FB01940020ADF80800ADF80A00ADF8BF
S31508002A900C000C20ADF80E000020ADF8100001A9BE
S31508002AA011480068FEF740FB012240F225510E4806
S31508002AB00068FEF714FB25208DF8000000208DF82D
S31508002AC001008DF8020001208DF803006846FDF725
S31508002AD085FF012104480068FEF7BEFAFFF7CCFE21
S31508002AE006B010BD000801402C0000200FB438B510
S31508002AF005A800900948009A0499FEF7ADFB002046
S31508002B0000900648FDF744FB84B222460349044870
S31508002B10006800F06CFD38BC5DF814FBE20000208C
S31508002B202C0000200948B0F880000121B1EBD03F05
S31508002B3009D100200549B1F88010C1F30E01034AF6
S31508002B405054104670470020FCE700006000002043
S31508002B500748B0F880006FF30E000549A1F8800019
S31508002B600846B0F8800020F40040A1F880007047BD
S31508002B70600000207FB504460D46002000900190B5
S31508002B8002900390062C09D2DFE804F00803040536
S31508002B90060700BF00BF00BF00BF02E0032004B065
S31508002BA070BD00BF532D01DD0320F8E723462A46F2
S31508002BB007A16846FEF73CFB4FF4FA7208A168467F
S31508002BC0FFF72EFE06460EB10120E8E70020E6E7ED
S31508002BD041542B574C524154453D25642C256400DD
S31508002BE04F4B00003EB5044600200090019002902D
S31508002BF014B1012C02D100E000BF01E003203EBD64
S31508002C0000BF224607A16846FEF712FB4FF4FA7288
S31508002C1008A16846FFF704FE05460DB10120EEE758
S31508002C200020ECE741542B574C54494D453D25644B
S31508002C30000000004F4B00003EB5044600200090FF
S31508002C400190029034B1012C05D0022C04D0032C3B
S31508002C5004D102E000BF00BF00BF01E003203EBD73
S31508002C6000BF224607A16846FEF7E2FA4FF4FA7259
S31508002C7008A16846FFF7D4FD05460DB10120EEE729
S31508002C800020ECE741542B43574D4F44453D2564FE
S31508002C90000000004F4B000010B54FF4A060FDF790
S31508002CA0D5FE092000F0D8FB00F01CFC00F0CEF998
S31508002CB0FFF7F8FBFFF770F8FFF784FB4FF47A731A
S31508002CC0032201210846FFF723F8FFF745FC0020F9
S31508002CD010BD0000F0B50B30154D20F0070100249B
S31508002CE0144A0FE003688B420BD38B4205D95E1A50
S31508002CF043184768C3E9006700E04368136002C0E9
S31508002D0004E0021D10680028ECD12046002802D1F4
S31508002D10286808B10020F0BD064A07481060074A2F
S31508002D20121A22F00702C0E9002401202860D7E71A
S31508002D3034000020300000206C01002068110020BB
S31508002D4010B504464FF480616068FDF704FA10BDBB
S31508002D502DE9F05F82460E46002700BF3846791CEB
S31508002D608FB2355C05B988E005F0800028B9AB4616
S31508002D7059465046FFF734F9F0E705F0E000C02859
S31508002D8014D105F01F053846791C8FB2345C1CB186
S31508002D9004F0C000802800D06FE004F03F0444EA45
S31508002DA0851B59465046FFF71BF9D7E705F0F00093
S31508002DB0E02826D105F00F053846791C8FB2345C19
S31508002DC01CB104F0C000802800D056E004F03F048F
S31508002DD03846791C8FB216F80080B8F1000F03D078
S31508002DE008F0C000802800D047E008F03F08280314
S31508002DF040EA841040EA080B59465046FFF7F0F8B7
S31508002E00ACE705F0F800F028A8D105F00705384624
S31508002E10791C8FB2345C1CB104F0C000802800D045
S31508002E202BE004F03F043846791C8FB216F8008070
S31508002E30B8F1000F03D008F0C000802800D01CE0CD
S31508002E4008F03F083846791C8FB216F80090B9F199
S31508002E50000F03D009F0C000802800D00DE009F06B
S31508002E603F09A80440EA043040EA841040EA090B06
S31508002E7059465046FFF7B4F870E700BFBDE8F09F23
S31508002E8038B504460D462868206040F20140FFF731
S31508002E9021FF6060606810B96FF0010038BD606896
S31508002EA0401C60604FF480616068FDF754F90023A8
S31508002EB01A46AE21204600F012F910B14FF0FF3045
S31508002EC0ECE78020009001236A46D521204600F0D1
S31508002ED006F910B14FF0FF30E0E73F2000900123DC
S31508002EE06A46A821204600F0FAF810B14FF0FF30E4
S31508002EF0D4E70020009001236A46D321204600F03B
S31508002F00EEF810B14FF0FF30C8E700231A4640210B
S31508002F10204600F0E4F810B14FF0FF30BEE7142069
S31508002F20009001236A468D21204600F0D8F810B19A
S31508002F304FF0FF30B2E70020009001236A462021B7
S31508002F40204600F0CCF810B14FF0FF30A6E700237A
S31508002F501A46A121204600F0C2F810B14FF0FF3002
S31508002F609CE700231A46C821204600F0B8F810B19D
S31508002F704FF0FF3092E71220009001236A46DA21CB
S31508002F80204600F0ACF810B14FF0FF3086E7CF20AE
S31508002F90009001236A468121204600F0A0F810B16E
S31508002FA04FF0FF307AE7F120009001236A46D921D5
S31508002FB0204600F094F810B14FF0FF306EE720205D
S31508002FC0009001236A46DB21204600F088F810B1FC
S31508002FD04FF0FF3062E700231A462E21204600F004
S31508002FE07EF810B14FF0FF3058E700231A46A421A7
S31508002FF0204600F074F810B14FF0FF304EE700237A
S315080030001A46A621204600F06AF810B14FF0FF30A4
S3150800301044E700231A46AF21204600F060F810B1B5
S315080030204FF0FF303AE70120607320730020A07349
S3150800303020826082A082E08320846084A084024883
S31508003040A06000202AE70000404A000808B500F002
S3150800305031F90348009069460248FFF711FF08BD99
S31508003060453400083800002038B5044600208DF89D
S31508003070000001236A462021204600F030F810B1EE
S315080030804FF0FF3038BD00208DF800007F208DF806
S31508003090010002236A462121204600F020F810B1DB
S315080030A04FF0FF30EEE700208DF8000007208DF87E
S315080030B0010002236A462221204600F010F810B1CA
S315080030C04FF0FF30DEE74FF480622046616800F07B
S315080030D027F810B14FF0FF30D4E70020D2E72DE9EA
S315080030E0FC4105460E461746984600208DF8000016
S315080030F08DF80160002405E0395DA01C0DF800106C
S31508003100601CC4B24445F7DBA21C694678202B68CC
S31508003110984718B14FF0FF30BDE8FC810020FBE767
S315080031202DE9F04105460C461646002714F8018C91
S31508003130402004F8010C701C82B2611E78202B68AE
S31508003140984700B17F1E04F8018C3846BDE8F08127
S3150800315081737047018242827047017342737047D8
S31508003160F0B591B005460E4617461C463A46314616
S315080031702846FFF7EFFF17A8009001A8009A1699AE
S31508003180FEF76AF80020009001A92846FFF7E0FD3F
S315080031902846FFF769FF2046FEF7A0FE11B0F0BDEE
S315080031A02DE9FC5F04468A469346207B08B9BDE8AC
S315080031B0FC9F607B00B9FAE7607B00EBD071491091
S315080031C0A0EB410139B1607B00EBD0714D102E4662
S315080031D02F46A8460CE0607B00EBD0714D102E46BA
S315080031E02F46A846A8F101001FFA80F8781E87B274
S315080031F0A07B0190207BA073AAEB08000FFA80F948
S3150800320016E0ABEB070000B2009008E049462046FE
S31508003210009AFEF7A1FC0098401C00B200900BEB48
S31508003220060100988142F1DA09F101000FFA80F9E6
S315080032300AEB05004845E4DA0198A07300BFB6E733
S3150800324008B500BF01210820FDF71CFC00BF00BF20
S31508003250012211021648FDF7B7FB00BF00BF012285
S3150800326051021348FDF7B0FB00BF00BF012108203B
S31508003270FDF708FC00BF4FF48070ADF8000014207D
S315080032808DF8030002208DF8020069460848FDF70C
S3150800329007FB4FF40070ADF8000014208DF803000A
S315080032A002208DF8020069460148FDF7F9FA08BDC3
S315080032B0000C014010B5FFF7C3FF10BD70B50546F9
S315080032C007242CE000BF00224FF480712648FDF742
S315080032D07BFB00BF00BF0120A040284008B10120A9
S315080032E000E0002028B1012251021F48FDF76CFBBF
S315080032F005E000224FF400711B48FDF765FB00BF8F
S315080033000220FEF7E3FD00BF012211021648FDF771
S315080033105BFB00BF0220FEF7D9FD601E44B2002CFD
S31508003320D0DA00BF00224FF480710F48FDF74CFB3E
S3150800333000BF00BF012251020B48FDF745FB00BF45
S315080033400220FEF7C3FD00BF012211020648FDF761
S315080033503BFB00BF0220FEF7B9FD4FF4007102489F
S31508003360FDF729FB70BD0000000C01402DE9F04176
S3150800337005460E46174600BF012251021948FDF7B9
S3150800338023FB00BF00BF012211021648FDF71CFBF4
S3150800339000BF00BF00224FF400711248FDF714FB6E
S315080033A000BF0120FEF792FD05F0FE00FFF786FF3D
S315080033B028B100F019F84FF0FF30BDE8F08100247D
S315080033C00AE0305DFFF77AFF20B100F00DF86FF0E4
S315080033D00100F2E7601C84B2BC42F2DB00F004F89C
S315080033E00020EAE7000C014010B500BF00224FF4A8
S315080033F080711348FDF7E8FA00BF0120FEF766FD65
S3150800340000BF00224FF400710D48FDF7DDFA00BF3A
S315080034100120FEF75BFD00BF012211020848FDF7F7
S31508003420D3FA00BF0120FEF751FD00BF0122510269
S315080034300348FDF7C9FA00BF0120FEF747FD10BD96
S31508003440000C014070B504460D461646324629461C
S315080034502046FFF78BFF70BD10B590B004463C229E
S315080034601F4901A8FCF75EFE022C01D3102C01D9D6
S3150800347000BFFEE74FF48030FDF7B0FB00BF3120F8
S31508003480FDF77AFB0028FAD01020FDF7EFF90220A5
S31508003490FDF7FAF90020FDF795FB4FF48060FDF77C
S315080034A0C3FB0020FDF7CCFBA01E01AA52F8201092
S315080034B04FF48030FDF7D6FB0120FDF7CDFB00BFAA
S315080034C03920FDF759FB0028FAD00220FDF7D8FB72
S315080034D000BFFDF76FFB0828FBD110B010BD000038
S315080034E0644A00082DE9F04186B02E480078002885
S315080034F055D101202B490870142101A8FCF72BFE91
S315080035004FF0E020006920F001004FF0E02108614B
S3150800351000202549086001A8FDF7C4FA4FF0E0200D
S31508003520006940F002004FF0E021086100211F48C1
S31508003530C1774FF47A710298B0FBF1F4B4F1807F49
S3150800354009D3E4084FF0E020006920F004004FF0AA
S31508003550E021086107E04FF0E020006940F0040030
S315080035604FF0E0210861601E4FF0E02148610846EF
S31508003570006940F001000861496921F07F41481C53
S31508003580FCF7CCFF07463A460B4600200849FCF7ED
S3150800359051FF0546FCF7FCFF0649086000BF06B068
S315080035A0BDE8F0810C0000200800002000ED00E0D6
S315080035B000408F401000002010B502460B464FF021
S315080035C0FF34906808B9204610BD002108E09068CD
S315080035D0C06950F82100984201D10CB204E0491C98
S315080035E09068408B8842F2D800BF2046ECE72DE968
S315080035F0F04107460E4614460CB9BDE8F081002591
S315080036000CE000BF80213846FDF732FD0028F9D0CE
S31508003610715D3846FDF7F9FD681C85B2A542F0DBF9
S3150800362000BF40213846FDF723FD0028F9D000BF2A
S31508003630E3E700000080808080800080A0A0A05082
S3150800364050F850F850502078A05008D0C0C8102024
S31508003650409818E090A040A89068C040802040801C
S3150800366080804020804020202040805020F8205034
S315080036702020F82020C04080F8C0C00810204080D4
S31508003680708898A8C8887040C040404040E070885C
S3150800369008102040F8F81020100888701030509054
S315080036A0F81010F880F008088870304080F0888894
S315080036B070F80810204040407088887088887070BC
S315080036C0888878081060C0C000C0C0C0C000C0406C
S315080036D08010204080402010F800F88040201020FC
S315080036E040807088081020002070880868A8A87094
S315080036F070888888F88888F08888F08888F07088C4
S315080037008080808870E09088888890E0F88080F0D3
S315080037108080F8F88080E080808070888080988833
S3150800372070888888F8888888C04040404040C03003
S315080037301010101090608890A0C0A090888080809B
S31508003740808080F888D8A8888888888888C8A898B3
S31508003750888870888888888870F08888F080808053
S3150800376070888888A89068F08888F0A09088788003
S3150800377080700808F0F82020202020208888888873
S3150800378088887088888888885020888888A8A8D8D3
S31508003790888888502050888888885020202020F8DB
S315080037A00810204080F8E08080808080E0804020FB
S315080037B01008E02020202020E0205088F8804020B3
S315080037C070087888788080B0C88888F0708080888B
S315080037D070080868988888787088F880703048403B
S315080037E0E040404078887808308080B0C88888886B
S315080037F04000C0404040E0100030101090608080CB
S3150800380090A0C0A090C04040404040E0D0A8A88802
S3150800381088B0C88888887088888870F088F0808022
S31508003820689878080808B0C880808070807008702A
S315080038304040E0404048308888888898688888886A
S3150800384050208888A8A850885020508888887808EA
S3150800385070F8102040F8204040804040208080804A
S31508003860808080808040402040408040A810000032
S3150800387020000000210000002200000023000000B4
S315080038802400000025000000260000002700000094
S3150800389028000000290000002A0000002B00000074
S315080038A02C0000002D0000002E0000002F00000054
S315080038B03000000031000000320000003300000034
S315080038C03400000035000000360000003700000014
S315080038D038000000390000003A0000003B000000F4
S315080038E03C0000003D0000003E0000003F000000D4
S315080038F040000000410000004200000043000000B4
S315080039004400000045000000460000004700000093
S3150800391048000000490000004A0000004B00000073
S315080039204C0000004D0000004E0000004F00000053
S315080039305000000051000000520000005300000033
S315080039405400000055000000560000005700000013
S3150800395058000000590000005A0000005B000000F3
S315080039605C0000005D0000005E0000005F000000D3
S3150800397060000000610000006200000063000000B3
S315080039806400000065000000660000006700000093
S3150800399068000000690000006A0000006B00000073
S315080039A06C0000006D0000006E0000006F00000053
S315080039B07000000071000000720000007300000033
S315080039C07400000075000000760000007700000013
S315080039D078000000790000007A0000007B000000F3
S315080039E07C0000007D0000007E000000A04A000860
S315080039F020000000E80300000700000000000000A7
S31508003A0000000000000000000000000000000000A8
S31508003A100000000034360008D44A000821000000DF
S31508003A20E803000007000000000000000000000096
S31508003A300000000001000700030001000700000065
S31508003A4035360008044B000822000000E803000091
S31508003A500700000000000000000000000000000051
S31508003A600300030002000400030000003C360008BF
S31508003A70344B000823000000E8030000070000009C
S31508003A80000000000000000000000000050007001C
S31508003A9001000100070000003F360008644B0008DB
S31508003AA024000000E80300000700000000000000F2
S31508003AB000000000000000000500060001000200EA
S31508003AC00600000046360008944B00082500000052
S31508003AD0E8030000070000000000000000000000E6
S31508003AE000000000050007000100010007000000B3
S31508003AF04C360008C44B000826000000E803000006
S31508003B0007000000000000000000000000000000A0
S31508003B1005000700010001000700000053360008F1
S31508003B20F44B000827000000E80300000700000027
S31508003B300000000000000000000000000200030072
S31508003B4002000500030000005A360008244C00084D
S31508003B5028000000E803000007000000000000003D
S31508003B60000000000000000003000700020001003A
S31508003B70070000005D360008604C000829000000B8
S31508003B80E803000007000000000000000000000035
S31508003B900000000003000700020001000700000003
S31508003BA064360008904C00082A000000E80300006C
S31508003BB007000000000000000000000000000000F0
S31508003BC00500050001000200050000006B3600082C
S31508003BD0C04C00082B000000E803000007000000A6
S31508003BE000000000000000000000000005000500BD
S31508003BF0010002000500000070360008F04C0008BD
S31508003C002C000000E8030000070000000000000088
S31508003C10000000000000000002000300020001008E
S31508003C200300000075360008204D00082D0000002E
S31508003C30E803000007000000000000000000000084
S31508003C40000000000500010001000400010000005A
S31508003C5078360008504D00082E000000E8030000E2
S31508003C60070000000000000000000000000000003F
S31508003C700200020002000100020000007936000876
S31508003C80804D00082F000000E80300000700000030
S31508003C90000000000000000000000000050005000C
S31508003CA001000200050000007B360008A84A00084B
S31508003CB030000000E80300000700000000000000D4
S31508003CC000000000000000000500070001000100D8
S31508003CD00700000080360008DC4A000831000000B2
S31508003CE0E8030000070000000000000000000000D4
S31508003CF000000000030007000200010007000000A2
S31508003D00873600080C4B000832000000E803000064
S31508003D10070000000000000000000000000000008E
S31508003D200500070001000100070000008E360008A4
S31508003D303C4B000833000000E803000007000000C1
S31508003D400000000000000000000000000500070059
S31508003D500100010007000000953600086C4B0008BA
S31508003D6034000000E803000007000000000000001F
S31508003D700000000000000000050007000100010027
S31508003D80070000009C3600089C4B00083500000020
S31508003D90E803000007000000000000000000000023
S31508003DA000000000050007000100010007000000F0
S31508003DB0A3360008CC4B000836000000E8030000D4
S31508003DC007000000000000000000000000000000DE
S31508003DD0050007000100010007000000AA360008D8
S31508003DE0FC4B000837000000E8030000070000004D
S31508003DF000000000000000000000000005000700A9
S31508003E000100010007000000B13600082C4C00082C
S31508003E1038000000E803000007000000000000006A
S31508003E200000000000000000050007000100010076
S31508003E3007000000B8360008684C00083900000082
S31508003E40E803000007000000000000000000000072
S31508003E50000000000500070001000100070000003F
S31508003E60BF360008984C00083A000000E803000036
S31508003E70070000000000000000000000000000002D
S31508003E80020005000200020005000000C636000810
S31508003E90C84C00083B000000E803000007000000CB
S31508003EA000000000000000000000000002000600FC
S31508003EB00200010006000000CB360008F84C000896
S31508003EC03C000000E80300000700000000000000B6
S31508003ED000000000000000000400070002000100C6
S31508003EE007000000D1360008284D00083D000000F4
S31508003EF0E8030000070000000000000000000000C2
S31508003F000000000005000300010003000300000094
S31508003F10D8360008584D00083E000000E8030000A7
S31508003F20070000000000000000000000000000007C
S31508003F30040007000100010007000000DB36000846
S31508003F40884D00083F000000E80300000700000055
S31508003F500000000000000000000000000500070047
S31508003F600100010007000000E2360008B04A000818
S31508003F7040000000E8030000070000000000000001
S31508003F800000000000000000050007000100010015
S31508003F9007000000E9360008E44A0008410000006E
S31508003FA0E803000007000000000000000000000011
S31508003FB000000000050007000100010007000000DE
S31508003FC0F0360008144B000842000000E803000021
S31508003FD007000000000000000000000000000000CC
S31508003FE0050007000100010007000000F736000879
S31508003FF0444B000843000000E803000007000000E7
S315080040000000000000000000000000000500070096
S315080040100100010007000000FE360008744B000886
S3150800402044000000E803000007000000000000004C
S315080040300000000000000000050007000100010064
S315080040400700000005370008A44B000845000000DB
S31508004050E803000007000000000000000000000060
S31508004060000000000500070001000100070000002D
S315080040700C370008D44B000846000000E80300008F
S31508004080070000000000000000000000000000001B
S3150800409005000700010001000700000013370008AB
S315080040A0044C000847000000E80300000700000071
S315080040B000000000000000000000000005000700E6
S315080040C001000100070000001A370008344C0008F8
S315080040D048000000E8030000070000000000000098
S315080040E000000000000000000500070001000100B4
S315080040F00700000021370008704C0008490000003E
S31508004100E8030000070000000000000000000000AF
S31508004110000000000300070002000100070000007D
S3150800412028370008A04C00084A000000E8030000F1
S31508004130070000000000000000000000000000006A
S315080041400500070001000100070000002F370008DE
S31508004150D04C00084B000000E803000007000000F0
S315080041600000000000000000000000000500070035
S31508004170010001000700000036370008004D00085E
S315080041804C000000E80300000700000000000000E3
S315080041900000000000000000050007000100010003
S315080041A0070000003D370008304D00084D000000AC
S315080041B0E8030000070000000000000000000000FF
S315080041C000000000050007000100010007000000CC
S315080041D044370008604D00084E000000E803000060
S315080041E007000000000000000000000000000000BA
S315080041F00500070001000100070000004B37000812
S31508004200904D00084F000000E8030000070000007A
S315080042100000000000000000000000000500070084
S31508004220010001000700000052370008B84A0008DC
S3150800423050000000E803000007000000000000002E
S315080042400000000000000000050007000100010052
S315080042500700000059370008EC4A00085100000022
S31508004260E80300000700000000000000000000004E
S31508004270000000000500070001000100070000001B
S31508004280603700081C4B000852000000E8030000D5
S315080042900700000000000000000000000000000009
S315080042A00500070001000100070000006737000845
S315080042B04C4B000853000000E8030000070000000C
S315080042C000000000000000000000000005000700D4
S315080042D001000100070000006E3700087C4B00084B
S315080042E054000000E803000007000000000000007A
S315080042F000000000000000000500070001000100A2
S315080043000700000075370008AC4B00085500000090
S31508004310E80300000700000000000000000000009D
S31508004320000000000500070001000100070000006A
S315080043307C370008DC4B000856000000E803000044
S315080043400700000000000000000000000000000058
S315080043500500070001000100070000008337000878
S315080043600C4C000857000000E80300000700000096
S315080043700000000000000000000000000500070023
S3150800438001000100070000008A3700083C4C0008BD
S3150800439058000000E80300000700000000000000C5
S315080043A000000000000000000500070001000100F1
S315080043B00700000091370008784C000859000000F3
S315080043C0E8030000070000000000000000000000ED
S315080043D000000000050007000100010007000000BA
S315080043E098370008A84C00085A000000E8030000A7
S315080043F007000000000000000000000000000000A8
S315080044000500070001000100070000009F370008AB
S31508004410D84C00085B000000E80300000700000015
S315080044200000000000000000000000000300070074
S315080044300200010007000000A6370008084D000822
S315080044405C000000E8030000070000000000000010
S315080044500000000000000000050005000100020041
S3150800446005000000AD370008384D00085D00000063
S31508004470E80300000700000000000000000000003C
S31508004480000000000300070002000100070000000A
S31508004490B2370008684D00085E000000E803000017
S315080044A007000000000000000000000000000000F7
S315080044B0050003000100050003000000B9370008E5
S315080044C0984D00085F000000E803000007000000A0
S315080044D000000000000000000000000005000100C8
S315080044E00100010001000000BC370008C04A0008AE
S315080044F060000000E803000007000000000000005C
S315080045000000000000000000030003000200050090
S3150800451003000000BD370008F44A000861000000E7
S31508004520E80300000700000000000000000000008B
S31508004530000000000500050001000100050000005C
S31508004540C0370008244B000862000000E80300009A
S315080045500700000000000000000000000000000046
S31508004560050007000100010007000000C537000824
S31508004570544B000863000000E80300000700000031
S315080045800000000000000000000000000500050013
S315080045900100010005000000CC370008844B000824
S315080045A064000000E80300000700000000000000A7
S315080045B000000000000000000500070001000100DF
S315080045C007000000D1370008B44B0008650000005A
S315080045D0E8030000070000000000000000000000DB
S315080045E000000000050005000100010005000000AC
S315080045F0D8370008E44B000866000000E80300000E
S315080046000700000000000000000000000000000095
S31508004610050007000100010007000000DD3700085B
S31508004620144C000867000000E803000007000000BB
S315080046300000000000000000000000000500050062
S315080046400100010005000000E4370008444C00089A
S3150800465068000000E80300000700000000000000F2
S31508004660000000000000000005000700010001002E
S3150800467007000000E9370008804C000869000000C0
S31508004680E80300000700000000000000000000002A
S3150800469000000000030007000200010007000000F8
S315080046A0F0370008B04C00086A000000E803000074
S315080046B007000000000000000000000000000000E5
S315080046C0040007000100010007000000F737000892
S315080046D0E04C00086B000000E8030000070000003B
S315080046E000000000000000000000000004000700B1
S315080046F00200010007000000FE370008104D000800
S315080047006C000000E803000007000000000000003D
S31508004710000000000000000003000700020001007E
S315080047200700000005380008404D00086D0000002D
S31508004730E803000007000000000000000000000079
S31508004740000000000500050001000100050000004A
S315080047500C380008704D00086E000000E8030000E1
S315080047600700000000000000000000000000000034
S3150800477005000500010001000500000011380008C9
S31508004780A04D00086F000000E803000007000000C5
S315080047900000000000000000000000000500050001
S315080047A0010001000500000016380008C84A000884
S315080047B070000000E8030000070000000000000089
S315080047C000000000000000000500050001000100CF
S315080047D0050000001B380008FC4A000871000000AC
S315080047E0E8030000070000000000000000000000C9
S315080047F00000000005000600010001000600000098
S31508004800203800082C4B000872000000E80300005E
S315080048100700000000000000000000000000000083
S315080048200500050001000100050000002638000803
S315080048305C4B000873000000E80300000700000056
S315080048400000000000000000000000000500050050
S3150800485001000100050000002B3800088C4B0008F9
S3150800486074000000E80300000700000000000000D4
S31508004870000000000000000005000700010001001C
S315080048800700000030380008BC4B0008750000001F
S31508004890E803000007000000000000000000000018
S315080048A000000000050006000100010006000000E7
S315080048B037380008EC4B000876000000E8030000D3
S315080048C007000000000000000000000000000000D3
S315080048D00500050001000100050000003D3800083C
S315080048E01C4C000877000000E803000007000000E1
S315080048F000000000000000000000000005000500A0
S315080049000100010005000000423800084C4C000870
S3150800491078000000E803000007000000000000001F
S31508004920000000000000000005000500010001006D
S315080049300500000047380008884C00087900000088
S31508004940E803000007000000000000000000000067
S315080049500000000005000500010001000500000038
S315080049604C380008B84C00087A000000E80300003C
S315080049700700000000000000000000000000000022
S315080049800500050001000100050000005138000877
S31508004990E84C00087B000000E80300000700000060
S315080049A000000000000000000000000003000700EF
S315080049B0020001000700000056380008184D0008DC
S315080049C07C000000E803000007000000000000006B
S315080049D000000000000000000100070003000100BD
S315080049E0070000005D380008484D00087D000000FB
S315080049F0E8030000070000000000000000000000B7
S31508004A000000000003000700020001000700000084
S31508004A1064380008784D00087E000000E8030000AE
S31508004A200700000000000000000000000000000071
S31508004A300500030001000500030000006B380008AC
S31508004A40D04A0008544C000800000000080048003E
S31508004A50480007000800000000005F0070380008E2
S31508004A60EC390008000000000000040000000800FF
S31508004A7000000C00000010000000140000001800E0
S31508004A8000001C0000002000000024000000280090
S31508004A9000002C0000003000000034000000380040
S31508004AA03030323000000000303033300000000073
S31508004AB0303034300000000030303530000000005F
S31508004AC0303036300000000030303730000000004B
S31508004AD0322E3100303032310000000030303331B0
S31508004AE0000000003030343100000000303035312D
S31508004AF00000000030303631000000003030373119
S31508004B00000000003030323200000000303033320E
S31508004B1000000000303034320000000030303532FA
S31508004B2000000000303036320000000030303732E6
S31508004B3000000000303032330000000030303333DC
S31508004B4000000000303034330000000030303533C8
S31508004B5000000000303036330000000030303733B4
S31508004B6000000000303032340000000030303334AA
S31508004B700000000030303434000000003030353496
S31508004B800000000030303634000000003030373482
S31508004B900000000030303235000000003030333578
S31508004BA00000000030303435000000003030353564
S31508004BB00000000030303635000000003030373550
S31508004BC00000000030303236000000003030333646
S31508004BD00000000030303436000000003030353632
S31508004BE0000000003030363600000000303037361E
S31508004BF00000000030303237000000003030333714
S31508004C0000000000303034370000000030303537FF
S31508004C1000000000303036370000000030303737EB
S31508004C2000000000303032380000000030303338E1
S31508004C3000000000303034380000000030303538CD
S31508004C4000000000303036380000000030303738B9
S31508004C50000000004D6174726978203578380000CC
S31508004C60303032390000000030303339000000009F
S31508004C70303034390000000030303539000000008B
S31508004C803030363900000000303037390000000077
S31508004C90303032410000000030303341000000005F
S31508004CA0303034410000000030303541000000004B
S31508004CB03030364100000000303037410000000037
S31508004CC0303032420000000030303342000000002D
S31508004CD03030344200000000303035420000000019
S31508004CE03030364200000000303037420000000005
S31508004CF030303243000000003030334300000000FB
S31508004D0030303443000000003030354300000000E6
S31508004D1030303643000000003030374300000000D2
S31508004D2030303244000000003030334400000000C8
S31508004D3030303444000000003030354400000000B4
S31508004D4030303644000000003030374400000000A0
S31508004D503030324500000000303033450000000096
S31508004D603030344500000000303035450000000082
S31508004D70303036450000000030303745000000006E
S31508004D803030324600000000303033460000000064
S31508004D903030344600000000303035460000000050
S31508004DA03030364600000000C84D000800000020DC
S31508004DB0380000007C120008004E00083800002069
S31508004DC0302100008C1200080000000001000000DD
S31508004DD000000000000000000000000000000000C5
S31508004DE0010203040102030406070809020406086F
S31508004DF000000040003801400000000000000000EC
S705080000ED05
